{
	"data": {
		"bytecode": {
			"linkReferences": {},
			"object": "608060405260646007556802b5e3af16b188000060085562989680600955600b805463ffffffff191660061790553480156200003a57600080fd5b5060405162004da538038062004da58339810160408190526200005d91620004d5565b6001600081815581546001600160a01b031916339081179092556040518291907f8be0079c531659141344cd1fd0a4f28419497f9722a3daafe3b4186f6b6457e0908290a350600b8054600160201b600160c01b0319166401000000006001600160a01b03841602179055620000db6001546001600160a01b031690565b600380546001600160a01b0319166001600160a01b0392831617905560015416600480546001600160a01b0319166001600160a01b0392831617905560015416600280546001600160a01b03929092166001600160a01b0319909216919091179055600e6020527fe710864318d4a32f37d6ce54cb3fadbef648dd12d8dbdf53973564d56b7f881c805463ffffffff199081166001179091557fa7c5ba7114a813b50159add3a36832908dc83db71d0b9a24c2ad0f83be95820780548216600b1790557f9adb202b1492743bc00c81d33cdc6423fa8c79109027eb6a845391e8fc1f048180548216606f1790557fe0283e559c29e31ee7f56467acc9dd307779c843a883aeeb3bf5c6128c908144805482166104571790557fa1d6913cd9e08c872be3e7525cca82e4fc0fc298a783f19022be725b19be685a80548216612b67179055600560008181527fb9bec7e2561f624fe753ff070f1599b306cbf59fafd4e8d5a8184a1ea1841bce80549093166201b20717909255805491620002618362000507565b9091555050604080516101a08101909152806003815260200142815260200142815260200160008152602001600081526020016040518060c0016040528060fa8152602001610177815260200161027181526020016104e281526020016109c4815260200161138881525081526020016107d081526020016040518060c001604052806000815260200160008152602001600081526020016000815260200160008152602001600081525081526020016040518060c0016040528060008152602001600081526020016000815260200160008152602001600081526020016000815250815260200160065481526020016006548152602001600a548152602001620f424063ffffffff16815250600c6000600554815260200190815260200160002060008201518160000160006101000a81548160ff02191690836003811115620003b057620003b062000531565b02179055506020820151600182015560408201516002820155606082015160038201556080820151600482015560a0820151620003f490600583019060066200047b565b5060c0820151600b82015560e08201516200041690600c83019060066200047b565b506101008201516200042f90601283019060066200047b565b5061012082015160188201556101408201516019820155610160820151601a82015561018090910151601b909101805463ffffffff191663ffffffff9092169190911790555062000547565b8260068101928215620004ac579160200282015b82811115620004ac5782518255916020019190600101906200048f565b50620004ba929150620004be565b5090565b5b80821115620004ba5760008155600101620004bf565b600060208284031215620004e857600080fd5b81516001600160a01b03811681146200050057600080fd5b9392505050565b60006000198214156200052a57634e487b7160e01b600052601160045260246000fd5b5060010190565b634e487b7160e01b600052602160045260246000fd5b61484e80620005576000396000f3fe608060405234801561001057600080fd5b506004361061025c5760003560e01c806380a0616011610145578063c5f956af116100bd578063da7429f81161008c578063f2b3c80911610071578063f2b3c8091461051e578063f2fde38b14610527578063fe0140661461053a57600080fd5b8063da7429f814610501578063db19da0d1461051457600080fd5b8063c5f956af14610496578063c914914f146104b6578063d86b2982146104c9578063da4ca039146104ee57600080fd5b80638fc3539a116101145780639d8ca531116100f95780639d8ca5311461045d578063b1829b8214610470578063c4937ab91461048357600080fd5b80638fc3539a1461041c5780639c3846531461043d57600080fd5b806380a06160146103bb57806388303dbd146103c35780638904bf2f146103d65780638da5cb5b146103fe57600080fd5b80632e530cae116101d8578063686465b8116101a75780636be4097c1161018c5780636be4097c146103aa578063715018a6146103b35780637cb583bd1461028d57600080fd5b8063686465b81461038e5780636b8737881461039757600080fd5b80632e530cae1461034c57806331feb5651461035f5780633f138d4b14610368578063471aeab41461037b57600080fd5b80631f73664b1161022f57806320211a301161021457806320211a30146103045780632385860b146103195780632423807a1461032c57600080fd5b80631f73664b146102f25780631fe86c6b146102fb57600080fd5b806305531eeb1461026157806307fb5a9c1461028d578063127effb2146102a457806312a9769d146102e9575b600080fd5b61027461026f366004613f28565b61054d565b60405161028494939291906142a9565b60405180910390f35b61029661012c81565b604051908152602001610284565b6003546102c49073ffffffffffffffffffffffffffffffffffffffff1681565b60405173ffffffffffffffffffffffffffffffffffffffff9091168152602001610284565b610296600a5481565b61029660085481565b61029660075481565b6103176103123660046141a1565b61087a565b005b61031761032736600461409f565b610ab3565b61033f61033a366004613fc0565b611129565b604051610284919061439c565b61029661035a366004614175565b61128a565b61029660095481565b610317610376366004613efe565b611311565b6103176103893660046140d8565b611406565b61029660065481565b6103176103a5366004613fc0565b6115c1565b61029660055481565b6103176116ae565b600554610296565b6103176103d1366004614053565b61179e565b600b546102c490640100000000900473ffffffffffffffffffffffffffffffffffffffff1681565b60015473ffffffffffffffffffffffffffffffffffffffff166102c4565b61042f61042a366004613f61565b611f13565b60405161028492919061431d565b6002546102c49073ffffffffffffffffffffffffffffffffffffffff1681565b61031761046b366004613fc0565b6120da565b61031761047e366004614126565b612382565b6102966104913660046140fa565b612954565b6004546102c49073ffffffffffffffffffffffffffffffffffffffff1681565b6103176104c4366004613fd9565b612a34565b600b546104d99063ffffffff1681565b60405163ffffffff9091168152602001610284565b6103176104fc366004613ebb565b6131c6565b61031761050f3660046140d8565b613467565b6102966228dfac81565b610296610bb881565b610317610535366004613ea0565b61355d565b610317610548366004613ea0565b61370f565b73ffffffffffffffffffffffffffffffffffffffff84166000908152601060209081526040808320868452909152812054606091829182919085906105928882614620565b8211156105a6576105a38882614620565b91505b60008267ffffffffffffffff8111156105c1576105c16147d8565b6040519080825280602002602001820160405280156105ea578160200160208202803683370190505b50905060008367ffffffffffffffff811115610608576106086147d8565b604051908082528060200260200182016040528015610631578160200160208202803683370190505b50905060008467ffffffffffffffff81111561064f5761064f6147d8565b604051908082528060200260200182016040528015610678578160200160208202803683370190505b50905060005b8581101561085457601060008f73ffffffffffffffffffffffffffffffffffffffff1673ffffffffffffffffffffffffffffffffffffffff16815260200190815260200160002060008e81526020019081526020016000208c826106e2919061445f565b815481106106f2576106f26147a9565b906000526020600020015484828151811061070f5761070f6147a9565b602002602001018181525050600d6000858381518110610731576107316147a9565b6020026020010151815260200190815260200160002060000160009054906101000a900463ffffffff1683828151811061076d5761076d6147a9565b602002602001019063ffffffff16908163ffffffff1681525050600073ffffffffffffffffffffffffffffffffffffffff16600d60008684815181106107b5576107b56147a9565b602090810291909101810151825281019190915260400160002054640100000000900473ffffffffffffffffffffffffffffffffffffffff16141561081d576001828281518110610808576108086147a9565b91151560209283029190910190910152610842565b6000828281518110610831576108316147a9565b911515602092830291909101909101525b8061084c81614688565b91505061067e565b50828282610862888f61445f565b98509850985098505050505050945094509450949050565b60015473ffffffffffffffffffffffffffffffffffffffff163314610900576040517f08c379a000000000000000000000000000000000000000000000000000000000815260206004820181905260248201527f4f776e61626c653a2063616c6c6572206973206e6f7420746865206f776e657260448201526064015b60405180910390fd5b60068163ffffffff161115610971576040517f08c379a000000000000000000000000000000000000000000000000000000000815260206004820152601960248201527f6e756d62657273436f756e74206d757374206265203c3d20360000000000000060448201526064016108f7565b60028163ffffffff1610156109e2576040517f08c379a000000000000000000000000000000000000000000000000000000000815260206004820152601960248201527f6e756d62657273436f756e74206d757374206265203e3d20320000000000000060448201526064016108f7565b6005541580610a16575060036005546000908152600c602052604090205460ff166003811115610a1457610a1461477a565b145b610a7c576040517f08c379a000000000000000000000000000000000000000000000000000000000815260206004820152601860248201527f486173206e6f742066696e6973686564206c6f7474657279000000000000000060448201526064016108f7565b600b80547fffffffffffffffffffffffffffffffffffffffffffffffffffffffff000000001663ffffffff92909216919091179055565b60015473ffffffffffffffffffffffffffffffffffffffff16331480610af0575060035473ffffffffffffffffffffffffffffffffffffffff1633145b610b56576040517f08c379a000000000000000000000000000000000000000000000000000000000815260206004820152601560248201527f4e6f74206f776e6572206f72206f70657261746f72000000000000000000000060448201526064016108f7565b60026000541415610bc3576040517f08c379a000000000000000000000000000000000000000000000000000000000815260206004820152601f60248201527f5265656e7472616e637947756172643a207265656e7472616e742063616c6c0060448201526064016108f7565b60026000818155848152600c602052604090205460ff166003811115610beb57610beb61477a565b14610c52576040517f08c379a000000000000000000000000000000000000000000000000000000000815260206004820152601160248201527f4c6f7474657279206e6f7420636c6f736500000000000000000000000000000060448201526064016108f7565b6000838152600c60205260408120600b0154819061271090610c749082614620565b6000878152600c60205260409020601a0154610c9091906145e3565b610c9a919061449f565b6000868152600c6020908152604080832060188101546019820154601a90920154835142818701528085018c905260608082018e9052608082019390935260a081019390935260c083015260e08201869052434061010083015241901b7fffffffffffffffffffffffffffffffffffffffff0000000000000000000000001661012082015244610134820152456101548201523a61017480830191909152825180830390910181526101949091019091528051910120919250610d60620f4240836146e5565b610d6d90620f424061445f565b90506000805b600b5463ffffffff908116908216101561100457600b546000908290610da19060019063ffffffff16614637565b610dab9190614637565b90506000610dba826001614477565b610dc590600a6144f8565b610dcf90866146f9565b63ffffffff8084166000908152600e6020526040902054610df1929116614477565b60008c8152600f6020908152604080832063ffffffff85168452909152902054909150610e1f908990614620565b60008c8152600c6020526040902060120163ffffffff841660068110610e4757610e476147a9565b015560008b8152600f6020908152604080832063ffffffff85168452909152902054610e74908990614620565b15610f745760008b8152600c6020526040902060050163ffffffff831660068110610ea157610ea16147a9565b015415610f6f5760008b8152600f6020908152604080832063ffffffff8516845290915290205461271090610ed7908a90614620565b60008d8152600c60205260409020899060050163ffffffff861660068110610f0157610f016147a9565b0154610f0d91906145e3565b610f17919061449f565b610f21919061449f565b60008c8152600c602081905260409091200163ffffffff841660068110610f4a57610f4a6147a9565b015560008b8152600f6020908152604080832063ffffffff8516845290915290205497505b610fef565b60008b8152600c6020819052604082200163ffffffff841660068110610f9c57610f9c6147a9565b015560008b8152600c6020526040902061271090889060050163ffffffff851660068110610fcc57610fcc6147a9565b0154610fd891906145e3565b610fe2919061449f565b610fec908561445f565b93505b50508080610ffc906146c1565b915050610d73565b506000888152600c60205260409020601b8101805463ffffffff85167fffffffffffffffffffffffffffffffffffffffffffffffffffffffff0000000090911617905580547fffffffffffffffffffffffffffffffffffffffffffffffffffffffffffffff00166003179055851561107c57600a5560005b6000888152600c60205260409020601a0154611099908590614620565b6110a3908261445f565b600454600b549192506110d891640100000000900473ffffffffffffffffffffffffffffffffffffffff908116911683613854565b6005546040805163ffffffff85168152602081018890527f98e31a6607b8b15b4d5b91de54f4c09ffe4c4cf162aa532c70b5213754e2e703910160405180910390a250506001600055505050505050565b611131613d2c565b6000828152600c60205260409081902081516101a081019092528054829060ff1660038111156111635761116361477a565b60038111156111745761117461477a565b81526001820154602082015260028201546040808301919091526003830154606083015260048301546080830152805160c081019182905260a09092019190600584019060069082845b8154815260200190600101908083116111be575050509183525050600b82015460208201526040805160c081018252910190600c830160068282826020028201915b8154815260200190600101908083116112005750505091835250506040805160c081019182905260209092019190601284019060069082845b8154815260200190600101908083116112395750505091835250506018820154602082015260198201546040820152601a8201546060820152601b9091015463ffffffff1660809091015292915050565b600060036000858152600c602052604090205460ff1660038111156112b1576112b161477a565b146112be5750600061130a565b6000848152600c6020526040902060190154831180156112ef57506000848152600c60205260409020601801548311155b156112fc5750600061130a565b61130784848461392d565b90505b9392505050565b60015473ffffffffffffffffffffffffffffffffffffffff163314611392576040517f08c379a000000000000000000000000000000000000000000000000000000000815260206004820181905260248201527f4f776e61626c653a2063616c6c6572206973206e6f7420746865206f776e657260448201526064016108f7565b6113b373ffffffffffffffffffffffffffffffffffffffff83163383613854565b6040805173ffffffffffffffffffffffffffffffffffffffff84168152602081018390527f74545154aac348a3eac92596bd1971957ca94795f4e954ec5f613b55fab78129910160405180910390a15050565b60015473ffffffffffffffffffffffffffffffffffffffff16331480611443575060025473ffffffffffffffffffffffffffffffffffffffff1633145b6114a9576040517f08c379a000000000000000000000000000000000000000000000000000000000815260206004820152601560248201527f4e6f74206f776e6572206f7220696e6a6563746f72000000000000000000000060448201526064016108f7565b60016000838152600c602052604090205460ff1660038111156114ce576114ce61477a565b14611535576040517f08c379a000000000000000000000000000000000000000000000000000000000815260206004820152601060248201527f4c6f7474657279206e6f74206f70656e0000000000000000000000000000000060448201526064016108f7565b600b5461156290640100000000900473ffffffffffffffffffffffffffffffffffffffff16333084613a39565b6000828152600c60205260408120601a01805483929061158390849061445f565b909155505060405181815282907f1bbd659dd628a25f7ff2eabb69c74a56939c539728282275c1c9c1a2d3e340499060200160405180910390a25050565b60015473ffffffffffffffffffffffffffffffffffffffff163314611642576040517f08c379a000000000000000000000000000000000000000000000000000000000815260206004820181905260248201527f4f776e61626c653a2063616c6c6572206973206e6f7420746865206f776e657260448201526064016108f7565b806116a9576040517f08c379a000000000000000000000000000000000000000000000000000000000815260206004820152600b60248201527f4d757374206265203e203000000000000000000000000000000000000000000060448201526064016108f7565b600755565b60015473ffffffffffffffffffffffffffffffffffffffff16331461172f576040517f08c379a000000000000000000000000000000000000000000000000000000000815260206004820181905260248201527f4f776e61626c653a2063616c6c6572206973206e6f7420746865206f776e657260448201526064016108f7565b60015460405160009173ffffffffffffffffffffffffffffffffffffffff16907f8be0079c531659141344cd1fd0a4f28419497f9722a3daafe3b4186f6b6457e0908390a3600180547fffffffffffffffffffffffff0000000000000000000000000000000000000000169055565b333b15611807576040517f08c379a000000000000000000000000000000000000000000000000000000000815260206004820152601460248201527f436f6e7472616374206e6f7420616c6c6f77656400000000000000000000000060448201526064016108f7565b333214611870576040517f08c379a000000000000000000000000000000000000000000000000000000000815260206004820152601a60248201527f50726f787920636f6e7472616374206e6f7420616c6c6f77656400000000000060448201526064016108f7565b600260005414156118dd576040517f08c379a000000000000000000000000000000000000000000000000000000000815260206004820152601f60248201527f5265656e7472616e637947756172643a207265656e7472616e742063616c6c0060448201526064016108f7565b600260005580611949576040517f08c379a000000000000000000000000000000000000000000000000000000000815260206004820152601360248201527f4e6f207469636b6574207370656369666965640000000000000000000000000060448201526064016108f7565b6007548111156119b5576040517f08c379a000000000000000000000000000000000000000000000000000000000815260206004820152601060248201527f546f6f206d616e79207469636b6574730000000000000000000000000000000060448201526064016108f7565b60016000848152600c602052604090205460ff1660038111156119da576119da61477a565b14611a41576040517f08c379a000000000000000000000000000000000000000000000000000000000815260206004820152601360248201527f4c6f7474657279206973206e6f74206f70656e0000000000000000000000000060448201526064016108f7565b6000838152600c60205260409020600201544210611abb576040517f08c379a000000000000000000000000000000000000000000000000000000000815260206004820152600f60248201527f4c6f7474657279206973206f766572000000000000000000000000000000000060448201526064016108f7565b6000838152600c602052604081206004810154600390910154611adf919084613a9d565b600b54909150611b0f90640100000000900473ffffffffffffffffffffffffffffffffffffffff16333084613a39565b6000848152600c60205260408120601a018054839290611b3090849061445f565b90915550600090505b82811015611ed0576000848483818110611b5557611b556147a9565b9050602002016020810190611b6a91906141a1565b600b54909150611b819063ffffffff16600a6144f8565b611b8b9082614637565b611b9890620f4240614477565b9050620f42408163ffffffff1610158015611bbc5750621e847f8163ffffffff1611155b611c22576040517f08c379a000000000000000000000000000000000000000000000000000000000815260206004820152600d60248201527f4f7574736964652072616e67650000000000000000000000000000000000000060448201526064016108f7565b6000868152600f6020526040812090611c3c600a846146f9565b611c47906001614477565b63ffffffff16815260208101919091526040016000908120805491611c6b83614688565b90915550506000868152600f6020526040812090611c8a6064846146f9565b611c9590600b614477565b63ffffffff16815260208101919091526040016000908120805491611cb983614688565b90915550506000868152600f6020526040812090611cd96103e8846146f9565b611ce490606f614477565b63ffffffff16815260208101919091526040016000908120805491611d0883614688565b90915550506000868152600f6020526040812090611d28612710846146f9565b611d3490610457614477565b63ffffffff16815260208101919091526040016000908120805491611d5883614688565b90915550506000868152600f6020526040812090611d79620186a0846146f9565b611d8590612b67614477565b63ffffffff16815260208101919091526040016000908120805491611da983614688565b90915550506000868152600f6020526040812090611dca620f4240846146f9565b611dd7906201b207614477565b63ffffffff16815260208101919091526040016000908120805491611dfb83614688565b90915550503360008181526010602090815260408083208a84528252808320600680548254600181018455928652848620909201919091558151808301835263ffffffff808816825281850196875282548652600d90945291842091518254955173ffffffffffffffffffffffffffffffffffffffff16640100000000027fffffffffffffffff0000000000000000000000000000000000000000000000009096169316929092179390931790925581549190611eb783614688565b9190505550508080611ec890614688565b915050611b39565b50604051828152849033907fd7d247b583de1023852eef87b48f54354dbec771d01bc2cc49e96094efc322b99060200160405180910390a3505060016000555050565b6060808260008167ffffffffffffffff811115611f3257611f326147d8565b604051908082528060200260200182016040528015611f5b578160200160208202803683370190505b50905060008267ffffffffffffffff811115611f7957611f796147d8565b604051908082528060200260200182016040528015611fa2578160200160208202803683370190505b50905060005b838110156120cb57600d6000898984818110611fc657611fc66147a9565b90506020020135815260200190815260200160002060000160009054906101000a900463ffffffff16838281518110612001576120016147a9565b63ffffffff909216602092830291909101909101526000600d818a8a8581811061202d5761202d6147a9565b6020908102929092013583525081019190915260400160002054640100000000900473ffffffffffffffffffffffffffffffffffffffff16141561209457600182828151811061207f5761207f6147a9565b911515602092830291909101909101526120b9565b60008282815181106120a8576120a86147a9565b911515602092830291909101909101525b806120c381614688565b915050611fa8565b509093509150505b9250929050565b60015473ffffffffffffffffffffffffffffffffffffffff16331480612117575060035473ffffffffffffffffffffffffffffffffffffffff1633145b61217d576040517f08c379a000000000000000000000000000000000000000000000000000000000815260206004820152601560248201527f4e6f74206f776e6572206f72206f70657261746f72000000000000000000000060448201526064016108f7565b600260005414156121ea576040517f08c379a000000000000000000000000000000000000000000000000000000000815260206004820152601f60248201527f5265656e7472616e637947756172643a207265656e7472616e742063616c6c0060448201526064016108f7565b600260005560016000828152600c602052604090205460ff1660038111156122145761221461477a565b1461227b576040517f08c379a000000000000000000000000000000000000000000000000000000000815260206004820152601060248201527f4c6f7474657279206e6f74206f70656e0000000000000000000000000000000060448201526064016108f7565b6000818152600c602052604090206002015442116122f5576040517f08c379a000000000000000000000000000000000000000000000000000000000815260206004820152601060248201527f4c6f7474657279206e6f74206f7665720000000000000000000000000000000060448201526064016108f7565b6006546000828152600c6020526040902060198101919091558054600291907fffffffffffffffffffffffffffffffffffffffffffffffffffffffffffffff00166001830217905550807f3728e75294796694d59d2ffced9c394279baf7b9ebd2702db43f5f04bac6792960065460405161237291815260200190565b60405180910390a2506001600055565b60015473ffffffffffffffffffffffffffffffffffffffff163314806123bf575060035473ffffffffffffffffffffffffffffffffffffffff1633145b612425576040517f08c379a000000000000000000000000000000000000000000000000000000000815260206004820152601560248201527f4e6f74206f776e6572206f72206f70657261746f72000000000000000000000060448201526064016108f7565b6005541580612459575060036005546000908152600c602052604090205460ff1660038111156124575761245761477a565b145b6124bf576040517f08c379a000000000000000000000000000000000000000000000000000000000815260206004820152601960248201527f4e6f742074696d6520746f207374617274206c6f74746572790000000000000060448201526064016108f7565b61012c6124cc4287614620565b1180156124e457506228dfac6124e24287614620565b105b61254a576040517f08c379a000000000000000000000000000000000000000000000000000000000815260206004820152601f60248201527f4c6f7474657279206c656e677468206f757473696465206f662072616e67650060448201526064016108f7565b61012c8310156125b6576040517f08c379a000000000000000000000000000000000000000000000000000000000815260206004820152601860248201527f446973636f756e742064697669736f7220746f6f206c6f77000000000000000060448201526064016108f7565b610bb8811115612622576040517f08c379a000000000000000000000000000000000000000000000000000000000815260206004820152601560248201527f54726561737572792066656520746f6f2068696768000000000000000000000060448201526064016108f7565b60a08201356080830135606084013560408501356126456020870135873561445f565b61264f919061445f565b612659919061445f565b612663919061445f565b61266d919061445f565b612710146126d7576040517f08c379a000000000000000000000000000000000000000000000000000000000815260206004820152601860248201527f52657761726473206d75737420657175616c203130303030000000000000000060448201526064016108f7565b600580549060006126e783614688565b9091555050604080516101a0810190915280600181526020014281526020018681526020018581526020018481526020018360068060200260405190810160405280929190826006602002808284376000920182905250928452505060208083018590526040805160c080820183528482528184018590528183018590526060808301869052608080840187905260a080850188905285890194909452845180840186528781528087018890528086018890528083018890528082018890528085018890529188019190915260065490870181905291860191909152600a549085015260e09093018290526005548252600c9052208151815482907fffffffffffffffffffffffffffffffffffffffffffffffffffffffffffffff001660018360038111156128185761281861477a565b02179055506020820151600182015560408201516002820155606082015160038201556080820151600482015560a082015161285a9060058301906006613dad565b5060c0820151600b82015560e082015161287a90600c8301906006613dad565b506101008201516128919060128301906006613dad565b5061012082015160188201556101408201516019820155610160820151601a82015561018090910151601b90910180547fffffffffffffffffffffffffffffffffffffffffffffffffffffffff000000001663ffffffff909216919091179055600554600654600a5460408051428152602081018a9052908101889052606081019290925260808201527f367e70f8c0e0c0a6504d92172bda155c02022d532fc85b5d66a9c49e31c8bc779060a00160405180910390a250506000600a55505050565b600061012c8410156129c2576040517f08c379a000000000000000000000000000000000000000000000000000000000815260206004820152601f60248201527f4d757374206265203e3d204d494e5f444953434f554e545f44495649534f520060448201526064016108f7565b81612a29576040517f08c379a000000000000000000000000000000000000000000000000000000000815260206004820152601d60248201527f4e756d626572206f66207469636b657473206d757374206265203e203000000060448201526064016108f7565b611307848484613a9d565b333b15612a9d576040517f08c379a000000000000000000000000000000000000000000000000000000000815260206004820152601460248201527f436f6e7472616374206e6f7420616c6c6f77656400000000000000000000000060448201526064016108f7565b333214612b06576040517f08c379a000000000000000000000000000000000000000000000000000000000815260206004820152601a60248201527f50726f787920636f6e7472616374206e6f7420616c6c6f77656400000000000060448201526064016108f7565b60026000541415612b73576040517f08c379a000000000000000000000000000000000000000000000000000000000815260206004820152601f60248201527f5265656e7472616e637947756172643a207265656e7472616e742063616c6c0060448201526064016108f7565b6002600055828114612be1576040517f08c379a000000000000000000000000000000000000000000000000000000000815260206004820152600f60248201527f4e6f742073616d65206c656e677468000000000000000000000000000000000060448201526064016108f7565b82612c48576040517f08c379a000000000000000000000000000000000000000000000000000000000815260206004820152601160248201527f4c656e677468206d757374206265203e3000000000000000000000000000000060448201526064016108f7565b600754831115612cb4576040517f08c379a000000000000000000000000000000000000000000000000000000000815260206004820152601060248201527f546f6f206d616e79207469636b6574730000000000000000000000000000000060448201526064016108f7565b60036000868152600c602052604090205460ff166003811115612cd957612cd961477a565b14612d40576040517f08c379a000000000000000000000000000000000000000000000000000000000815260206004820152601560248201527f4c6f7474657279206e6f7420636c61696d61626c65000000000000000000000060448201526064016108f7565b6000805b8481101561314f576006848483818110612d6057612d606147a9565b9050602002016020810190612d7591906141a1565b63ffffffff1610612de2576040517f08c379a000000000000000000000000000000000000000000000000000000000815260206004820152601460248201527f427261636b6574206f7574206f662072616e676500000000000000000000000060448201526064016108f7565b6000868683818110612df657612df66147a9565b90506020020135905080600c60008a81526020019081526020016000206019015411612e7e576040517f08c379a000000000000000000000000000000000000000000000000000000000815260206004820152601160248201527f5469636b6574496420746f6f206869676800000000000000000000000000000060448201526064016108f7565b6000888152600c6020526040902060180154811015612ef9576040517f08c379a000000000000000000000000000000000000000000000000000000000815260206004820152601060248201527f5469636b6574496420746f6f206c6f770000000000000000000000000000000060448201526064016108f7565b6000818152600d6020526040902054640100000000900473ffffffffffffffffffffffffffffffffffffffff163314612f8e576040517f08c379a000000000000000000000000000000000000000000000000000000000815260206004820152600d60248201527f4e6f7420746865206f776e65720000000000000000000000000000000000000060448201526064016108f7565b6000818152600d6020526040812080547fffffffffffffffff0000000000000000000000000000000000000000ffffffff169055612ff38983888887818110612fd957612fd96147a9565b9050602002016020810190612fee91906141a1565b61392d565b90508061305c576040517f08c379a000000000000000000000000000000000000000000000000000000000815260206004820152601960248201527f4e6f207072697a6520666f72207468697320627261636b65740000000000000060448201526064016108f7565b85858481811061306e5761306e6147a9565b905060200201602081019061308391906141a1565b63ffffffff1660051461312e576130c789838888878181106130a7576130a76147a9565b90506020020160208101906130bc91906141a1565b612fee906001614477565b1561312e576040517f08c379a000000000000000000000000000000000000000000000000000000000815260206004820152601660248201527f427261636b6574206d757374206265206869676865720000000000000000000060448201526064016108f7565b613138818561445f565b93505050808061314790614688565b915050612d44565b50600b5461317c90640100000000900473ffffffffffffffffffffffffffffffffffffffff163383613854565b6040805182815260208101869052879133917f0f5fca62da8fb5d95525b49e5eaa7b20bc6bd9e2f6b64b493442d1c0bd6ef486910160405180910390a35050600160005550505050565b60015473ffffffffffffffffffffffffffffffffffffffff163314613247576040517f08c379a000000000000000000000000000000000000000000000000000000000815260206004820181905260248201527f4f776e61626c653a2063616c6c6572206973206e6f7420746865206f776e657260448201526064016108f7565b73ffffffffffffffffffffffffffffffffffffffff83166132c4576040517f08c379a000000000000000000000000000000000000000000000000000000000815260206004820152601660248201527f43616e6e6f74206265207a65726f20616464726573730000000000000000000060448201526064016108f7565b73ffffffffffffffffffffffffffffffffffffffff8216613341576040517f08c379a000000000000000000000000000000000000000000000000000000000815260206004820152601660248201527f43616e6e6f74206265207a65726f20616464726573730000000000000000000060448201526064016108f7565b73ffffffffffffffffffffffffffffffffffffffff81166133be576040517f08c379a000000000000000000000000000000000000000000000000000000000815260206004820152601660248201527f43616e6e6f74206265207a65726f20616464726573730000000000000000000060448201526064016108f7565b6003805473ffffffffffffffffffffffffffffffffffffffff8581167fffffffffffffffffffffffff0000000000000000000000000000000000000000928316811790935560048054868316908416811790915560028054928616929093168217909255604080519384526020840192909252908201527f3e945b7660001d46cfd5e729545f7f0b6c65bdee54066a91c7acad703f1b731e9060600160405180910390a1505050565b60015473ffffffffffffffffffffffffffffffffffffffff1633146134e8576040517f08c379a000000000000000000000000000000000000000000000000000000000815260206004820181905260248201527f4f776e61626c653a2063616c6c6572206973206e6f7420746865206f776e657260448201526064016108f7565b80821115613552576040517f08c379a000000000000000000000000000000000000000000000000000000000815260206004820152601b60248201527f6d696e5072696365206d757374206265203c206d61785072696365000000000060448201526064016108f7565b600991909155600855565b60015473ffffffffffffffffffffffffffffffffffffffff1633146135de576040517f08c379a000000000000000000000000000000000000000000000000000000000815260206004820181905260248201527f4f776e61626c653a2063616c6c6572206973206e6f7420746865206f776e657260448201526064016108f7565b73ffffffffffffffffffffffffffffffffffffffff8116613681576040517f08c379a000000000000000000000000000000000000000000000000000000000815260206004820152602660248201527f4f776e61626c653a206e6577206f776e657220697320746865207a65726f206160448201527f646472657373000000000000000000000000000000000000000000000000000060648201526084016108f7565b60015460405173ffffffffffffffffffffffffffffffffffffffff8084169216907f8be0079c531659141344cd1fd0a4f28419497f9722a3daafe3b4186f6b6457e090600090a3600180547fffffffffffffffffffffffff00000000000000000000000000000000000000001673ffffffffffffffffffffffffffffffffffffffff92909216919091179055565b60015473ffffffffffffffffffffffffffffffffffffffff163314613790576040517f08c379a000000000000000000000000000000000000000000000000000000000815260206004820181905260248201527f4f776e61626c653a2063616c6c6572206973206e6f7420746865206f776e657260448201526064016108f7565b73ffffffffffffffffffffffffffffffffffffffff811661380d576040517f08c379a000000000000000000000000000000000000000000000000000000000815260206004820152601660248201527f43616e6e6f74206265207a65726f20616464726573730000000000000000000060448201526064016108f7565b600380547fffffffffffffffffffffffff00000000000000000000000000000000000000001673ffffffffffffffffffffffffffffffffffffffff92909216919091179055565b60405173ffffffffffffffffffffffffffffffffffffffff83166024820152604481018290526139289084907fa9059cbb00000000000000000000000000000000000000000000000000000000906064015b604080517fffffffffffffffffffffffffffffffffffffffffffffffffffffffffffffffe08184030181529190526020810180517bffffffffffffffffffffffffffffffffffffffffffffffffffffffff167fffffffff0000000000000000000000000000000000000000000000000000000090931692909217909152613ad4565b505050565b6000838152600c60209081526040808320601b0154858452600d90925282205463ffffffff918216911682613963856001614477565b61396e90600a6144f8565b61397890836146f9565b63ffffffff8087166000908152600e602052604090205461399a929116614477565b905060006139a9866001614477565b6139b490600a6144f8565b6139be90856146f9565b63ffffffff8088166000908152600e60205260409020546139e0929116614477565b90508063ffffffff168263ffffffff161415613a2c576000888152600c602081905260409091200163ffffffff871660068110613a1f57613a1f6147a9565b015494505050505061130a565b600094505050505061130a565b60405173ffffffffffffffffffffffffffffffffffffffff80851660248301528316604482015260648101829052613a979085907f23b872dd00000000000000000000000000000000000000000000000000000000906084016138a6565b50505050565b60008382613aac82600161445f565b613ab69190614620565b613ac084866145e3565b613aca91906145e3565b611307919061449f565b6000613b36826040518060400160405280602081526020017f5361666545524332303a206c6f772d6c6576656c2063616c6c206661696c65648152508573ffffffffffffffffffffffffffffffffffffffff16613be09092919063ffffffff16565b8051909150156139285780806020019051810190613b549190613fa3565b613928576040517f08c379a000000000000000000000000000000000000000000000000000000000815260206004820152602a60248201527f5361666545524332303a204552433230206f7065726174696f6e20646964206e60448201527f6f7420737563636565640000000000000000000000000000000000000000000060648201526084016108f7565b6060611307848460008585843b613c53576040517f08c379a000000000000000000000000000000000000000000000000000000000815260206004820152601d60248201527f416464726573733a2063616c6c20746f206e6f6e2d636f6e747261637400000060448201526064016108f7565b6000808673ffffffffffffffffffffffffffffffffffffffff168587604051613c7c919061428d565b60006040518083038185875af1925050503d8060008114613cb9576040519150601f19603f3d011682016040523d82523d6000602084013e613cbe565b606091505b5091509150613cce828286613cd9565b979650505050505050565b60608315613ce857508161130a565b825115613cf85782518084602001fd5b816040517f08c379a00000000000000000000000000000000000000000000000000000000081526004016108f7919061434b565b604080516101a08101909152806000815260200160008152602001600081526020016000815260200160008152602001613d64613deb565b815260200160008152602001613d78613deb565b8152602001613d85613deb565b8152602001600081526020016000815260200160008152602001600063ffffffff1681525090565b8260068101928215613ddb579160200282015b82811115613ddb578251825591602001919060010190613dc0565b50613de7929150613e09565b5090565b6040518060c001604052806006906020820280368337509192915050565b5b80821115613de75760008155600101613e0a565b803573ffffffffffffffffffffffffffffffffffffffff81168114613e4257600080fd5b919050565b60008083601f840112613e5957600080fd5b50813567ffffffffffffffff811115613e7157600080fd5b6020830191508360208260051b85010111156120d357600080fd5b803563ffffffff81168114613e4257600080fd5b600060208284031215613eb257600080fd5b61130a82613e1e565b600080600060608486031215613ed057600080fd5b613ed984613e1e565b9250613ee760208501613e1e565b9150613ef560408501613e1e565b90509250925092565b60008060408385031215613f1157600080fd5b613f1a83613e1e565b946020939093013593505050565b60008060008060808587031215613f3e57600080fd5b613f4785613e1e565b966020860135965060408601359560600135945092505050565b60008060208385031215613f7457600080fd5b823567ffffffffffffffff811115613f8b57600080fd5b613f9785828601613e47565b90969095509350505050565b600060208284031215613fb557600080fd5b815161130a81614807565b600060208284031215613fd257600080fd5b5035919050565b600080600080600060608688031215613ff157600080fd5b85359450602086013567ffffffffffffffff8082111561401057600080fd5b61401c89838a01613e47565b9096509450604088013591508082111561403557600080fd5b5061404288828901613e47565b969995985093965092949392505050565b60008060006040848603121561406857600080fd5b83359250602084013567ffffffffffffffff81111561408657600080fd5b61409286828701613e47565b9497909650939450505050565b6000806000606084860312156140b457600080fd5b833592506020840135915060408401356140cd81614807565b809150509250925092565b600080604083850312156140eb57600080fd5b50508035926020909101359150565b60008060006060848603121561410f57600080fd5b505081359360208301359350604090920135919050565b6000806000806000610140868803121561413f57600080fd5b85359450602086013593506040860135925061012086018781111561416357600080fd5b94979396509194606001933592915050565b60008060006060848603121561418a57600080fd5b8335925060208401359150613ef560408501613e8c565b6000602082840312156141b357600080fd5b61130a82613e8c565b600081518084526020808501945080840160005b838110156141ee5781511515875295820195908201906001016141d0565b509495945050505050565b8060005b6006811015613a975781518452602093840193909101906001016141fd565b600081518084526020808501945080840160005b838110156141ee57815163ffffffff1687529582019590820190600101614230565b60048110614289577f4e487b7100000000000000000000000000000000000000000000000000000000600052602160045260246000fd5b9052565b6000825161429f81846020870161465c565b9190910192915050565b6080808252855190820181905260009060209060a0840190828901845b828110156142e2578151845292840192908401906001016142c6565b505050838103828501526142f6818861421c565b915050828103604084015261430b81866141bc565b91505082606083015295945050505050565b604081526000614330604083018561421c565b828103602084015261434281856141bc565b95945050505050565b602081526000825180602084015261436a81604085016020870161465c565b601f017fffffffffffffffffffffffffffffffffffffffffffffffffffffffffffffffe0169190910160400192915050565b6000610380820190506143b0828451614252565b6020830151602083015260408301516040830152606083015160608301526080830151608083015260a08301516143ea60a08401826141f9565b5060c0830151610160818185015260e0850151915061018061440e818601846141f9565b61010086015192506144246102408601846141f9565b6101208601516103008601526101408601516103208601529085015161034085015284015163ffffffff811661036085015290505092915050565b600082198211156144725761447261471c565b500190565b600063ffffffff8083168185168083038211156144965761449661471c565b01949350505050565b6000826144ae576144ae61474b565b500490565b600181815b808511156144f0578163ffffffff048211156144d6576144d661471c565b808516156144e357918102915b93841c93908002906144b8565b509250929050565b600063ffffffff61450d818516828516614515565b949350505050565b600082614524575060016145dd565b81614531575060006145dd565b8160018114614547576002811461455157614582565b60019150506145dd565b60ff8411156145625761456261471c565b6001841b915063ffffffff82111561457c5761457c61471c565b506145dd565b5060208310610133831016604e8410600b84101617156145b9575081810a63ffffffff8111156145b4576145b461471c565b6145dd565b6145c383836144b3565b8063ffffffff048211156145d9576145d961471c565b0290505b92915050565b6000817fffffffffffffffffffffffffffffffffffffffffffffffffffffffffffffffff048311821515161561461b5761461b61471c565b500290565b6000828210156146325761463261471c565b500390565b600063ffffffff838116908316818110156146545761465461471c565b039392505050565b60005b8381101561467757818101518382015260200161465f565b83811115613a975750506000910152565b60007fffffffffffffffffffffffffffffffffffffffffffffffffffffffffffffffff8214156146ba576146ba61471c565b5060010190565b600063ffffffff808316818114156146db576146db61471c565b6001019392505050565b6000826146f4576146f461474b565b500690565b600063ffffffff808416806147105761471061474b565b92169190910692915050565b7f4e487b7100000000000000000000000000000000000000000000000000000000600052601160045260246000fd5b7f4e487b7100000000000000000000000000000000000000000000000000000000600052601260045260246000fd5b7f4e487b7100000000000000000000000000000000000000000000000000000000600052602160045260246000fd5b7f4e487b7100000000000000000000000000000000000000000000000000000000600052603260045260246000fd5b7f4e487b7100000000000000000000000000000000000000000000000000000000600052604160045260246000fd5b801515811461481557600080fd5b5056fea2646970667358221220b098c1a3d665d9a30e5542f874841cbad05fc086e52012a2407cadd019271d9064736f6c63430008070033",
			"opcodes": "PUSH1 0x80 PUSH1 0x40 MSTORE PUSH1 0x64 PUSH1 0x7 SSTORE PUSH9 0x2B5E3AF16B1880000 PUSH1 0x8 SSTORE PUSH3 0x989680 PUSH1 0x9 SSTORE PUSH1 0xB DUP1 SLOAD PUSH4 0xFFFFFFFF NOT AND PUSH1 0x6 OR SWAP1 SSTORE CALLVALUE DUP1 ISZERO PUSH3 0x3A JUMPI PUSH1 0x0 DUP1 REVERT JUMPDEST POP PUSH1 0x40 MLOAD PUSH3 0x4DA5 CODESIZE SUB DUP1 PUSH3 0x4DA5 DUP4 CODECOPY DUP2 ADD PUSH1 0x40 DUP2 SWAP1 MSTORE PUSH3 0x5D SWAP2 PUSH3 0x4D5 JUMP JUMPDEST PUSH1 0x1 PUSH1 0x0 DUP2 DUP2 SSTORE DUP2 SLOAD PUSH1 0x1 PUSH1 0x1 PUSH1 0xA0 SHL SUB NOT AND CALLER SWAP1 DUP2 OR SWAP1 SWAP3 SSTORE PUSH1 0x40 MLOAD DUP3 SWAP2 SWAP1 PUSH32 0x8BE0079C531659141344CD1FD0A4F28419497F9722A3DAAFE3B4186F6B6457E0 SWAP1 DUP3 SWAP1 LOG3 POP PUSH1 0xB DUP1 SLOAD PUSH1 0x1 PUSH1 0x20 SHL PUSH1 0x1 PUSH1 0xC0 SHL SUB NOT AND PUSH5 0x100000000 PUSH1 0x1 PUSH1 0x1 PUSH1 0xA0 SHL SUB DUP5 AND MUL OR SWAP1 SSTORE PUSH3 0xDB PUSH1 0x1 SLOAD PUSH1 0x1 PUSH1 0x1 PUSH1 0xA0 SHL SUB AND SWAP1 JUMP JUMPDEST PUSH1 0x3 DUP1 SLOAD PUSH1 0x1 PUSH1 0x1 PUSH1 0xA0 SHL SUB NOT AND PUSH1 0x1 PUSH1 0x1 PUSH1 0xA0 SHL SUB SWAP3 DUP4 AND OR SWAP1 SSTORE PUSH1 0x1 SLOAD AND PUSH1 0x4 DUP1 SLOAD PUSH1 0x1 PUSH1 0x1 PUSH1 0xA0 SHL SUB NOT AND PUSH1 0x1 PUSH1 0x1 PUSH1 0xA0 SHL SUB SWAP3 DUP4 AND OR SWAP1 SSTORE PUSH1 0x1 SLOAD AND PUSH1 0x2 DUP1 SLOAD PUSH1 0x1 PUSH1 0x1 PUSH1 0xA0 SHL SUB SWAP3 SWAP1 SWAP3 AND PUSH1 0x1 PUSH1 0x1 PUSH1 0xA0 SHL SUB NOT SWAP1 SWAP3 AND SWAP2 SWAP1 SWAP2 OR SWAP1 SSTORE PUSH1 0xE PUSH1 0x20 MSTORE PUSH32 0xE710864318D4A32F37D6CE54CB3FADBEF648DD12D8DBDF53973564D56B7F881C DUP1 SLOAD PUSH4 0xFFFFFFFF NOT SWAP1 DUP2 AND PUSH1 0x1 OR SWAP1 SWAP2 SSTORE PUSH32 0xA7C5BA7114A813B50159ADD3A36832908DC83DB71D0B9A24C2AD0F83BE958207 DUP1 SLOAD DUP3 AND PUSH1 0xB OR SWAP1 SSTORE PUSH32 0x9ADB202B1492743BC00C81D33CDC6423FA8C79109027EB6A845391E8FC1F0481 DUP1 SLOAD DUP3 AND PUSH1 0x6F OR SWAP1 SSTORE PUSH32 0xE0283E559C29E31EE7F56467ACC9DD307779C843A883AEEB3BF5C6128C908144 DUP1 SLOAD DUP3 AND PUSH2 0x457 OR SWAP1 SSTORE PUSH32 0xA1D6913CD9E08C872BE3E7525CCA82E4FC0FC298A783F19022BE725B19BE685A DUP1 SLOAD DUP3 AND PUSH2 0x2B67 OR SWAP1 SSTORE PUSH1 0x5 PUSH1 0x0 DUP2 DUP2 MSTORE PUSH32 0xB9BEC7E2561F624FE753FF070F1599B306CBF59FAFD4E8D5A8184A1EA1841BCE DUP1 SLOAD SWAP1 SWAP4 AND PUSH3 0x1B207 OR SWAP1 SWAP3 SSTORE DUP1 SLOAD SWAP2 PUSH3 0x261 DUP4 PUSH3 0x507 JUMP JUMPDEST SWAP1 SWAP2 SSTORE POP POP PUSH1 0x40 DUP1 MLOAD PUSH2 0x1A0 DUP2 ADD SWAP1 SWAP2 MSTORE DUP1 PUSH1 0x3 DUP2 MSTORE PUSH1 0x20 ADD TIMESTAMP DUP2 MSTORE PUSH1 0x20 ADD TIMESTAMP DUP2 MSTORE PUSH1 0x20 ADD PUSH1 0x0 DUP2 MSTORE PUSH1 0x20 ADD PUSH1 0x0 DUP2 MSTORE PUSH1 0x20 ADD PUSH1 0x40 MLOAD DUP1 PUSH1 0xC0 ADD PUSH1 0x40 MSTORE DUP1 PUSH1 0xFA DUP2 MSTORE PUSH1 0x20 ADD PUSH2 0x177 DUP2 MSTORE PUSH1 0x20 ADD PUSH2 0x271 DUP2 MSTORE PUSH1 0x20 ADD PUSH2 0x4E2 DUP2 MSTORE PUSH1 0x20 ADD PUSH2 0x9C4 DUP2 MSTORE PUSH1 0x20 ADD PUSH2 0x1388 DUP2 MSTORE POP DUP2 MSTORE PUSH1 0x20 ADD PUSH2 0x7D0 DUP2 MSTORE PUSH1 0x20 ADD PUSH1 0x40 MLOAD DUP1 PUSH1 0xC0 ADD PUSH1 0x40 MSTORE DUP1 PUSH1 0x0 DUP2 MSTORE PUSH1 0x20 ADD PUSH1 0x0 DUP2 MSTORE PUSH1 0x20 ADD PUSH1 0x0 DUP2 MSTORE PUSH1 0x20 ADD PUSH1 0x0 DUP2 MSTORE PUSH1 0x20 ADD PUSH1 0x0 DUP2 MSTORE PUSH1 0x20 ADD PUSH1 0x0 DUP2 MSTORE POP DUP2 MSTORE PUSH1 0x20 ADD PUSH1 0x40 MLOAD DUP1 PUSH1 0xC0 ADD PUSH1 0x40 MSTORE DUP1 PUSH1 0x0 DUP2 MSTORE PUSH1 0x20 ADD PUSH1 0x0 DUP2 MSTORE PUSH1 0x20 ADD PUSH1 0x0 DUP2 MSTORE PUSH1 0x20 ADD PUSH1 0x0 DUP2 MSTORE PUSH1 0x20 ADD PUSH1 0x0 DUP2 MSTORE PUSH1 0x20 ADD PUSH1 0x0 DUP2 MSTORE POP DUP2 MSTORE PUSH1 0x20 ADD PUSH1 0x6 SLOAD DUP2 MSTORE PUSH1 0x20 ADD PUSH1 0x6 SLOAD DUP2 MSTORE PUSH1 0x20 ADD PUSH1 0xA SLOAD DUP2 MSTORE PUSH1 0x20 ADD PUSH3 0xF4240 PUSH4 0xFFFFFFFF AND DUP2 MSTORE POP PUSH1 0xC PUSH1 0x0 PUSH1 0x5 SLOAD DUP2 MSTORE PUSH1 0x20 ADD SWAP1 DUP2 MSTORE PUSH1 0x20 ADD PUSH1 0x0 KECCAK256 PUSH1 0x0 DUP3 ADD MLOAD DUP2 PUSH1 0x0 ADD PUSH1 0x0 PUSH2 0x100 EXP DUP2 SLOAD DUP2 PUSH1 0xFF MUL NOT AND SWAP1 DUP4 PUSH1 0x3 DUP2 GT ISZERO PUSH3 0x3B0 JUMPI PUSH3 0x3B0 PUSH3 0x531 JUMP JUMPDEST MUL OR SWAP1 SSTORE POP PUSH1 0x20 DUP3 ADD MLOAD PUSH1 0x1 DUP3 ADD SSTORE PUSH1 0x40 DUP3 ADD MLOAD PUSH1 0x2 DUP3 ADD SSTORE PUSH1 0x60 DUP3 ADD MLOAD PUSH1 0x3 DUP3 ADD SSTORE PUSH1 0x80 DUP3 ADD MLOAD PUSH1 0x4 DUP3 ADD SSTORE PUSH1 0xA0 DUP3 ADD MLOAD PUSH3 0x3F4 SWAP1 PUSH1 0x5 DUP4 ADD SWAP1 PUSH1 0x6 PUSH3 0x47B JUMP JUMPDEST POP PUSH1 0xC0 DUP3 ADD MLOAD PUSH1 0xB DUP3 ADD SSTORE PUSH1 0xE0 DUP3 ADD MLOAD PUSH3 0x416 SWAP1 PUSH1 0xC DUP4 ADD SWAP1 PUSH1 0x6 PUSH3 0x47B JUMP JUMPDEST POP PUSH2 0x100 DUP3 ADD MLOAD PUSH3 0x42F SWAP1 PUSH1 0x12 DUP4 ADD SWAP1 PUSH1 0x6 PUSH3 0x47B JUMP JUMPDEST POP PUSH2 0x120 DUP3 ADD MLOAD PUSH1 0x18 DUP3 ADD SSTORE PUSH2 0x140 DUP3 ADD MLOAD PUSH1 0x19 DUP3 ADD SSTORE PUSH2 0x160 DUP3 ADD MLOAD PUSH1 0x1A DUP3 ADD SSTORE PUSH2 0x180 SWAP1 SWAP2 ADD MLOAD PUSH1 0x1B SWAP1 SWAP2 ADD DUP1 SLOAD PUSH4 0xFFFFFFFF NOT AND PUSH4 0xFFFFFFFF SWAP1 SWAP3 AND SWAP2 SWAP1 SWAP2 OR SWAP1 SSTORE POP PUSH3 0x547 JUMP JUMPDEST DUP3 PUSH1 0x6 DUP2 ADD SWAP3 DUP3 ISZERO PUSH3 0x4AC JUMPI SWAP2 PUSH1 0x20 MUL DUP3 ADD JUMPDEST DUP3 DUP2 GT ISZERO PUSH3 0x4AC JUMPI DUP3 MLOAD DUP3 SSTORE SWAP2 PUSH1 0x20 ADD SWAP2 SWAP1 PUSH1 0x1 ADD SWAP1 PUSH3 0x48F JUMP JUMPDEST POP PUSH3 0x4BA SWAP3 SWAP2 POP PUSH3 0x4BE JUMP JUMPDEST POP SWAP1 JUMP JUMPDEST JUMPDEST DUP1 DUP3 GT ISZERO PUSH3 0x4BA JUMPI PUSH1 0x0 DUP2 SSTORE PUSH1 0x1 ADD PUSH3 0x4BF JUMP JUMPDEST PUSH1 0x0 PUSH1 0x20 DUP3 DUP5 SUB SLT ISZERO PUSH3 0x4E8 JUMPI PUSH1 0x0 DUP1 REVERT JUMPDEST DUP2 MLOAD PUSH1 0x1 PUSH1 0x1 PUSH1 0xA0 SHL SUB DUP2 AND DUP2 EQ PUSH3 0x500 JUMPI PUSH1 0x0 DUP1 REVERT JUMPDEST SWAP4 SWAP3 POP POP POP JUMP JUMPDEST PUSH1 0x0 PUSH1 0x0 NOT DUP3 EQ ISZERO PUSH3 0x52A JUMPI PUSH4 0x4E487B71 PUSH1 0xE0 SHL PUSH1 0x0 MSTORE PUSH1 0x11 PUSH1 0x4 MSTORE PUSH1 0x24 PUSH1 0x0 REVERT JUMPDEST POP PUSH1 0x1 ADD SWAP1 JUMP JUMPDEST PUSH4 0x4E487B71 PUSH1 0xE0 SHL PUSH1 0x0 MSTORE PUSH1 0x21 PUSH1 0x4 MSTORE PUSH1 0x24 PUSH1 0x0 REVERT JUMPDEST PUSH2 0x484E DUP1 PUSH3 0x557 PUSH1 0x0 CODECOPY PUSH1 0x0 RETURN INVALID PUSH1 0x80 PUSH1 0x40 MSTORE CALLVALUE DUP1 ISZERO PUSH2 0x10 JUMPI PUSH1 0x0 DUP1 REVERT JUMPDEST POP PUSH1 0x4 CALLDATASIZE LT PUSH2 0x25C JUMPI PUSH1 0x0 CALLDATALOAD PUSH1 0xE0 SHR DUP1 PUSH4 0x80A06160 GT PUSH2 0x145 JUMPI DUP1 PUSH4 0xC5F956AF GT PUSH2 0xBD JUMPI DUP1 PUSH4 0xDA7429F8 GT PUSH2 0x8C JUMPI DUP1 PUSH4 0xF2B3C809 GT PUSH2 0x71 JUMPI DUP1 PUSH4 0xF2B3C809 EQ PUSH2 0x51E JUMPI DUP1 PUSH4 0xF2FDE38B EQ PUSH2 0x527 JUMPI DUP1 PUSH4 0xFE014066 EQ PUSH2 0x53A JUMPI PUSH1 0x0 DUP1 REVERT JUMPDEST DUP1 PUSH4 0xDA7429F8 EQ PUSH2 0x501 JUMPI DUP1 PUSH4 0xDB19DA0D EQ PUSH2 0x514 JUMPI PUSH1 0x0 DUP1 REVERT JUMPDEST DUP1 PUSH4 0xC5F956AF EQ PUSH2 0x496 JUMPI DUP1 PUSH4 0xC914914F EQ PUSH2 0x4B6 JUMPI DUP1 PUSH4 0xD86B2982 EQ PUSH2 0x4C9 JUMPI DUP1 PUSH4 0xDA4CA039 EQ PUSH2 0x4EE JUMPI PUSH1 0x0 DUP1 REVERT JUMPDEST DUP1 PUSH4 0x8FC3539A GT PUSH2 0x114 JUMPI DUP1 PUSH4 0x9D8CA531 GT PUSH2 0xF9 JUMPI DUP1 PUSH4 0x9D8CA531 EQ PUSH2 0x45D JUMPI DUP1 PUSH4 0xB1829B82 EQ PUSH2 0x470 JUMPI DUP1 PUSH4 0xC4937AB9 EQ PUSH2 0x483 JUMPI PUSH1 0x0 DUP1 REVERT JUMPDEST DUP1 PUSH4 0x8FC3539A EQ PUSH2 0x41C JUMPI DUP1 PUSH4 0x9C384653 EQ PUSH2 0x43D JUMPI PUSH1 0x0 DUP1 REVERT JUMPDEST DUP1 PUSH4 0x80A06160 EQ PUSH2 0x3BB JUMPI DUP1 PUSH4 0x88303DBD EQ PUSH2 0x3C3 JUMPI DUP1 PUSH4 0x8904BF2F EQ PUSH2 0x3D6 JUMPI DUP1 PUSH4 0x8DA5CB5B EQ PUSH2 0x3FE JUMPI PUSH1 0x0 DUP1 REVERT JUMPDEST DUP1 PUSH4 0x2E530CAE GT PUSH2 0x1D8 JUMPI DUP1 PUSH4 0x686465B8 GT PUSH2 0x1A7 JUMPI DUP1 PUSH4 0x6BE4097C GT PUSH2 0x18C JUMPI DUP1 PUSH4 0x6BE4097C EQ PUSH2 0x3AA JUMPI DUP1 PUSH4 0x715018A6 EQ PUSH2 0x3B3 JUMPI DUP1 PUSH4 0x7CB583BD EQ PUSH2 0x28D JUMPI PUSH1 0x0 DUP1 REVERT JUMPDEST DUP1 PUSH4 0x686465B8 EQ PUSH2 0x38E JUMPI DUP1 PUSH4 0x6B873788 EQ PUSH2 0x397 JUMPI PUSH1 0x0 DUP1 REVERT JUMPDEST DUP1 PUSH4 0x2E530CAE EQ PUSH2 0x34C JUMPI DUP1 PUSH4 0x31FEB565 EQ PUSH2 0x35F JUMPI DUP1 PUSH4 0x3F138D4B EQ PUSH2 0x368 JUMPI DUP1 PUSH4 0x471AEAB4 EQ PUSH2 0x37B JUMPI PUSH1 0x0 DUP1 REVERT JUMPDEST DUP1 PUSH4 0x1F73664B GT PUSH2 0x22F JUMPI DUP1 PUSH4 0x20211A30 GT PUSH2 0x214 JUMPI DUP1 PUSH4 0x20211A30 EQ PUSH2 0x304 JUMPI DUP1 PUSH4 0x2385860B EQ PUSH2 0x319 JUMPI DUP1 PUSH4 0x2423807A EQ PUSH2 0x32C JUMPI PUSH1 0x0 DUP1 REVERT JUMPDEST DUP1 PUSH4 0x1F73664B EQ PUSH2 0x2F2 JUMPI DUP1 PUSH4 0x1FE86C6B EQ PUSH2 0x2FB JUMPI PUSH1 0x0 DUP1 REVERT JUMPDEST DUP1 PUSH4 0x5531EEB EQ PUSH2 0x261 JUMPI DUP1 PUSH4 0x7FB5A9C EQ PUSH2 0x28D JUMPI DUP1 PUSH4 0x127EFFB2 EQ PUSH2 0x2A4 JUMPI DUP1 PUSH4 0x12A9769D EQ PUSH2 0x2E9 JUMPI JUMPDEST PUSH1 0x0 DUP1 REVERT JUMPDEST PUSH2 0x274 PUSH2 0x26F CALLDATASIZE PUSH1 0x4 PUSH2 0x3F28 JUMP JUMPDEST PUSH2 0x54D JUMP JUMPDEST PUSH1 0x40 MLOAD PUSH2 0x284 SWAP5 SWAP4 SWAP3 SWAP2 SWAP1 PUSH2 0x42A9 JUMP JUMPDEST PUSH1 0x40 MLOAD DUP1 SWAP2 SUB SWAP1 RETURN JUMPDEST PUSH2 0x296 PUSH2 0x12C DUP2 JUMP JUMPDEST PUSH1 0x40 MLOAD SWAP1 DUP2 MSTORE PUSH1 0x20 ADD PUSH2 0x284 JUMP JUMPDEST PUSH1 0x3 SLOAD PUSH2 0x2C4 SWAP1 PUSH20 0xFFFFFFFFFFFFFFFFFFFFFFFFFFFFFFFFFFFFFFFF AND DUP2 JUMP JUMPDEST PUSH1 0x40 MLOAD PUSH20 0xFFFFFFFFFFFFFFFFFFFFFFFFFFFFFFFFFFFFFFFF SWAP1 SWAP2 AND DUP2 MSTORE PUSH1 0x20 ADD PUSH2 0x284 JUMP JUMPDEST PUSH2 0x296 PUSH1 0xA SLOAD DUP2 JUMP JUMPDEST PUSH2 0x296 PUSH1 0x8 SLOAD DUP2 JUMP JUMPDEST PUSH2 0x296 PUSH1 0x7 SLOAD DUP2 JUMP JUMPDEST PUSH2 0x317 PUSH2 0x312 CALLDATASIZE PUSH1 0x4 PUSH2 0x41A1 JUMP JUMPDEST PUSH2 0x87A JUMP JUMPDEST STOP JUMPDEST PUSH2 0x317 PUSH2 0x327 CALLDATASIZE PUSH1 0x4 PUSH2 0x409F JUMP JUMPDEST PUSH2 0xAB3 JUMP JUMPDEST PUSH2 0x33F PUSH2 0x33A CALLDATASIZE PUSH1 0x4 PUSH2 0x3FC0 JUMP JUMPDEST PUSH2 0x1129 JUMP JUMPDEST PUSH1 0x40 MLOAD PUSH2 0x284 SWAP2 SWAP1 PUSH2 0x439C JUMP JUMPDEST PUSH2 0x296 PUSH2 0x35A CALLDATASIZE PUSH1 0x4 PUSH2 0x4175 JUMP JUMPDEST PUSH2 0x128A JUMP JUMPDEST PUSH2 0x296 PUSH1 0x9 SLOAD DUP2 JUMP JUMPDEST PUSH2 0x317 PUSH2 0x376 CALLDATASIZE PUSH1 0x4 PUSH2 0x3EFE JUMP JUMPDEST PUSH2 0x1311 JUMP JUMPDEST PUSH2 0x317 PUSH2 0x389 CALLDATASIZE PUSH1 0x4 PUSH2 0x40D8 JUMP JUMPDEST PUSH2 0x1406 JUMP JUMPDEST PUSH2 0x296 PUSH1 0x6 SLOAD DUP2 JUMP JUMPDEST PUSH2 0x317 PUSH2 0x3A5 CALLDATASIZE PUSH1 0x4 PUSH2 0x3FC0 JUMP JUMPDEST PUSH2 0x15C1 JUMP JUMPDEST PUSH2 0x296 PUSH1 0x5 SLOAD DUP2 JUMP JUMPDEST PUSH2 0x317 PUSH2 0x16AE JUMP JUMPDEST PUSH1 0x5 SLOAD PUSH2 0x296 JUMP JUMPDEST PUSH2 0x317 PUSH2 0x3D1 CALLDATASIZE PUSH1 0x4 PUSH2 0x4053 JUMP JUMPDEST PUSH2 0x179E JUMP JUMPDEST PUSH1 0xB SLOAD PUSH2 0x2C4 SWAP1 PUSH5 0x100000000 SWAP1 DIV PUSH20 0xFFFFFFFFFFFFFFFFFFFFFFFFFFFFFFFFFFFFFFFF AND DUP2 JUMP JUMPDEST PUSH1 0x1 SLOAD PUSH20 0xFFFFFFFFFFFFFFFFFFFFFFFFFFFFFFFFFFFFFFFF AND PUSH2 0x2C4 JUMP JUMPDEST PUSH2 0x42F PUSH2 0x42A CALLDATASIZE PUSH1 0x4 PUSH2 0x3F61 JUMP JUMPDEST PUSH2 0x1F13 JUMP JUMPDEST PUSH1 0x40 MLOAD PUSH2 0x284 SWAP3 SWAP2 SWAP1 PUSH2 0x431D JUMP JUMPDEST PUSH1 0x2 SLOAD PUSH2 0x2C4 SWAP1 PUSH20 0xFFFFFFFFFFFFFFFFFFFFFFFFFFFFFFFFFFFFFFFF AND DUP2 JUMP JUMPDEST PUSH2 0x317 PUSH2 0x46B CALLDATASIZE PUSH1 0x4 PUSH2 0x3FC0 JUMP JUMPDEST PUSH2 0x20DA JUMP JUMPDEST PUSH2 0x317 PUSH2 0x47E CALLDATASIZE PUSH1 0x4 PUSH2 0x4126 JUMP JUMPDEST PUSH2 0x2382 JUMP JUMPDEST PUSH2 0x296 PUSH2 0x491 CALLDATASIZE PUSH1 0x4 PUSH2 0x40FA JUMP JUMPDEST PUSH2 0x2954 JUMP JUMPDEST PUSH1 0x4 SLOAD PUSH2 0x2C4 SWAP1 PUSH20 0xFFFFFFFFFFFFFFFFFFFFFFFFFFFFFFFFFFFFFFFF AND DUP2 JUMP JUMPDEST PUSH2 0x317 PUSH2 0x4C4 CALLDATASIZE PUSH1 0x4 PUSH2 0x3FD9 JUMP JUMPDEST PUSH2 0x2A34 JUMP JUMPDEST PUSH1 0xB SLOAD PUSH2 0x4D9 SWAP1 PUSH4 0xFFFFFFFF AND DUP2 JUMP JUMPDEST PUSH1 0x40 MLOAD PUSH4 0xFFFFFFFF SWAP1 SWAP2 AND DUP2 MSTORE PUSH1 0x20 ADD PUSH2 0x284 JUMP JUMPDEST PUSH2 0x317 PUSH2 0x4FC CALLDATASIZE PUSH1 0x4 PUSH2 0x3EBB JUMP JUMPDEST PUSH2 0x31C6 JUMP JUMPDEST PUSH2 0x317 PUSH2 0x50F CALLDATASIZE PUSH1 0x4 PUSH2 0x40D8 JUMP JUMPDEST PUSH2 0x3467 JUMP JUMPDEST PUSH2 0x296 PUSH3 0x28DFAC DUP2 JUMP JUMPDEST PUSH2 0x296 PUSH2 0xBB8 DUP2 JUMP JUMPDEST PUSH2 0x317 PUSH2 0x535 CALLDATASIZE PUSH1 0x4 PUSH2 0x3EA0 JUMP JUMPDEST PUSH2 0x355D JUMP JUMPDEST PUSH2 0x317 PUSH2 0x548 CALLDATASIZE PUSH1 0x4 PUSH2 0x3EA0 JUMP JUMPDEST PUSH2 0x370F JUMP JUMPDEST PUSH20 0xFFFFFFFFFFFFFFFFFFFFFFFFFFFFFFFFFFFFFFFF DUP5 AND PUSH1 0x0 SWAP1 DUP2 MSTORE PUSH1 0x10 PUSH1 0x20 SWAP1 DUP2 MSTORE PUSH1 0x40 DUP1 DUP4 KECCAK256 DUP7 DUP5 MSTORE SWAP1 SWAP2 MSTORE DUP2 KECCAK256 SLOAD PUSH1 0x60 SWAP2 DUP3 SWAP2 DUP3 SWAP2 SWAP1 DUP6 SWAP1 PUSH2 0x592 DUP9 DUP3 PUSH2 0x4620 JUMP JUMPDEST DUP3 GT ISZERO PUSH2 0x5A6 JUMPI PUSH2 0x5A3 DUP9 DUP3 PUSH2 0x4620 JUMP JUMPDEST SWAP2 POP JUMPDEST PUSH1 0x0 DUP3 PUSH8 0xFFFFFFFFFFFFFFFF DUP2 GT ISZERO PUSH2 0x5C1 JUMPI PUSH2 0x5C1 PUSH2 0x47D8 JUMP JUMPDEST PUSH1 0x40 MLOAD SWAP1 DUP1 DUP3 MSTORE DUP1 PUSH1 0x20 MUL PUSH1 0x20 ADD DUP3 ADD PUSH1 0x40 MSTORE DUP1 ISZERO PUSH2 0x5EA JUMPI DUP2 PUSH1 0x20 ADD PUSH1 0x20 DUP3 MUL DUP1 CALLDATASIZE DUP4 CALLDATACOPY ADD SWAP1 POP JUMPDEST POP SWAP1 POP PUSH1 0x0 DUP4 PUSH8 0xFFFFFFFFFFFFFFFF DUP2 GT ISZERO PUSH2 0x608 JUMPI PUSH2 0x608 PUSH2 0x47D8 JUMP JUMPDEST PUSH1 0x40 MLOAD SWAP1 DUP1 DUP3 MSTORE DUP1 PUSH1 0x20 MUL PUSH1 0x20 ADD DUP3 ADD PUSH1 0x40 MSTORE DUP1 ISZERO PUSH2 0x631 JUMPI DUP2 PUSH1 0x20 ADD PUSH1 0x20 DUP3 MUL DUP1 CALLDATASIZE DUP4 CALLDATACOPY ADD SWAP1 POP JUMPDEST POP SWAP1 POP PUSH1 0x0 DUP5 PUSH8 0xFFFFFFFFFFFFFFFF DUP2 GT ISZERO PUSH2 0x64F JUMPI PUSH2 0x64F PUSH2 0x47D8 JUMP JUMPDEST PUSH1 0x40 MLOAD SWAP1 DUP1 DUP3 MSTORE DUP1 PUSH1 0x20 MUL PUSH1 0x20 ADD DUP3 ADD PUSH1 0x40 MSTORE DUP1 ISZERO PUSH2 0x678 JUMPI DUP2 PUSH1 0x20 ADD PUSH1 0x20 DUP3 MUL DUP1 CALLDATASIZE DUP4 CALLDATACOPY ADD SWAP1 POP JUMPDEST POP SWAP1 POP PUSH1 0x0 JUMPDEST DUP6 DUP2 LT ISZERO PUSH2 0x854 JUMPI PUSH1 0x10 PUSH1 0x0 DUP16 PUSH20 0xFFFFFFFFFFFFFFFFFFFFFFFFFFFFFFFFFFFFFFFF AND PUSH20 0xFFFFFFFFFFFFFFFFFFFFFFFFFFFFFFFFFFFFFFFF AND DUP2 MSTORE PUSH1 0x20 ADD SWAP1 DUP2 MSTORE PUSH1 0x20 ADD PUSH1 0x0 KECCAK256 PUSH1 0x0 DUP15 DUP2 MSTORE PUSH1 0x20 ADD SWAP1 DUP2 MSTORE PUSH1 0x20 ADD PUSH1 0x0 KECCAK256 DUP13 DUP3 PUSH2 0x6E2 SWAP2 SWAP1 PUSH2 0x445F JUMP JUMPDEST DUP2 SLOAD DUP2 LT PUSH2 0x6F2 JUMPI PUSH2 0x6F2 PUSH2 0x47A9 JUMP JUMPDEST SWAP1 PUSH1 0x0 MSTORE PUSH1 0x20 PUSH1 0x0 KECCAK256 ADD SLOAD DUP5 DUP3 DUP2 MLOAD DUP2 LT PUSH2 0x70F JUMPI PUSH2 0x70F PUSH2 0x47A9 JUMP JUMPDEST PUSH1 0x20 MUL PUSH1 0x20 ADD ADD DUP2 DUP2 MSTORE POP POP PUSH1 0xD PUSH1 0x0 DUP6 DUP4 DUP2 MLOAD DUP2 LT PUSH2 0x731 JUMPI PUSH2 0x731 PUSH2 0x47A9 JUMP JUMPDEST PUSH1 0x20 MUL PUSH1 0x20 ADD ADD MLOAD DUP2 MSTORE PUSH1 0x20 ADD SWAP1 DUP2 MSTORE PUSH1 0x20 ADD PUSH1 0x0 KECCAK256 PUSH1 0x0 ADD PUSH1 0x0 SWAP1 SLOAD SWAP1 PUSH2 0x100 EXP SWAP1 DIV PUSH4 0xFFFFFFFF AND DUP4 DUP3 DUP2 MLOAD DUP2 LT PUSH2 0x76D JUMPI PUSH2 0x76D PUSH2 0x47A9 JUMP JUMPDEST PUSH1 0x20 MUL PUSH1 0x20 ADD ADD SWAP1 PUSH4 0xFFFFFFFF AND SWAP1 DUP2 PUSH4 0xFFFFFFFF AND DUP2 MSTORE POP POP PUSH1 0x0 PUSH20 0xFFFFFFFFFFFFFFFFFFFFFFFFFFFFFFFFFFFFFFFF AND PUSH1 0xD PUSH1 0x0 DUP7 DUP5 DUP2 MLOAD DUP2 LT PUSH2 0x7B5 JUMPI PUSH2 0x7B5 PUSH2 0x47A9 JUMP JUMPDEST PUSH1 0x20 SWAP1 DUP2 MUL SWAP2 SWAP1 SWAP2 ADD DUP2 ADD MLOAD DUP3 MSTORE DUP2 ADD SWAP2 SWAP1 SWAP2 MSTORE PUSH1 0x40 ADD PUSH1 0x0 KECCAK256 SLOAD PUSH5 0x100000000 SWAP1 DIV PUSH20 0xFFFFFFFFFFFFFFFFFFFFFFFFFFFFFFFFFFFFFFFF AND EQ ISZERO PUSH2 0x81D JUMPI PUSH1 0x1 DUP3 DUP3 DUP2 MLOAD DUP2 LT PUSH2 0x808 JUMPI PUSH2 0x808 PUSH2 0x47A9 JUMP JUMPDEST SWAP2 ISZERO ISZERO PUSH1 0x20 SWAP3 DUP4 MUL SWAP2 SWAP1 SWAP2 ADD SWAP1 SWAP2 ADD MSTORE PUSH2 0x842 JUMP JUMPDEST PUSH1 0x0 DUP3 DUP3 DUP2 MLOAD DUP2 LT PUSH2 0x831 JUMPI PUSH2 0x831 PUSH2 0x47A9 JUMP JUMPDEST SWAP2 ISZERO ISZERO PUSH1 0x20 SWAP3 DUP4 MUL SWAP2 SWAP1 SWAP2 ADD SWAP1 SWAP2 ADD MSTORE JUMPDEST DUP1 PUSH2 0x84C DUP2 PUSH2 0x4688 JUMP JUMPDEST SWAP2 POP POP PUSH2 0x67E JUMP JUMPDEST POP DUP3 DUP3 DUP3 PUSH2 0x862 DUP9 DUP16 PUSH2 0x445F JUMP JUMPDEST SWAP9 POP SWAP9 POP SWAP9 POP SWAP9 POP POP POP POP POP POP SWAP5 POP SWAP5 POP SWAP5 POP SWAP5 SWAP1 POP JUMP JUMPDEST PUSH1 0x1 SLOAD PUSH20 0xFFFFFFFFFFFFFFFFFFFFFFFFFFFFFFFFFFFFFFFF AND CALLER EQ PUSH2 0x900 JUMPI PUSH1 0x40 MLOAD PUSH32 0x8C379A000000000000000000000000000000000000000000000000000000000 DUP2 MSTORE PUSH1 0x20 PUSH1 0x4 DUP3 ADD DUP2 SWAP1 MSTORE PUSH1 0x24 DUP3 ADD MSTORE PUSH32 0x4F776E61626C653A2063616C6C6572206973206E6F7420746865206F776E6572 PUSH1 0x44 DUP3 ADD MSTORE PUSH1 0x64 ADD JUMPDEST PUSH1 0x40 MLOAD DUP1 SWAP2 SUB SWAP1 REVERT JUMPDEST PUSH1 0x6 DUP2 PUSH4 0xFFFFFFFF AND GT ISZERO PUSH2 0x971 JUMPI PUSH1 0x40 MLOAD PUSH32 0x8C379A000000000000000000000000000000000000000000000000000000000 DUP2 MSTORE PUSH1 0x20 PUSH1 0x4 DUP3 ADD MSTORE PUSH1 0x19 PUSH1 0x24 DUP3 ADD MSTORE PUSH32 0x6E756D62657273436F756E74206D757374206265203C3D203600000000000000 PUSH1 0x44 DUP3 ADD MSTORE PUSH1 0x64 ADD PUSH2 0x8F7 JUMP JUMPDEST PUSH1 0x2 DUP2 PUSH4 0xFFFFFFFF AND LT ISZERO PUSH2 0x9E2 JUMPI PUSH1 0x40 MLOAD PUSH32 0x8C379A000000000000000000000000000000000000000000000000000000000 DUP2 MSTORE PUSH1 0x20 PUSH1 0x4 DUP3 ADD MSTORE PUSH1 0x19 PUSH1 0x24 DUP3 ADD MSTORE PUSH32 0x6E756D62657273436F756E74206D757374206265203E3D203200000000000000 PUSH1 0x44 DUP3 ADD MSTORE PUSH1 0x64 ADD PUSH2 0x8F7 JUMP JUMPDEST PUSH1 0x5 SLOAD ISZERO DUP1 PUSH2 0xA16 JUMPI POP PUSH1 0x3 PUSH1 0x5 SLOAD PUSH1 0x0 SWAP1 DUP2 MSTORE PUSH1 0xC PUSH1 0x20 MSTORE PUSH1 0x40 SWAP1 KECCAK256 SLOAD PUSH1 0xFF AND PUSH1 0x3 DUP2 GT ISZERO PUSH2 0xA14 JUMPI PUSH2 0xA14 PUSH2 0x477A JUMP JUMPDEST EQ JUMPDEST PUSH2 0xA7C JUMPI PUSH1 0x40 MLOAD PUSH32 0x8C379A000000000000000000000000000000000000000000000000000000000 DUP2 MSTORE PUSH1 0x20 PUSH1 0x4 DUP3 ADD MSTORE PUSH1 0x18 PUSH1 0x24 DUP3 ADD MSTORE PUSH32 0x486173206E6F742066696E6973686564206C6F74746572790000000000000000 PUSH1 0x44 DUP3 ADD MSTORE PUSH1 0x64 ADD PUSH2 0x8F7 JUMP JUMPDEST PUSH1 0xB DUP1 SLOAD PUSH32 0xFFFFFFFFFFFFFFFFFFFFFFFFFFFFFFFFFFFFFFFFFFFFFFFFFFFFFFFF00000000 AND PUSH4 0xFFFFFFFF SWAP3 SWAP1 SWAP3 AND SWAP2 SWAP1 SWAP2 OR SWAP1 SSTORE JUMP JUMPDEST PUSH1 0x1 SLOAD PUSH20 0xFFFFFFFFFFFFFFFFFFFFFFFFFFFFFFFFFFFFFFFF AND CALLER EQ DUP1 PUSH2 0xAF0 JUMPI POP PUSH1 0x3 SLOAD PUSH20 0xFFFFFFFFFFFFFFFFFFFFFFFFFFFFFFFFFFFFFFFF AND CALLER EQ JUMPDEST PUSH2 0xB56 JUMPI PUSH1 0x40 MLOAD PUSH32 0x8C379A000000000000000000000000000000000000000000000000000000000 DUP2 MSTORE PUSH1 0x20 PUSH1 0x4 DUP3 ADD MSTORE PUSH1 0x15 PUSH1 0x24 DUP3 ADD MSTORE PUSH32 0x4E6F74206F776E6572206F72206F70657261746F720000000000000000000000 PUSH1 0x44 DUP3 ADD MSTORE PUSH1 0x64 ADD PUSH2 0x8F7 JUMP JUMPDEST PUSH1 0x2 PUSH1 0x0 SLOAD EQ ISZERO PUSH2 0xBC3 JUMPI PUSH1 0x40 MLOAD PUSH32 0x8C379A000000000000000000000000000000000000000000000000000000000 DUP2 MSTORE PUSH1 0x20 PUSH1 0x4 DUP3 ADD MSTORE PUSH1 0x1F PUSH1 0x24 DUP3 ADD MSTORE PUSH32 0x5265656E7472616E637947756172643A207265656E7472616E742063616C6C00 PUSH1 0x44 DUP3 ADD MSTORE PUSH1 0x64 ADD PUSH2 0x8F7 JUMP JUMPDEST PUSH1 0x2 PUSH1 0x0 DUP2 DUP2 SSTORE DUP5 DUP2 MSTORE PUSH1 0xC PUSH1 0x20 MSTORE PUSH1 0x40 SWAP1 KECCAK256 SLOAD PUSH1 0xFF AND PUSH1 0x3 DUP2 GT ISZERO PUSH2 0xBEB JUMPI PUSH2 0xBEB PUSH2 0x477A JUMP JUMPDEST EQ PUSH2 0xC52 JUMPI PUSH1 0x40 MLOAD PUSH32 0x8C379A000000000000000000000000000000000000000000000000000000000 DUP2 MSTORE PUSH1 0x20 PUSH1 0x4 DUP3 ADD MSTORE PUSH1 0x11 PUSH1 0x24 DUP3 ADD MSTORE PUSH32 0x4C6F7474657279206E6F7420636C6F7365000000000000000000000000000000 PUSH1 0x44 DUP3 ADD MSTORE PUSH1 0x64 ADD PUSH2 0x8F7 JUMP JUMPDEST PUSH1 0x0 DUP4 DUP2 MSTORE PUSH1 0xC PUSH1 0x20 MSTORE PUSH1 0x40 DUP2 KECCAK256 PUSH1 0xB ADD SLOAD DUP2 SWAP1 PUSH2 0x2710 SWAP1 PUSH2 0xC74 SWAP1 DUP3 PUSH2 0x4620 JUMP JUMPDEST PUSH1 0x0 DUP8 DUP2 MSTORE PUSH1 0xC PUSH1 0x20 MSTORE PUSH1 0x40 SWAP1 KECCAK256 PUSH1 0x1A ADD SLOAD PUSH2 0xC90 SWAP2 SWAP1 PUSH2 0x45E3 JUMP JUMPDEST PUSH2 0xC9A SWAP2 SWAP1 PUSH2 0x449F JUMP JUMPDEST PUSH1 0x0 DUP7 DUP2 MSTORE PUSH1 0xC PUSH1 0x20 SWAP1 DUP2 MSTORE PUSH1 0x40 DUP1 DUP4 KECCAK256 PUSH1 0x18 DUP2 ADD SLOAD PUSH1 0x19 DUP3 ADD SLOAD PUSH1 0x1A SWAP1 SWAP3 ADD SLOAD DUP4 MLOAD TIMESTAMP DUP2 DUP8 ADD MSTORE DUP1 DUP6 ADD DUP13 SWAP1 MSTORE PUSH1 0x60 DUP1 DUP3 ADD DUP15 SWAP1 MSTORE PUSH1 0x80 DUP3 ADD SWAP4 SWAP1 SWAP4 MSTORE PUSH1 0xA0 DUP2 ADD SWAP4 SWAP1 SWAP4 MSTORE PUSH1 0xC0 DUP4 ADD MSTORE PUSH1 0xE0 DUP3 ADD DUP7 SWAP1 MSTORE NUMBER BLOCKHASH PUSH2 0x100 DUP4 ADD MSTORE COINBASE SWAP1 SHL PUSH32 0xFFFFFFFFFFFFFFFFFFFFFFFFFFFFFFFFFFFFFFFF000000000000000000000000 AND PUSH2 0x120 DUP3 ADD MSTORE DIFFICULTY PUSH2 0x134 DUP3 ADD MSTORE GASLIMIT PUSH2 0x154 DUP3 ADD MSTORE GASPRICE PUSH2 0x174 DUP1 DUP4 ADD SWAP2 SWAP1 SWAP2 MSTORE DUP3 MLOAD DUP1 DUP4 SUB SWAP1 SWAP2 ADD DUP2 MSTORE PUSH2 0x194 SWAP1 SWAP2 ADD SWAP1 SWAP2 MSTORE DUP1 MLOAD SWAP2 ADD KECCAK256 SWAP2 SWAP3 POP PUSH2 0xD60 PUSH3 0xF4240 DUP4 PUSH2 0x46E5 JUMP JUMPDEST PUSH2 0xD6D SWAP1 PUSH3 0xF4240 PUSH2 0x445F JUMP JUMPDEST SWAP1 POP PUSH1 0x0 DUP1 JUMPDEST PUSH1 0xB SLOAD PUSH4 0xFFFFFFFF SWAP1 DUP2 AND SWAP1 DUP3 AND LT ISZERO PUSH2 0x1004 JUMPI PUSH1 0xB SLOAD PUSH1 0x0 SWAP1 DUP3 SWAP1 PUSH2 0xDA1 SWAP1 PUSH1 0x1 SWAP1 PUSH4 0xFFFFFFFF AND PUSH2 0x4637 JUMP JUMPDEST PUSH2 0xDAB SWAP2 SWAP1 PUSH2 0x4637 JUMP JUMPDEST SWAP1 POP PUSH1 0x0 PUSH2 0xDBA DUP3 PUSH1 0x1 PUSH2 0x4477 JUMP JUMPDEST PUSH2 0xDC5 SWAP1 PUSH1 0xA PUSH2 0x44F8 JUMP JUMPDEST PUSH2 0xDCF SWAP1 DUP7 PUSH2 0x46F9 JUMP JUMPDEST PUSH4 0xFFFFFFFF DUP1 DUP5 AND PUSH1 0x0 SWAP1 DUP2 MSTORE PUSH1 0xE PUSH1 0x20 MSTORE PUSH1 0x40 SWAP1 KECCAK256 SLOAD PUSH2 0xDF1 SWAP3 SWAP2 AND PUSH2 0x4477 JUMP JUMPDEST PUSH1 0x0 DUP13 DUP2 MSTORE PUSH1 0xF PUSH1 0x20 SWAP1 DUP2 MSTORE PUSH1 0x40 DUP1 DUP4 KECCAK256 PUSH4 0xFFFFFFFF DUP6 AND DUP5 MSTORE SWAP1 SWAP2 MSTORE SWAP1 KECCAK256 SLOAD SWAP1 SWAP2 POP PUSH2 0xE1F SWAP1 DUP10 SWAP1 PUSH2 0x4620 JUMP JUMPDEST PUSH1 0x0 DUP13 DUP2 MSTORE PUSH1 0xC PUSH1 0x20 MSTORE PUSH1 0x40 SWAP1 KECCAK256 PUSH1 0x12 ADD PUSH4 0xFFFFFFFF DUP5 AND PUSH1 0x6 DUP2 LT PUSH2 0xE47 JUMPI PUSH2 0xE47 PUSH2 0x47A9 JUMP JUMPDEST ADD SSTORE PUSH1 0x0 DUP12 DUP2 MSTORE PUSH1 0xF PUSH1 0x20 SWAP1 DUP2 MSTORE PUSH1 0x40 DUP1 DUP4 KECCAK256 PUSH4 0xFFFFFFFF DUP6 AND DUP5 MSTORE SWAP1 SWAP2 MSTORE SWAP1 KECCAK256 SLOAD PUSH2 0xE74 SWAP1 DUP10 SWAP1 PUSH2 0x4620 JUMP JUMPDEST ISZERO PUSH2 0xF74 JUMPI PUSH1 0x0 DUP12 DUP2 MSTORE PUSH1 0xC PUSH1 0x20 MSTORE PUSH1 0x40 SWAP1 KECCAK256 PUSH1 0x5 ADD PUSH4 0xFFFFFFFF DUP4 AND PUSH1 0x6 DUP2 LT PUSH2 0xEA1 JUMPI PUSH2 0xEA1 PUSH2 0x47A9 JUMP JUMPDEST ADD SLOAD ISZERO PUSH2 0xF6F JUMPI PUSH1 0x0 DUP12 DUP2 MSTORE PUSH1 0xF PUSH1 0x20 SWAP1 DUP2 MSTORE PUSH1 0x40 DUP1 DUP4 KECCAK256 PUSH4 0xFFFFFFFF DUP6 AND DUP5 MSTORE SWAP1 SWAP2 MSTORE SWAP1 KECCAK256 SLOAD PUSH2 0x2710 SWAP1 PUSH2 0xED7 SWAP1 DUP11 SWAP1 PUSH2 0x4620 JUMP JUMPDEST PUSH1 0x0 DUP14 DUP2 MSTORE PUSH1 0xC PUSH1 0x20 MSTORE PUSH1 0x40 SWAP1 KECCAK256 DUP10 SWAP1 PUSH1 0x5 ADD PUSH4 0xFFFFFFFF DUP7 AND PUSH1 0x6 DUP2 LT PUSH2 0xF01 JUMPI PUSH2 0xF01 PUSH2 0x47A9 JUMP JUMPDEST ADD SLOAD PUSH2 0xF0D SWAP2 SWAP1 PUSH2 0x45E3 JUMP JUMPDEST PUSH2 0xF17 SWAP2 SWAP1 PUSH2 0x449F JUMP JUMPDEST PUSH2 0xF21 SWAP2 SWAP1 PUSH2 0x449F JUMP JUMPDEST PUSH1 0x0 DUP13 DUP2 MSTORE PUSH1 0xC PUSH1 0x20 DUP2 SWAP1 MSTORE PUSH1 0x40 SWAP1 SWAP2 KECCAK256 ADD PUSH4 0xFFFFFFFF DUP5 AND PUSH1 0x6 DUP2 LT PUSH2 0xF4A JUMPI PUSH2 0xF4A PUSH2 0x47A9 JUMP JUMPDEST ADD SSTORE PUSH1 0x0 DUP12 DUP2 MSTORE PUSH1 0xF PUSH1 0x20 SWAP1 DUP2 MSTORE PUSH1 0x40 DUP1 DUP4 KECCAK256 PUSH4 0xFFFFFFFF DUP6 AND DUP5 MSTORE SWAP1 SWAP2 MSTORE SWAP1 KECCAK256 SLOAD SWAP8 POP JUMPDEST PUSH2 0xFEF JUMP JUMPDEST PUSH1 0x0 DUP12 DUP2 MSTORE PUSH1 0xC PUSH1 0x20 DUP2 SWAP1 MSTORE PUSH1 0x40 DUP3 KECCAK256 ADD PUSH4 0xFFFFFFFF DUP5 AND PUSH1 0x6 DUP2 LT PUSH2 0xF9C JUMPI PUSH2 0xF9C PUSH2 0x47A9 JUMP JUMPDEST ADD SSTORE PUSH1 0x0 DUP12 DUP2 MSTORE PUSH1 0xC PUSH1 0x20 MSTORE PUSH1 0x40 SWAP1 KECCAK256 PUSH2 0x2710 SWAP1 DUP9 SWAP1 PUSH1 0x5 ADD PUSH4 0xFFFFFFFF DUP6 AND PUSH1 0x6 DUP2 LT PUSH2 0xFCC JUMPI PUSH2 0xFCC PUSH2 0x47A9 JUMP JUMPDEST ADD SLOAD PUSH2 0xFD8 SWAP2 SWAP1 PUSH2 0x45E3 JUMP JUMPDEST PUSH2 0xFE2 SWAP2 SWAP1 PUSH2 0x449F JUMP JUMPDEST PUSH2 0xFEC SWAP1 DUP6 PUSH2 0x445F JUMP JUMPDEST SWAP4 POP JUMPDEST POP POP DUP1 DUP1 PUSH2 0xFFC SWAP1 PUSH2 0x46C1 JUMP JUMPDEST SWAP2 POP POP PUSH2 0xD73 JUMP JUMPDEST POP PUSH1 0x0 DUP9 DUP2 MSTORE PUSH1 0xC PUSH1 0x20 MSTORE PUSH1 0x40 SWAP1 KECCAK256 PUSH1 0x1B DUP2 ADD DUP1 SLOAD PUSH4 0xFFFFFFFF DUP6 AND PUSH32 0xFFFFFFFFFFFFFFFFFFFFFFFFFFFFFFFFFFFFFFFFFFFFFFFFFFFFFFFF00000000 SWAP1 SWAP2 AND OR SWAP1 SSTORE DUP1 SLOAD PUSH32 0xFFFFFFFFFFFFFFFFFFFFFFFFFFFFFFFFFFFFFFFFFFFFFFFFFFFFFFFFFFFFFF00 AND PUSH1 0x3 OR SWAP1 SSTORE DUP6 ISZERO PUSH2 0x107C JUMPI PUSH1 0xA SSTORE PUSH1 0x0 JUMPDEST PUSH1 0x0 DUP9 DUP2 MSTORE PUSH1 0xC PUSH1 0x20 MSTORE PUSH1 0x40 SWAP1 KECCAK256 PUSH1 0x1A ADD SLOAD PUSH2 0x1099 SWAP1 DUP6 SWAP1 PUSH2 0x4620 JUMP JUMPDEST PUSH2 0x10A3 SWAP1 DUP3 PUSH2 0x445F JUMP JUMPDEST PUSH1 0x4 SLOAD PUSH1 0xB SLOAD SWAP2 SWAP3 POP PUSH2 0x10D8 SWAP2 PUSH5 0x100000000 SWAP1 DIV PUSH20 0xFFFFFFFFFFFFFFFFFFFFFFFFFFFFFFFFFFFFFFFF SWAP1 DUP2 AND SWAP2 AND DUP4 PUSH2 0x3854 JUMP JUMPDEST PUSH1 0x5 SLOAD PUSH1 0x40 DUP1 MLOAD PUSH4 0xFFFFFFFF DUP6 AND DUP2 MSTORE PUSH1 0x20 DUP2 ADD DUP9 SWAP1 MSTORE PUSH32 0x98E31A6607B8B15B4D5B91DE54F4C09FFE4C4CF162AA532C70B5213754E2E703 SWAP2 ADD PUSH1 0x40 MLOAD DUP1 SWAP2 SUB SWAP1 LOG2 POP POP PUSH1 0x1 PUSH1 0x0 SSTORE POP POP POP POP POP POP JUMP JUMPDEST PUSH2 0x1131 PUSH2 0x3D2C JUMP JUMPDEST PUSH1 0x0 DUP3 DUP2 MSTORE PUSH1 0xC PUSH1 0x20 MSTORE PUSH1 0x40 SWAP1 DUP2 SWAP1 KECCAK256 DUP2 MLOAD PUSH2 0x1A0 DUP2 ADD SWAP1 SWAP3 MSTORE DUP1 SLOAD DUP3 SWAP1 PUSH1 0xFF AND PUSH1 0x3 DUP2 GT ISZERO PUSH2 0x1163 JUMPI PUSH2 0x1163 PUSH2 0x477A JUMP JUMPDEST PUSH1 0x3 DUP2 GT ISZERO PUSH2 0x1174 JUMPI PUSH2 0x1174 PUSH2 0x477A JUMP JUMPDEST DUP2 MSTORE PUSH1 0x1 DUP3 ADD SLOAD PUSH1 0x20 DUP3 ADD MSTORE PUSH1 0x2 DUP3 ADD SLOAD PUSH1 0x40 DUP1 DUP4 ADD SWAP2 SWAP1 SWAP2 MSTORE PUSH1 0x3 DUP4 ADD SLOAD PUSH1 0x60 DUP4 ADD MSTORE PUSH1 0x4 DUP4 ADD SLOAD PUSH1 0x80 DUP4 ADD MSTORE DUP1 MLOAD PUSH1 0xC0 DUP2 ADD SWAP2 DUP3 SWAP1 MSTORE PUSH1 0xA0 SWAP1 SWAP3 ADD SWAP2 SWAP1 PUSH1 0x5 DUP5 ADD SWAP1 PUSH1 0x6 SWAP1 DUP3 DUP5 JUMPDEST DUP2 SLOAD DUP2 MSTORE PUSH1 0x20 ADD SWAP1 PUSH1 0x1 ADD SWAP1 DUP1 DUP4 GT PUSH2 0x11BE JUMPI POP POP POP SWAP2 DUP4 MSTORE POP POP PUSH1 0xB DUP3 ADD SLOAD PUSH1 0x20 DUP3 ADD MSTORE PUSH1 0x40 DUP1 MLOAD PUSH1 0xC0 DUP2 ADD DUP3 MSTORE SWAP2 ADD SWAP1 PUSH1 0xC DUP4 ADD PUSH1 0x6 DUP3 DUP3 DUP3 PUSH1 0x20 MUL DUP3 ADD SWAP2 JUMPDEST DUP2 SLOAD DUP2 MSTORE PUSH1 0x20 ADD SWAP1 PUSH1 0x1 ADD SWAP1 DUP1 DUP4 GT PUSH2 0x1200 JUMPI POP POP POP SWAP2 DUP4 MSTORE POP POP PUSH1 0x40 DUP1 MLOAD PUSH1 0xC0 DUP2 ADD SWAP2 DUP3 SWAP1 MSTORE PUSH1 0x20 SWAP1 SWAP3 ADD SWAP2 SWAP1 PUSH1 0x12 DUP5 ADD SWAP1 PUSH1 0x6 SWAP1 DUP3 DUP5 JUMPDEST DUP2 SLOAD DUP2 MSTORE PUSH1 0x20 ADD SWAP1 PUSH1 0x1 ADD SWAP1 DUP1 DUP4 GT PUSH2 0x1239 JUMPI POP POP POP SWAP2 DUP4 MSTORE POP POP PUSH1 0x18 DUP3 ADD SLOAD PUSH1 0x20 DUP3 ADD MSTORE PUSH1 0x19 DUP3 ADD SLOAD PUSH1 0x40 DUP3 ADD MSTORE PUSH1 0x1A DUP3 ADD SLOAD PUSH1 0x60 DUP3 ADD MSTORE PUSH1 0x1B SWAP1 SWAP2 ADD SLOAD PUSH4 0xFFFFFFFF AND PUSH1 0x80 SWAP1 SWAP2 ADD MSTORE SWAP3 SWAP2 POP POP JUMP JUMPDEST PUSH1 0x0 PUSH1 0x3 PUSH1 0x0 DUP6 DUP2 MSTORE PUSH1 0xC PUSH1 0x20 MSTORE PUSH1 0x40 SWAP1 KECCAK256 SLOAD PUSH1 0xFF AND PUSH1 0x3 DUP2 GT ISZERO PUSH2 0x12B1 JUMPI PUSH2 0x12B1 PUSH2 0x477A JUMP JUMPDEST EQ PUSH2 0x12BE JUMPI POP PUSH1 0x0 PUSH2 0x130A JUMP JUMPDEST PUSH1 0x0 DUP5 DUP2 MSTORE PUSH1 0xC PUSH1 0x20 MSTORE PUSH1 0x40 SWAP1 KECCAK256 PUSH1 0x19 ADD SLOAD DUP4 GT DUP1 ISZERO PUSH2 0x12EF JUMPI POP PUSH1 0x0 DUP5 DUP2 MSTORE PUSH1 0xC PUSH1 0x20 MSTORE PUSH1 0x40 SWAP1 KECCAK256 PUSH1 0x18 ADD SLOAD DUP4 GT ISZERO JUMPDEST ISZERO PUSH2 0x12FC JUMPI POP PUSH1 0x0 PUSH2 0x130A JUMP JUMPDEST PUSH2 0x1307 DUP5 DUP5 DUP5 PUSH2 0x392D JUMP JUMPDEST SWAP1 POP JUMPDEST SWAP4 SWAP3 POP POP POP JUMP JUMPDEST PUSH1 0x1 SLOAD PUSH20 0xFFFFFFFFFFFFFFFFFFFFFFFFFFFFFFFFFFFFFFFF AND CALLER EQ PUSH2 0x1392 JUMPI PUSH1 0x40 MLOAD PUSH32 0x8C379A000000000000000000000000000000000000000000000000000000000 DUP2 MSTORE PUSH1 0x20 PUSH1 0x4 DUP3 ADD DUP2 SWAP1 MSTORE PUSH1 0x24 DUP3 ADD MSTORE PUSH32 0x4F776E61626C653A2063616C6C6572206973206E6F7420746865206F776E6572 PUSH1 0x44 DUP3 ADD MSTORE PUSH1 0x64 ADD PUSH2 0x8F7 JUMP JUMPDEST PUSH2 0x13B3 PUSH20 0xFFFFFFFFFFFFFFFFFFFFFFFFFFFFFFFFFFFFFFFF DUP4 AND CALLER DUP4 PUSH2 0x3854 JUMP JUMPDEST PUSH1 0x40 DUP1 MLOAD PUSH20 0xFFFFFFFFFFFFFFFFFFFFFFFFFFFFFFFFFFFFFFFF DUP5 AND DUP2 MSTORE PUSH1 0x20 DUP2 ADD DUP4 SWAP1 MSTORE PUSH32 0x74545154AAC348A3EAC92596BD1971957CA94795F4E954EC5F613B55FAB78129 SWAP2 ADD PUSH1 0x40 MLOAD DUP1 SWAP2 SUB SWAP1 LOG1 POP POP JUMP JUMPDEST PUSH1 0x1 SLOAD PUSH20 0xFFFFFFFFFFFFFFFFFFFFFFFFFFFFFFFFFFFFFFFF AND CALLER EQ DUP1 PUSH2 0x1443 JUMPI POP PUSH1 0x2 SLOAD PUSH20 0xFFFFFFFFFFFFFFFFFFFFFFFFFFFFFFFFFFFFFFFF AND CALLER EQ JUMPDEST PUSH2 0x14A9 JUMPI PUSH1 0x40 MLOAD PUSH32 0x8C379A000000000000000000000000000000000000000000000000000000000 DUP2 MSTORE PUSH1 0x20 PUSH1 0x4 DUP3 ADD MSTORE PUSH1 0x15 PUSH1 0x24 DUP3 ADD MSTORE PUSH32 0x4E6F74206F776E6572206F7220696E6A6563746F720000000000000000000000 PUSH1 0x44 DUP3 ADD MSTORE PUSH1 0x64 ADD PUSH2 0x8F7 JUMP JUMPDEST PUSH1 0x1 PUSH1 0x0 DUP4 DUP2 MSTORE PUSH1 0xC PUSH1 0x20 MSTORE PUSH1 0x40 SWAP1 KECCAK256 SLOAD PUSH1 0xFF AND PUSH1 0x3 DUP2 GT ISZERO PUSH2 0x14CE JUMPI PUSH2 0x14CE PUSH2 0x477A JUMP JUMPDEST EQ PUSH2 0x1535 JUMPI PUSH1 0x40 MLOAD PUSH32 0x8C379A000000000000000000000000000000000000000000000000000000000 DUP2 MSTORE PUSH1 0x20 PUSH1 0x4 DUP3 ADD MSTORE PUSH1 0x10 PUSH1 0x24 DUP3 ADD MSTORE PUSH32 0x4C6F7474657279206E6F74206F70656E00000000000000000000000000000000 PUSH1 0x44 DUP3 ADD MSTORE PUSH1 0x64 ADD PUSH2 0x8F7 JUMP JUMPDEST PUSH1 0xB SLOAD PUSH2 0x1562 SWAP1 PUSH5 0x100000000 SWAP1 DIV PUSH20 0xFFFFFFFFFFFFFFFFFFFFFFFFFFFFFFFFFFFFFFFF AND CALLER ADDRESS DUP5 PUSH2 0x3A39 JUMP JUMPDEST PUSH1 0x0 DUP3 DUP2 MSTORE PUSH1 0xC PUSH1 0x20 MSTORE PUSH1 0x40 DUP2 KECCAK256 PUSH1 0x1A ADD DUP1 SLOAD DUP4 SWAP3 SWAP1 PUSH2 0x1583 SWAP1 DUP5 SWAP1 PUSH2 0x445F JUMP JUMPDEST SWAP1 SWAP2 SSTORE POP POP PUSH1 0x40 MLOAD DUP2 DUP2 MSTORE DUP3 SWAP1 PUSH32 0x1BBD659DD628A25F7FF2EABB69C74A56939C539728282275C1C9C1A2D3E34049 SWAP1 PUSH1 0x20 ADD PUSH1 0x40 MLOAD DUP1 SWAP2 SUB SWAP1 LOG2 POP POP JUMP JUMPDEST PUSH1 0x1 SLOAD PUSH20 0xFFFFFFFFFFFFFFFFFFFFFFFFFFFFFFFFFFFFFFFF AND CALLER EQ PUSH2 0x1642 JUMPI PUSH1 0x40 MLOAD PUSH32 0x8C379A000000000000000000000000000000000000000000000000000000000 DUP2 MSTORE PUSH1 0x20 PUSH1 0x4 DUP3 ADD DUP2 SWAP1 MSTORE PUSH1 0x24 DUP3 ADD MSTORE PUSH32 0x4F776E61626C653A2063616C6C6572206973206E6F7420746865206F776E6572 PUSH1 0x44 DUP3 ADD MSTORE PUSH1 0x64 ADD PUSH2 0x8F7 JUMP JUMPDEST DUP1 PUSH2 0x16A9 JUMPI PUSH1 0x40 MLOAD PUSH32 0x8C379A000000000000000000000000000000000000000000000000000000000 DUP2 MSTORE PUSH1 0x20 PUSH1 0x4 DUP3 ADD MSTORE PUSH1 0xB PUSH1 0x24 DUP3 ADD MSTORE PUSH32 0x4D757374206265203E2030000000000000000000000000000000000000000000 PUSH1 0x44 DUP3 ADD MSTORE PUSH1 0x64 ADD PUSH2 0x8F7 JUMP JUMPDEST PUSH1 0x7 SSTORE JUMP JUMPDEST PUSH1 0x1 SLOAD PUSH20 0xFFFFFFFFFFFFFFFFFFFFFFFFFFFFFFFFFFFFFFFF AND CALLER EQ PUSH2 0x172F JUMPI PUSH1 0x40 MLOAD PUSH32 0x8C379A000000000000000000000000000000000000000000000000000000000 DUP2 MSTORE PUSH1 0x20 PUSH1 0x4 DUP3 ADD DUP2 SWAP1 MSTORE PUSH1 0x24 DUP3 ADD MSTORE PUSH32 0x4F776E61626C653A2063616C6C6572206973206E6F7420746865206F776E6572 PUSH1 0x44 DUP3 ADD MSTORE PUSH1 0x64 ADD PUSH2 0x8F7 JUMP JUMPDEST PUSH1 0x1 SLOAD PUSH1 0x40 MLOAD PUSH1 0x0 SWAP2 PUSH20 0xFFFFFFFFFFFFFFFFFFFFFFFFFFFFFFFFFFFFFFFF AND SWAP1 PUSH32 0x8BE0079C531659141344CD1FD0A4F28419497F9722A3DAAFE3B4186F6B6457E0 SWAP1 DUP4 SWAP1 LOG3 PUSH1 0x1 DUP1 SLOAD PUSH32 0xFFFFFFFFFFFFFFFFFFFFFFFF0000000000000000000000000000000000000000 AND SWAP1 SSTORE JUMP JUMPDEST CALLER EXTCODESIZE ISZERO PUSH2 0x1807 JUMPI PUSH1 0x40 MLOAD PUSH32 0x8C379A000000000000000000000000000000000000000000000000000000000 DUP2 MSTORE PUSH1 0x20 PUSH1 0x4 DUP3 ADD MSTORE PUSH1 0x14 PUSH1 0x24 DUP3 ADD MSTORE PUSH32 0x436F6E7472616374206E6F7420616C6C6F776564000000000000000000000000 PUSH1 0x44 DUP3 ADD MSTORE PUSH1 0x64 ADD PUSH2 0x8F7 JUMP JUMPDEST CALLER ORIGIN EQ PUSH2 0x1870 JUMPI PUSH1 0x40 MLOAD PUSH32 0x8C379A000000000000000000000000000000000000000000000000000000000 DUP2 MSTORE PUSH1 0x20 PUSH1 0x4 DUP3 ADD MSTORE PUSH1 0x1A PUSH1 0x24 DUP3 ADD MSTORE PUSH32 0x50726F787920636F6E7472616374206E6F7420616C6C6F776564000000000000 PUSH1 0x44 DUP3 ADD MSTORE PUSH1 0x64 ADD PUSH2 0x8F7 JUMP JUMPDEST PUSH1 0x2 PUSH1 0x0 SLOAD EQ ISZERO PUSH2 0x18DD JUMPI PUSH1 0x40 MLOAD PUSH32 0x8C379A000000000000000000000000000000000000000000000000000000000 DUP2 MSTORE PUSH1 0x20 PUSH1 0x4 DUP3 ADD MSTORE PUSH1 0x1F PUSH1 0x24 DUP3 ADD MSTORE PUSH32 0x5265656E7472616E637947756172643A207265656E7472616E742063616C6C00 PUSH1 0x44 DUP3 ADD MSTORE PUSH1 0x64 ADD PUSH2 0x8F7 JUMP JUMPDEST PUSH1 0x2 PUSH1 0x0 SSTORE DUP1 PUSH2 0x1949 JUMPI PUSH1 0x40 MLOAD PUSH32 0x8C379A000000000000000000000000000000000000000000000000000000000 DUP2 MSTORE PUSH1 0x20 PUSH1 0x4 DUP3 ADD MSTORE PUSH1 0x13 PUSH1 0x24 DUP3 ADD MSTORE PUSH32 0x4E6F207469636B65742073706563696669656400000000000000000000000000 PUSH1 0x44 DUP3 ADD MSTORE PUSH1 0x64 ADD PUSH2 0x8F7 JUMP JUMPDEST PUSH1 0x7 SLOAD DUP2 GT ISZERO PUSH2 0x19B5 JUMPI PUSH1 0x40 MLOAD PUSH32 0x8C379A000000000000000000000000000000000000000000000000000000000 DUP2 MSTORE PUSH1 0x20 PUSH1 0x4 DUP3 ADD MSTORE PUSH1 0x10 PUSH1 0x24 DUP3 ADD MSTORE PUSH32 0x546F6F206D616E79207469636B65747300000000000000000000000000000000 PUSH1 0x44 DUP3 ADD MSTORE PUSH1 0x64 ADD PUSH2 0x8F7 JUMP JUMPDEST PUSH1 0x1 PUSH1 0x0 DUP5 DUP2 MSTORE PUSH1 0xC PUSH1 0x20 MSTORE PUSH1 0x40 SWAP1 KECCAK256 SLOAD PUSH1 0xFF AND PUSH1 0x3 DUP2 GT ISZERO PUSH2 0x19DA JUMPI PUSH2 0x19DA PUSH2 0x477A JUMP JUMPDEST EQ PUSH2 0x1A41 JUMPI PUSH1 0x40 MLOAD PUSH32 0x8C379A000000000000000000000000000000000000000000000000000000000 DUP2 MSTORE PUSH1 0x20 PUSH1 0x4 DUP3 ADD MSTORE PUSH1 0x13 PUSH1 0x24 DUP3 ADD MSTORE PUSH32 0x4C6F7474657279206973206E6F74206F70656E00000000000000000000000000 PUSH1 0x44 DUP3 ADD MSTORE PUSH1 0x64 ADD PUSH2 0x8F7 JUMP JUMPDEST PUSH1 0x0 DUP4 DUP2 MSTORE PUSH1 0xC PUSH1 0x20 MSTORE PUSH1 0x40 SWAP1 KECCAK256 PUSH1 0x2 ADD SLOAD TIMESTAMP LT PUSH2 0x1ABB JUMPI PUSH1 0x40 MLOAD PUSH32 0x8C379A000000000000000000000000000000000000000000000000000000000 DUP2 MSTORE PUSH1 0x20 PUSH1 0x4 DUP3 ADD MSTORE PUSH1 0xF PUSH1 0x24 DUP3 ADD MSTORE PUSH32 0x4C6F7474657279206973206F7665720000000000000000000000000000000000 PUSH1 0x44 DUP3 ADD MSTORE PUSH1 0x64 ADD PUSH2 0x8F7 JUMP JUMPDEST PUSH1 0x0 DUP4 DUP2 MSTORE PUSH1 0xC PUSH1 0x20 MSTORE PUSH1 0x40 DUP2 KECCAK256 PUSH1 0x4 DUP2 ADD SLOAD PUSH1 0x3 SWAP1 SWAP2 ADD SLOAD PUSH2 0x1ADF SWAP2 SWAP1 DUP5 PUSH2 0x3A9D JUMP JUMPDEST PUSH1 0xB SLOAD SWAP1 SWAP2 POP PUSH2 0x1B0F SWAP1 PUSH5 0x100000000 SWAP1 DIV PUSH20 0xFFFFFFFFFFFFFFFFFFFFFFFFFFFFFFFFFFFFFFFF AND CALLER ADDRESS DUP5 PUSH2 0x3A39 JUMP JUMPDEST PUSH1 0x0 DUP5 DUP2 MSTORE PUSH1 0xC PUSH1 0x20 MSTORE PUSH1 0x40 DUP2 KECCAK256 PUSH1 0x1A ADD DUP1 SLOAD DUP4 SWAP3 SWAP1 PUSH2 0x1B30 SWAP1 DUP5 SWAP1 PUSH2 0x445F JUMP JUMPDEST SWAP1 SWAP2 SSTORE POP PUSH1 0x0 SWAP1 POP JUMPDEST DUP3 DUP2 LT ISZERO PUSH2 0x1ED0 JUMPI PUSH1 0x0 DUP5 DUP5 DUP4 DUP2 DUP2 LT PUSH2 0x1B55 JUMPI PUSH2 0x1B55 PUSH2 0x47A9 JUMP JUMPDEST SWAP1 POP PUSH1 0x20 MUL ADD PUSH1 0x20 DUP2 ADD SWAP1 PUSH2 0x1B6A SWAP2 SWAP1 PUSH2 0x41A1 JUMP JUMPDEST PUSH1 0xB SLOAD SWAP1 SWAP2 POP PUSH2 0x1B81 SWAP1 PUSH4 0xFFFFFFFF AND PUSH1 0xA PUSH2 0x44F8 JUMP JUMPDEST PUSH2 0x1B8B SWAP1 DUP3 PUSH2 0x4637 JUMP JUMPDEST PUSH2 0x1B98 SWAP1 PUSH3 0xF4240 PUSH2 0x4477 JUMP JUMPDEST SWAP1 POP PUSH3 0xF4240 DUP2 PUSH4 0xFFFFFFFF AND LT ISZERO DUP1 ISZERO PUSH2 0x1BBC JUMPI POP PUSH3 0x1E847F DUP2 PUSH4 0xFFFFFFFF AND GT ISZERO JUMPDEST PUSH2 0x1C22 JUMPI PUSH1 0x40 MLOAD PUSH32 0x8C379A000000000000000000000000000000000000000000000000000000000 DUP2 MSTORE PUSH1 0x20 PUSH1 0x4 DUP3 ADD MSTORE PUSH1 0xD PUSH1 0x24 DUP3 ADD MSTORE PUSH32 0x4F7574736964652072616E676500000000000000000000000000000000000000 PUSH1 0x44 DUP3 ADD MSTORE PUSH1 0x64 ADD PUSH2 0x8F7 JUMP JUMPDEST PUSH1 0x0 DUP7 DUP2 MSTORE PUSH1 0xF PUSH1 0x20 MSTORE PUSH1 0x40 DUP2 KECCAK256 SWAP1 PUSH2 0x1C3C PUSH1 0xA DUP5 PUSH2 0x46F9 JUMP JUMPDEST PUSH2 0x1C47 SWAP1 PUSH1 0x1 PUSH2 0x4477 JUMP JUMPDEST PUSH4 0xFFFFFFFF AND DUP2 MSTORE PUSH1 0x20 DUP2 ADD SWAP2 SWAP1 SWAP2 MSTORE PUSH1 0x40 ADD PUSH1 0x0 SWAP1 DUP2 KECCAK256 DUP1 SLOAD SWAP2 PUSH2 0x1C6B DUP4 PUSH2 0x4688 JUMP JUMPDEST SWAP1 SWAP2 SSTORE POP POP PUSH1 0x0 DUP7 DUP2 MSTORE PUSH1 0xF PUSH1 0x20 MSTORE PUSH1 0x40 DUP2 KECCAK256 SWAP1 PUSH2 0x1C8A PUSH1 0x64 DUP5 PUSH2 0x46F9 JUMP JUMPDEST PUSH2 0x1C95 SWAP1 PUSH1 0xB PUSH2 0x4477 JUMP JUMPDEST PUSH4 0xFFFFFFFF AND DUP2 MSTORE PUSH1 0x20 DUP2 ADD SWAP2 SWAP1 SWAP2 MSTORE PUSH1 0x40 ADD PUSH1 0x0 SWAP1 DUP2 KECCAK256 DUP1 SLOAD SWAP2 PUSH2 0x1CB9 DUP4 PUSH2 0x4688 JUMP JUMPDEST SWAP1 SWAP2 SSTORE POP POP PUSH1 0x0 DUP7 DUP2 MSTORE PUSH1 0xF PUSH1 0x20 MSTORE PUSH1 0x40 DUP2 KECCAK256 SWAP1 PUSH2 0x1CD9 PUSH2 0x3E8 DUP5 PUSH2 0x46F9 JUMP JUMPDEST PUSH2 0x1CE4 SWAP1 PUSH1 0x6F PUSH2 0x4477 JUMP JUMPDEST PUSH4 0xFFFFFFFF AND DUP2 MSTORE PUSH1 0x20 DUP2 ADD SWAP2 SWAP1 SWAP2 MSTORE PUSH1 0x40 ADD PUSH1 0x0 SWAP1 DUP2 KECCAK256 DUP1 SLOAD SWAP2 PUSH2 0x1D08 DUP4 PUSH2 0x4688 JUMP JUMPDEST SWAP1 SWAP2 SSTORE POP POP PUSH1 0x0 DUP7 DUP2 MSTORE PUSH1 0xF PUSH1 0x20 MSTORE PUSH1 0x40 DUP2 KECCAK256 SWAP1 PUSH2 0x1D28 PUSH2 0x2710 DUP5 PUSH2 0x46F9 JUMP JUMPDEST PUSH2 0x1D34 SWAP1 PUSH2 0x457 PUSH2 0x4477 JUMP JUMPDEST PUSH4 0xFFFFFFFF AND DUP2 MSTORE PUSH1 0x20 DUP2 ADD SWAP2 SWAP1 SWAP2 MSTORE PUSH1 0x40 ADD PUSH1 0x0 SWAP1 DUP2 KECCAK256 DUP1 SLOAD SWAP2 PUSH2 0x1D58 DUP4 PUSH2 0x4688 JUMP JUMPDEST SWAP1 SWAP2 SSTORE POP POP PUSH1 0x0 DUP7 DUP2 MSTORE PUSH1 0xF PUSH1 0x20 MSTORE PUSH1 0x40 DUP2 KECCAK256 SWAP1 PUSH2 0x1D79 PUSH3 0x186A0 DUP5 PUSH2 0x46F9 JUMP JUMPDEST PUSH2 0x1D85 SWAP1 PUSH2 0x2B67 PUSH2 0x4477 JUMP JUMPDEST PUSH4 0xFFFFFFFF AND DUP2 MSTORE PUSH1 0x20 DUP2 ADD SWAP2 SWAP1 SWAP2 MSTORE PUSH1 0x40 ADD PUSH1 0x0 SWAP1 DUP2 KECCAK256 DUP1 SLOAD SWAP2 PUSH2 0x1DA9 DUP4 PUSH2 0x4688 JUMP JUMPDEST SWAP1 SWAP2 SSTORE POP POP PUSH1 0x0 DUP7 DUP2 MSTORE PUSH1 0xF PUSH1 0x20 MSTORE PUSH1 0x40 DUP2 KECCAK256 SWAP1 PUSH2 0x1DCA PUSH3 0xF4240 DUP5 PUSH2 0x46F9 JUMP JUMPDEST PUSH2 0x1DD7 SWAP1 PUSH3 0x1B207 PUSH2 0x4477 JUMP JUMPDEST PUSH4 0xFFFFFFFF AND DUP2 MSTORE PUSH1 0x20 DUP2 ADD SWAP2 SWAP1 SWAP2 MSTORE PUSH1 0x40 ADD PUSH1 0x0 SWAP1 DUP2 KECCAK256 DUP1 SLOAD SWAP2 PUSH2 0x1DFB DUP4 PUSH2 0x4688 JUMP JUMPDEST SWAP1 SWAP2 SSTORE POP POP CALLER PUSH1 0x0 DUP2 DUP2 MSTORE PUSH1 0x10 PUSH1 0x20 SWAP1 DUP2 MSTORE PUSH1 0x40 DUP1 DUP4 KECCAK256 DUP11 DUP5 MSTORE DUP3 MSTORE DUP1 DUP4 KECCAK256 PUSH1 0x6 DUP1 SLOAD DUP3 SLOAD PUSH1 0x1 DUP2 ADD DUP5 SSTORE SWAP3 DUP7 MSTORE DUP5 DUP7 KECCAK256 SWAP1 SWAP3 ADD SWAP2 SWAP1 SWAP2 SSTORE DUP2 MLOAD DUP1 DUP4 ADD DUP4 MSTORE PUSH4 0xFFFFFFFF DUP1 DUP9 AND DUP3 MSTORE DUP2 DUP6 ADD SWAP7 DUP8 MSTORE DUP3 SLOAD DUP7 MSTORE PUSH1 0xD SWAP1 SWAP5 MSTORE SWAP2 DUP5 KECCAK256 SWAP2 MLOAD DUP3 SLOAD SWAP6 MLOAD PUSH20 0xFFFFFFFFFFFFFFFFFFFFFFFFFFFFFFFFFFFFFFFF AND PUSH5 0x100000000 MUL PUSH32 0xFFFFFFFFFFFFFFFF000000000000000000000000000000000000000000000000 SWAP1 SWAP7 AND SWAP4 AND SWAP3 SWAP1 SWAP3 OR SWAP4 SWAP1 SWAP4 OR SWAP1 SWAP3 SSTORE DUP2 SLOAD SWAP2 SWAP1 PUSH2 0x1EB7 DUP4 PUSH2 0x4688 JUMP JUMPDEST SWAP2 SWAP1 POP SSTORE POP POP DUP1 DUP1 PUSH2 0x1EC8 SWAP1 PUSH2 0x4688 JUMP JUMPDEST SWAP2 POP POP PUSH2 0x1B39 JUMP JUMPDEST POP PUSH1 0x40 MLOAD DUP3 DUP2 MSTORE DUP5 SWAP1 CALLER SWAP1 PUSH32 0xD7D247B583DE1023852EEF87B48F54354DBEC771D01BC2CC49E96094EFC322B9 SWAP1 PUSH1 0x20 ADD PUSH1 0x40 MLOAD DUP1 SWAP2 SUB SWAP1 LOG3 POP POP PUSH1 0x1 PUSH1 0x0 SSTORE POP POP JUMP JUMPDEST PUSH1 0x60 DUP1 DUP3 PUSH1 0x0 DUP2 PUSH8 0xFFFFFFFFFFFFFFFF DUP2 GT ISZERO PUSH2 0x1F32 JUMPI PUSH2 0x1F32 PUSH2 0x47D8 JUMP JUMPDEST PUSH1 0x40 MLOAD SWAP1 DUP1 DUP3 MSTORE DUP1 PUSH1 0x20 MUL PUSH1 0x20 ADD DUP3 ADD PUSH1 0x40 MSTORE DUP1 ISZERO PUSH2 0x1F5B JUMPI DUP2 PUSH1 0x20 ADD PUSH1 0x20 DUP3 MUL DUP1 CALLDATASIZE DUP4 CALLDATACOPY ADD SWAP1 POP JUMPDEST POP SWAP1 POP PUSH1 0x0 DUP3 PUSH8 0xFFFFFFFFFFFFFFFF DUP2 GT ISZERO PUSH2 0x1F79 JUMPI PUSH2 0x1F79 PUSH2 0x47D8 JUMP JUMPDEST PUSH1 0x40 MLOAD SWAP1 DUP1 DUP3 MSTORE DUP1 PUSH1 0x20 MUL PUSH1 0x20 ADD DUP3 ADD PUSH1 0x40 MSTORE DUP1 ISZERO PUSH2 0x1FA2 JUMPI DUP2 PUSH1 0x20 ADD PUSH1 0x20 DUP3 MUL DUP1 CALLDATASIZE DUP4 CALLDATACOPY ADD SWAP1 POP JUMPDEST POP SWAP1 POP PUSH1 0x0 JUMPDEST DUP4 DUP2 LT ISZERO PUSH2 0x20CB JUMPI PUSH1 0xD PUSH1 0x0 DUP10 DUP10 DUP5 DUP2 DUP2 LT PUSH2 0x1FC6 JUMPI PUSH2 0x1FC6 PUSH2 0x47A9 JUMP JUMPDEST SWAP1 POP PUSH1 0x20 MUL ADD CALLDATALOAD DUP2 MSTORE PUSH1 0x20 ADD SWAP1 DUP2 MSTORE PUSH1 0x20 ADD PUSH1 0x0 KECCAK256 PUSH1 0x0 ADD PUSH1 0x0 SWAP1 SLOAD SWAP1 PUSH2 0x100 EXP SWAP1 DIV PUSH4 0xFFFFFFFF AND DUP4 DUP3 DUP2 MLOAD DUP2 LT PUSH2 0x2001 JUMPI PUSH2 0x2001 PUSH2 0x47A9 JUMP JUMPDEST PUSH4 0xFFFFFFFF SWAP1 SWAP3 AND PUSH1 0x20 SWAP3 DUP4 MUL SWAP2 SWAP1 SWAP2 ADD SWAP1 SWAP2 ADD MSTORE PUSH1 0x0 PUSH1 0xD DUP2 DUP11 DUP11 DUP6 DUP2 DUP2 LT PUSH2 0x202D JUMPI PUSH2 0x202D PUSH2 0x47A9 JUMP JUMPDEST PUSH1 0x20 SWAP1 DUP2 MUL SWAP3 SWAP1 SWAP3 ADD CALLDATALOAD DUP4 MSTORE POP DUP2 ADD SWAP2 SWAP1 SWAP2 MSTORE PUSH1 0x40 ADD PUSH1 0x0 KECCAK256 SLOAD PUSH5 0x100000000 SWAP1 DIV PUSH20 0xFFFFFFFFFFFFFFFFFFFFFFFFFFFFFFFFFFFFFFFF AND EQ ISZERO PUSH2 0x2094 JUMPI PUSH1 0x1 DUP3 DUP3 DUP2 MLOAD DUP2 LT PUSH2 0x207F JUMPI PUSH2 0x207F PUSH2 0x47A9 JUMP JUMPDEST SWAP2 ISZERO ISZERO PUSH1 0x20 SWAP3 DUP4 MUL SWAP2 SWAP1 SWAP2 ADD SWAP1 SWAP2 ADD MSTORE PUSH2 0x20B9 JUMP JUMPDEST PUSH1 0x0 DUP3 DUP3 DUP2 MLOAD DUP2 LT PUSH2 0x20A8 JUMPI PUSH2 0x20A8 PUSH2 0x47A9 JUMP JUMPDEST SWAP2 ISZERO ISZERO PUSH1 0x20 SWAP3 DUP4 MUL SWAP2 SWAP1 SWAP2 ADD SWAP1 SWAP2 ADD MSTORE JUMPDEST DUP1 PUSH2 0x20C3 DUP2 PUSH2 0x4688 JUMP JUMPDEST SWAP2 POP POP PUSH2 0x1FA8 JUMP JUMPDEST POP SWAP1 SWAP4 POP SWAP2 POP POP JUMPDEST SWAP3 POP SWAP3 SWAP1 POP JUMP JUMPDEST PUSH1 0x1 SLOAD PUSH20 0xFFFFFFFFFFFFFFFFFFFFFFFFFFFFFFFFFFFFFFFF AND CALLER EQ DUP1 PUSH2 0x2117 JUMPI POP PUSH1 0x3 SLOAD PUSH20 0xFFFFFFFFFFFFFFFFFFFFFFFFFFFFFFFFFFFFFFFF AND CALLER EQ JUMPDEST PUSH2 0x217D JUMPI PUSH1 0x40 MLOAD PUSH32 0x8C379A000000000000000000000000000000000000000000000000000000000 DUP2 MSTORE PUSH1 0x20 PUSH1 0x4 DUP3 ADD MSTORE PUSH1 0x15 PUSH1 0x24 DUP3 ADD MSTORE PUSH32 0x4E6F74206F776E6572206F72206F70657261746F720000000000000000000000 PUSH1 0x44 DUP3 ADD MSTORE PUSH1 0x64 ADD PUSH2 0x8F7 JUMP JUMPDEST PUSH1 0x2 PUSH1 0x0 SLOAD EQ ISZERO PUSH2 0x21EA JUMPI PUSH1 0x40 MLOAD PUSH32 0x8C379A000000000000000000000000000000000000000000000000000000000 DUP2 MSTORE PUSH1 0x20 PUSH1 0x4 DUP3 ADD MSTORE PUSH1 0x1F PUSH1 0x24 DUP3 ADD MSTORE PUSH32 0x5265656E7472616E637947756172643A207265656E7472616E742063616C6C00 PUSH1 0x44 DUP3 ADD MSTORE PUSH1 0x64 ADD PUSH2 0x8F7 JUMP JUMPDEST PUSH1 0x2 PUSH1 0x0 SSTORE PUSH1 0x1 PUSH1 0x0 DUP3 DUP2 MSTORE PUSH1 0xC PUSH1 0x20 MSTORE PUSH1 0x40 SWAP1 KECCAK256 SLOAD PUSH1 0xFF AND PUSH1 0x3 DUP2 GT ISZERO PUSH2 0x2214 JUMPI PUSH2 0x2214 PUSH2 0x477A JUMP JUMPDEST EQ PUSH2 0x227B JUMPI PUSH1 0x40 MLOAD PUSH32 0x8C379A000000000000000000000000000000000000000000000000000000000 DUP2 MSTORE PUSH1 0x20 PUSH1 0x4 DUP3 ADD MSTORE PUSH1 0x10 PUSH1 0x24 DUP3 ADD MSTORE PUSH32 0x4C6F7474657279206E6F74206F70656E00000000000000000000000000000000 PUSH1 0x44 DUP3 ADD MSTORE PUSH1 0x64 ADD PUSH2 0x8F7 JUMP JUMPDEST PUSH1 0x0 DUP2 DUP2 MSTORE PUSH1 0xC PUSH1 0x20 MSTORE PUSH1 0x40 SWAP1 KECCAK256 PUSH1 0x2 ADD SLOAD TIMESTAMP GT PUSH2 0x22F5 JUMPI PUSH1 0x40 MLOAD PUSH32 0x8C379A000000000000000000000000000000000000000000000000000000000 DUP2 MSTORE PUSH1 0x20 PUSH1 0x4 DUP3 ADD MSTORE PUSH1 0x10 PUSH1 0x24 DUP3 ADD MSTORE PUSH32 0x4C6F7474657279206E6F74206F76657200000000000000000000000000000000 PUSH1 0x44 DUP3 ADD MSTORE PUSH1 0x64 ADD PUSH2 0x8F7 JUMP JUMPDEST PUSH1 0x6 SLOAD PUSH1 0x0 DUP3 DUP2 MSTORE PUSH1 0xC PUSH1 0x20 MSTORE PUSH1 0x40 SWAP1 KECCAK256 PUSH1 0x19 DUP2 ADD SWAP2 SWAP1 SWAP2 SSTORE DUP1 SLOAD PUSH1 0x2 SWAP2 SWAP1 PUSH32 0xFFFFFFFFFFFFFFFFFFFFFFFFFFFFFFFFFFFFFFFFFFFFFFFFFFFFFFFFFFFFFF00 AND PUSH1 0x1 DUP4 MUL OR SWAP1 SSTORE POP DUP1 PUSH32 0x3728E75294796694D59D2FFCED9C394279BAF7B9EBD2702DB43F5F04BAC67929 PUSH1 0x6 SLOAD PUSH1 0x40 MLOAD PUSH2 0x2372 SWAP2 DUP2 MSTORE PUSH1 0x20 ADD SWAP1 JUMP JUMPDEST PUSH1 0x40 MLOAD DUP1 SWAP2 SUB SWAP1 LOG2 POP PUSH1 0x1 PUSH1 0x0 SSTORE JUMP JUMPDEST PUSH1 0x1 SLOAD PUSH20 0xFFFFFFFFFFFFFFFFFFFFFFFFFFFFFFFFFFFFFFFF AND CALLER EQ DUP1 PUSH2 0x23BF JUMPI POP PUSH1 0x3 SLOAD PUSH20 0xFFFFFFFFFFFFFFFFFFFFFFFFFFFFFFFFFFFFFFFF AND CALLER EQ JUMPDEST PUSH2 0x2425 JUMPI PUSH1 0x40 MLOAD PUSH32 0x8C379A000000000000000000000000000000000000000000000000000000000 DUP2 MSTORE PUSH1 0x20 PUSH1 0x4 DUP3 ADD MSTORE PUSH1 0x15 PUSH1 0x24 DUP3 ADD MSTORE PUSH32 0x4E6F74206F776E6572206F72206F70657261746F720000000000000000000000 PUSH1 0x44 DUP3 ADD MSTORE PUSH1 0x64 ADD PUSH2 0x8F7 JUMP JUMPDEST PUSH1 0x5 SLOAD ISZERO DUP1 PUSH2 0x2459 JUMPI POP PUSH1 0x3 PUSH1 0x5 SLOAD PUSH1 0x0 SWAP1 DUP2 MSTORE PUSH1 0xC PUSH1 0x20 MSTORE PUSH1 0x40 SWAP1 KECCAK256 SLOAD PUSH1 0xFF AND PUSH1 0x3 DUP2 GT ISZERO PUSH2 0x2457 JUMPI PUSH2 0x2457 PUSH2 0x477A JUMP JUMPDEST EQ JUMPDEST PUSH2 0x24BF JUMPI PUSH1 0x40 MLOAD PUSH32 0x8C379A000000000000000000000000000000000000000000000000000000000 DUP2 MSTORE PUSH1 0x20 PUSH1 0x4 DUP3 ADD MSTORE PUSH1 0x19 PUSH1 0x24 DUP3 ADD MSTORE PUSH32 0x4E6F742074696D6520746F207374617274206C6F747465727900000000000000 PUSH1 0x44 DUP3 ADD MSTORE PUSH1 0x64 ADD PUSH2 0x8F7 JUMP JUMPDEST PUSH2 0x12C PUSH2 0x24CC TIMESTAMP DUP8 PUSH2 0x4620 JUMP JUMPDEST GT DUP1 ISZERO PUSH2 0x24E4 JUMPI POP PUSH3 0x28DFAC PUSH2 0x24E2 TIMESTAMP DUP8 PUSH2 0x4620 JUMP JUMPDEST LT JUMPDEST PUSH2 0x254A JUMPI PUSH1 0x40 MLOAD PUSH32 0x8C379A000000000000000000000000000000000000000000000000000000000 DUP2 MSTORE PUSH1 0x20 PUSH1 0x4 DUP3 ADD MSTORE PUSH1 0x1F PUSH1 0x24 DUP3 ADD MSTORE PUSH32 0x4C6F7474657279206C656E677468206F757473696465206F662072616E676500 PUSH1 0x44 DUP3 ADD MSTORE PUSH1 0x64 ADD PUSH2 0x8F7 JUMP JUMPDEST PUSH2 0x12C DUP4 LT ISZERO PUSH2 0x25B6 JUMPI PUSH1 0x40 MLOAD PUSH32 0x8C379A000000000000000000000000000000000000000000000000000000000 DUP2 MSTORE PUSH1 0x20 PUSH1 0x4 DUP3 ADD MSTORE PUSH1 0x18 PUSH1 0x24 DUP3 ADD MSTORE PUSH32 0x446973636F756E742064697669736F7220746F6F206C6F770000000000000000 PUSH1 0x44 DUP3 ADD MSTORE PUSH1 0x64 ADD PUSH2 0x8F7 JUMP JUMPDEST PUSH2 0xBB8 DUP2 GT ISZERO PUSH2 0x2622 JUMPI PUSH1 0x40 MLOAD PUSH32 0x8C379A000000000000000000000000000000000000000000000000000000000 DUP2 MSTORE PUSH1 0x20 PUSH1 0x4 DUP3 ADD MSTORE PUSH1 0x15 PUSH1 0x24 DUP3 ADD MSTORE PUSH32 0x54726561737572792066656520746F6F20686967680000000000000000000000 PUSH1 0x44 DUP3 ADD MSTORE PUSH1 0x64 ADD PUSH2 0x8F7 JUMP JUMPDEST PUSH1 0xA0 DUP3 ADD CALLDATALOAD PUSH1 0x80 DUP4 ADD CALLDATALOAD PUSH1 0x60 DUP5 ADD CALLDATALOAD PUSH1 0x40 DUP6 ADD CALLDATALOAD PUSH2 0x2645 PUSH1 0x20 DUP8 ADD CALLDATALOAD DUP8 CALLDATALOAD PUSH2 0x445F JUMP JUMPDEST PUSH2 0x264F SWAP2 SWAP1 PUSH2 0x445F JUMP JUMPDEST PUSH2 0x2659 SWAP2 SWAP1 PUSH2 0x445F JUMP JUMPDEST PUSH2 0x2663 SWAP2 SWAP1 PUSH2 0x445F JUMP JUMPDEST PUSH2 0x266D SWAP2 SWAP1 PUSH2 0x445F JUMP JUMPDEST PUSH2 0x2710 EQ PUSH2 0x26D7 JUMPI PUSH1 0x40 MLOAD PUSH32 0x8C379A000000000000000000000000000000000000000000000000000000000 DUP2 MSTORE PUSH1 0x20 PUSH1 0x4 DUP3 ADD MSTORE PUSH1 0x18 PUSH1 0x24 DUP3 ADD MSTORE PUSH32 0x52657761726473206D75737420657175616C2031303030300000000000000000 PUSH1 0x44 DUP3 ADD MSTORE PUSH1 0x64 ADD PUSH2 0x8F7 JUMP JUMPDEST PUSH1 0x5 DUP1 SLOAD SWAP1 PUSH1 0x0 PUSH2 0x26E7 DUP4 PUSH2 0x4688 JUMP JUMPDEST SWAP1 SWAP2 SSTORE POP POP PUSH1 0x40 DUP1 MLOAD PUSH2 0x1A0 DUP2 ADD SWAP1 SWAP2 MSTORE DUP1 PUSH1 0x1 DUP2 MSTORE PUSH1 0x20 ADD TIMESTAMP DUP2 MSTORE PUSH1 0x20 ADD DUP7 DUP2 MSTORE PUSH1 0x20 ADD DUP6 DUP2 MSTORE PUSH1 0x20 ADD DUP5 DUP2 MSTORE PUSH1 0x20 ADD DUP4 PUSH1 0x6 DUP1 PUSH1 0x20 MUL PUSH1 0x40 MLOAD SWAP1 DUP2 ADD PUSH1 0x40 MSTORE DUP1 SWAP3 SWAP2 SWAP1 DUP3 PUSH1 0x6 PUSH1 0x20 MUL DUP1 DUP3 DUP5 CALLDATACOPY PUSH1 0x0 SWAP3 ADD DUP3 SWAP1 MSTORE POP SWAP3 DUP5 MSTORE POP POP PUSH1 0x20 DUP1 DUP4 ADD DUP6 SWAP1 MSTORE PUSH1 0x40 DUP1 MLOAD PUSH1 0xC0 DUP1 DUP3 ADD DUP4 MSTORE DUP5 DUP3 MSTORE DUP2 DUP5 ADD DUP6 SWAP1 MSTORE DUP2 DUP4 ADD DUP6 SWAP1 MSTORE PUSH1 0x60 DUP1 DUP4 ADD DUP7 SWAP1 MSTORE PUSH1 0x80 DUP1 DUP5 ADD DUP8 SWAP1 MSTORE PUSH1 0xA0 DUP1 DUP6 ADD DUP9 SWAP1 MSTORE DUP6 DUP10 ADD SWAP5 SWAP1 SWAP5 MSTORE DUP5 MLOAD DUP1 DUP5 ADD DUP7 MSTORE DUP8 DUP2 MSTORE DUP1 DUP8 ADD DUP9 SWAP1 MSTORE DUP1 DUP7 ADD DUP9 SWAP1 MSTORE DUP1 DUP4 ADD DUP9 SWAP1 MSTORE DUP1 DUP3 ADD DUP9 SWAP1 MSTORE DUP1 DUP6 ADD DUP9 SWAP1 MSTORE SWAP2 DUP9 ADD SWAP2 SWAP1 SWAP2 MSTORE PUSH1 0x6 SLOAD SWAP1 DUP8 ADD DUP2 SWAP1 MSTORE SWAP2 DUP7 ADD SWAP2 SWAP1 SWAP2 MSTORE PUSH1 0xA SLOAD SWAP1 DUP6 ADD MSTORE PUSH1 0xE0 SWAP1 SWAP4 ADD DUP3 SWAP1 MSTORE PUSH1 0x5 SLOAD DUP3 MSTORE PUSH1 0xC SWAP1 MSTORE KECCAK256 DUP2 MLOAD DUP2 SLOAD DUP3 SWAP1 PUSH32 0xFFFFFFFFFFFFFFFFFFFFFFFFFFFFFFFFFFFFFFFFFFFFFFFFFFFFFFFFFFFFFF00 AND PUSH1 0x1 DUP4 PUSH1 0x3 DUP2 GT ISZERO PUSH2 0x2818 JUMPI PUSH2 0x2818 PUSH2 0x477A JUMP JUMPDEST MUL OR SWAP1 SSTORE POP PUSH1 0x20 DUP3 ADD MLOAD PUSH1 0x1 DUP3 ADD SSTORE PUSH1 0x40 DUP3 ADD MLOAD PUSH1 0x2 DUP3 ADD SSTORE PUSH1 0x60 DUP3 ADD MLOAD PUSH1 0x3 DUP3 ADD SSTORE PUSH1 0x80 DUP3 ADD MLOAD PUSH1 0x4 DUP3 ADD SSTORE PUSH1 0xA0 DUP3 ADD MLOAD PUSH2 0x285A SWAP1 PUSH1 0x5 DUP4 ADD SWAP1 PUSH1 0x6 PUSH2 0x3DAD JUMP JUMPDEST POP PUSH1 0xC0 DUP3 ADD MLOAD PUSH1 0xB DUP3 ADD SSTORE PUSH1 0xE0 DUP3 ADD MLOAD PUSH2 0x287A SWAP1 PUSH1 0xC DUP4 ADD SWAP1 PUSH1 0x6 PUSH2 0x3DAD JUMP JUMPDEST POP PUSH2 0x100 DUP3 ADD MLOAD PUSH2 0x2891 SWAP1 PUSH1 0x12 DUP4 ADD SWAP1 PUSH1 0x6 PUSH2 0x3DAD JUMP JUMPDEST POP PUSH2 0x120 DUP3 ADD MLOAD PUSH1 0x18 DUP3 ADD SSTORE PUSH2 0x140 DUP3 ADD MLOAD PUSH1 0x19 DUP3 ADD SSTORE PUSH2 0x160 DUP3 ADD MLOAD PUSH1 0x1A DUP3 ADD SSTORE PUSH2 0x180 SWAP1 SWAP2 ADD MLOAD PUSH1 0x1B SWAP1 SWAP2 ADD DUP1 SLOAD PUSH32 0xFFFFFFFFFFFFFFFFFFFFFFFFFFFFFFFFFFFFFFFFFFFFFFFFFFFFFFFF00000000 AND PUSH4 0xFFFFFFFF SWAP1 SWAP3 AND SWAP2 SWAP1 SWAP2 OR SWAP1 SSTORE PUSH1 0x5 SLOAD PUSH1 0x6 SLOAD PUSH1 0xA SLOAD PUSH1 0x40 DUP1 MLOAD TIMESTAMP DUP2 MSTORE PUSH1 0x20 DUP2 ADD DUP11 SWAP1 MSTORE SWAP1 DUP2 ADD DUP9 SWAP1 MSTORE PUSH1 0x60 DUP2 ADD SWAP3 SWAP1 SWAP3 MSTORE PUSH1 0x80 DUP3 ADD MSTORE PUSH32 0x367E70F8C0E0C0A6504D92172BDA155C02022D532FC85B5D66A9C49E31C8BC77 SWAP1 PUSH1 0xA0 ADD PUSH1 0x40 MLOAD DUP1 SWAP2 SUB SWAP1 LOG2 POP POP PUSH1 0x0 PUSH1 0xA SSTORE POP POP POP JUMP JUMPDEST PUSH1 0x0 PUSH2 0x12C DUP5 LT ISZERO PUSH2 0x29C2 JUMPI PUSH1 0x40 MLOAD PUSH32 0x8C379A000000000000000000000000000000000000000000000000000000000 DUP2 MSTORE PUSH1 0x20 PUSH1 0x4 DUP3 ADD MSTORE PUSH1 0x1F PUSH1 0x24 DUP3 ADD MSTORE PUSH32 0x4D757374206265203E3D204D494E5F444953434F554E545F44495649534F5200 PUSH1 0x44 DUP3 ADD MSTORE PUSH1 0x64 ADD PUSH2 0x8F7 JUMP JUMPDEST DUP2 PUSH2 0x2A29 JUMPI PUSH1 0x40 MLOAD PUSH32 0x8C379A000000000000000000000000000000000000000000000000000000000 DUP2 MSTORE PUSH1 0x20 PUSH1 0x4 DUP3 ADD MSTORE PUSH1 0x1D PUSH1 0x24 DUP3 ADD MSTORE PUSH32 0x4E756D626572206F66207469636B657473206D757374206265203E2030000000 PUSH1 0x44 DUP3 ADD MSTORE PUSH1 0x64 ADD PUSH2 0x8F7 JUMP JUMPDEST PUSH2 0x1307 DUP5 DUP5 DUP5 PUSH2 0x3A9D JUMP JUMPDEST CALLER EXTCODESIZE ISZERO PUSH2 0x2A9D JUMPI PUSH1 0x40 MLOAD PUSH32 0x8C379A000000000000000000000000000000000000000000000000000000000 DUP2 MSTORE PUSH1 0x20 PUSH1 0x4 DUP3 ADD MSTORE PUSH1 0x14 PUSH1 0x24 DUP3 ADD MSTORE PUSH32 0x436F6E7472616374206E6F7420616C6C6F776564000000000000000000000000 PUSH1 0x44 DUP3 ADD MSTORE PUSH1 0x64 ADD PUSH2 0x8F7 JUMP JUMPDEST CALLER ORIGIN EQ PUSH2 0x2B06 JUMPI PUSH1 0x40 MLOAD PUSH32 0x8C379A000000000000000000000000000000000000000000000000000000000 DUP2 MSTORE PUSH1 0x20 PUSH1 0x4 DUP3 ADD MSTORE PUSH1 0x1A PUSH1 0x24 DUP3 ADD MSTORE PUSH32 0x50726F787920636F6E7472616374206E6F7420616C6C6F776564000000000000 PUSH1 0x44 DUP3 ADD MSTORE PUSH1 0x64 ADD PUSH2 0x8F7 JUMP JUMPDEST PUSH1 0x2 PUSH1 0x0 SLOAD EQ ISZERO PUSH2 0x2B73 JUMPI PUSH1 0x40 MLOAD PUSH32 0x8C379A000000000000000000000000000000000000000000000000000000000 DUP2 MSTORE PUSH1 0x20 PUSH1 0x4 DUP3 ADD MSTORE PUSH1 0x1F PUSH1 0x24 DUP3 ADD MSTORE PUSH32 0x5265656E7472616E637947756172643A207265656E7472616E742063616C6C00 PUSH1 0x44 DUP3 ADD MSTORE PUSH1 0x64 ADD PUSH2 0x8F7 JUMP JUMPDEST PUSH1 0x2 PUSH1 0x0 SSTORE DUP3 DUP2 EQ PUSH2 0x2BE1 JUMPI PUSH1 0x40 MLOAD PUSH32 0x8C379A000000000000000000000000000000000000000000000000000000000 DUP2 MSTORE PUSH1 0x20 PUSH1 0x4 DUP3 ADD MSTORE PUSH1 0xF PUSH1 0x24 DUP3 ADD MSTORE PUSH32 0x4E6F742073616D65206C656E6774680000000000000000000000000000000000 PUSH1 0x44 DUP3 ADD MSTORE PUSH1 0x64 ADD PUSH2 0x8F7 JUMP JUMPDEST DUP3 PUSH2 0x2C48 JUMPI PUSH1 0x40 MLOAD PUSH32 0x8C379A000000000000000000000000000000000000000000000000000000000 DUP2 MSTORE PUSH1 0x20 PUSH1 0x4 DUP3 ADD MSTORE PUSH1 0x11 PUSH1 0x24 DUP3 ADD MSTORE PUSH32 0x4C656E677468206D757374206265203E30000000000000000000000000000000 PUSH1 0x44 DUP3 ADD MSTORE PUSH1 0x64 ADD PUSH2 0x8F7 JUMP JUMPDEST PUSH1 0x7 SLOAD DUP4 GT ISZERO PUSH2 0x2CB4 JUMPI PUSH1 0x40 MLOAD PUSH32 0x8C379A000000000000000000000000000000000000000000000000000000000 DUP2 MSTORE PUSH1 0x20 PUSH1 0x4 DUP3 ADD MSTORE PUSH1 0x10 PUSH1 0x24 DUP3 ADD MSTORE PUSH32 0x546F6F206D616E79207469636B65747300000000000000000000000000000000 PUSH1 0x44 DUP3 ADD MSTORE PUSH1 0x64 ADD PUSH2 0x8F7 JUMP JUMPDEST PUSH1 0x3 PUSH1 0x0 DUP7 DUP2 MSTORE PUSH1 0xC PUSH1 0x20 MSTORE PUSH1 0x40 SWAP1 KECCAK256 SLOAD PUSH1 0xFF AND PUSH1 0x3 DUP2 GT ISZERO PUSH2 0x2CD9 JUMPI PUSH2 0x2CD9 PUSH2 0x477A JUMP JUMPDEST EQ PUSH2 0x2D40 JUMPI PUSH1 0x40 MLOAD PUSH32 0x8C379A000000000000000000000000000000000000000000000000000000000 DUP2 MSTORE PUSH1 0x20 PUSH1 0x4 DUP3 ADD MSTORE PUSH1 0x15 PUSH1 0x24 DUP3 ADD MSTORE PUSH32 0x4C6F7474657279206E6F7420636C61696D61626C650000000000000000000000 PUSH1 0x44 DUP3 ADD MSTORE PUSH1 0x64 ADD PUSH2 0x8F7 JUMP JUMPDEST PUSH1 0x0 DUP1 JUMPDEST DUP5 DUP2 LT ISZERO PUSH2 0x314F JUMPI PUSH1 0x6 DUP5 DUP5 DUP4 DUP2 DUP2 LT PUSH2 0x2D60 JUMPI PUSH2 0x2D60 PUSH2 0x47A9 JUMP JUMPDEST SWAP1 POP PUSH1 0x20 MUL ADD PUSH1 0x20 DUP2 ADD SWAP1 PUSH2 0x2D75 SWAP2 SWAP1 PUSH2 0x41A1 JUMP JUMPDEST PUSH4 0xFFFFFFFF AND LT PUSH2 0x2DE2 JUMPI PUSH1 0x40 MLOAD PUSH32 0x8C379A000000000000000000000000000000000000000000000000000000000 DUP2 MSTORE PUSH1 0x20 PUSH1 0x4 DUP3 ADD MSTORE PUSH1 0x14 PUSH1 0x24 DUP3 ADD MSTORE PUSH32 0x427261636B6574206F7574206F662072616E6765000000000000000000000000 PUSH1 0x44 DUP3 ADD MSTORE PUSH1 0x64 ADD PUSH2 0x8F7 JUMP JUMPDEST PUSH1 0x0 DUP7 DUP7 DUP4 DUP2 DUP2 LT PUSH2 0x2DF6 JUMPI PUSH2 0x2DF6 PUSH2 0x47A9 JUMP JUMPDEST SWAP1 POP PUSH1 0x20 MUL ADD CALLDATALOAD SWAP1 POP DUP1 PUSH1 0xC PUSH1 0x0 DUP11 DUP2 MSTORE PUSH1 0x20 ADD SWAP1 DUP2 MSTORE PUSH1 0x20 ADD PUSH1 0x0 KECCAK256 PUSH1 0x19 ADD SLOAD GT PUSH2 0x2E7E JUMPI PUSH1 0x40 MLOAD PUSH32 0x8C379A000000000000000000000000000000000000000000000000000000000 DUP2 MSTORE PUSH1 0x20 PUSH1 0x4 DUP3 ADD MSTORE PUSH1 0x11 PUSH1 0x24 DUP3 ADD MSTORE PUSH32 0x5469636B6574496420746F6F2068696768000000000000000000000000000000 PUSH1 0x44 DUP3 ADD MSTORE PUSH1 0x64 ADD PUSH2 0x8F7 JUMP JUMPDEST PUSH1 0x0 DUP9 DUP2 MSTORE PUSH1 0xC PUSH1 0x20 MSTORE PUSH1 0x40 SWAP1 KECCAK256 PUSH1 0x18 ADD SLOAD DUP2 LT ISZERO PUSH2 0x2EF9 JUMPI PUSH1 0x40 MLOAD PUSH32 0x8C379A000000000000000000000000000000000000000000000000000000000 DUP2 MSTORE PUSH1 0x20 PUSH1 0x4 DUP3 ADD MSTORE PUSH1 0x10 PUSH1 0x24 DUP3 ADD MSTORE PUSH32 0x5469636B6574496420746F6F206C6F7700000000000000000000000000000000 PUSH1 0x44 DUP3 ADD MSTORE PUSH1 0x64 ADD PUSH2 0x8F7 JUMP JUMPDEST PUSH1 0x0 DUP2 DUP2 MSTORE PUSH1 0xD PUSH1 0x20 MSTORE PUSH1 0x40 SWAP1 KECCAK256 SLOAD PUSH5 0x100000000 SWAP1 DIV PUSH20 0xFFFFFFFFFFFFFFFFFFFFFFFFFFFFFFFFFFFFFFFF AND CALLER EQ PUSH2 0x2F8E JUMPI PUSH1 0x40 MLOAD PUSH32 0x8C379A000000000000000000000000000000000000000000000000000000000 DUP2 MSTORE PUSH1 0x20 PUSH1 0x4 DUP3 ADD MSTORE PUSH1 0xD PUSH1 0x24 DUP3 ADD MSTORE PUSH32 0x4E6F7420746865206F776E657200000000000000000000000000000000000000 PUSH1 0x44 DUP3 ADD MSTORE PUSH1 0x64 ADD PUSH2 0x8F7 JUMP JUMPDEST PUSH1 0x0 DUP2 DUP2 MSTORE PUSH1 0xD PUSH1 0x20 MSTORE PUSH1 0x40 DUP2 KECCAK256 DUP1 SLOAD PUSH32 0xFFFFFFFFFFFFFFFF0000000000000000000000000000000000000000FFFFFFFF AND SWAP1 SSTORE PUSH2 0x2FF3 DUP10 DUP4 DUP9 DUP9 DUP8 DUP2 DUP2 LT PUSH2 0x2FD9 JUMPI PUSH2 0x2FD9 PUSH2 0x47A9 JUMP JUMPDEST SWAP1 POP PUSH1 0x20 MUL ADD PUSH1 0x20 DUP2 ADD SWAP1 PUSH2 0x2FEE SWAP2 SWAP1 PUSH2 0x41A1 JUMP JUMPDEST PUSH2 0x392D JUMP JUMPDEST SWAP1 POP DUP1 PUSH2 0x305C JUMPI PUSH1 0x40 MLOAD PUSH32 0x8C379A000000000000000000000000000000000000000000000000000000000 DUP2 MSTORE PUSH1 0x20 PUSH1 0x4 DUP3 ADD MSTORE PUSH1 0x19 PUSH1 0x24 DUP3 ADD MSTORE PUSH32 0x4E6F207072697A6520666F72207468697320627261636B657400000000000000 PUSH1 0x44 DUP3 ADD MSTORE PUSH1 0x64 ADD PUSH2 0x8F7 JUMP JUMPDEST DUP6 DUP6 DUP5 DUP2 DUP2 LT PUSH2 0x306E JUMPI PUSH2 0x306E PUSH2 0x47A9 JUMP JUMPDEST SWAP1 POP PUSH1 0x20 MUL ADD PUSH1 0x20 DUP2 ADD SWAP1 PUSH2 0x3083 SWAP2 SWAP1 PUSH2 0x41A1 JUMP JUMPDEST PUSH4 0xFFFFFFFF AND PUSH1 0x5 EQ PUSH2 0x312E JUMPI PUSH2 0x30C7 DUP10 DUP4 DUP9 DUP9 DUP8 DUP2 DUP2 LT PUSH2 0x30A7 JUMPI PUSH2 0x30A7 PUSH2 0x47A9 JUMP JUMPDEST SWAP1 POP PUSH1 0x20 MUL ADD PUSH1 0x20 DUP2 ADD SWAP1 PUSH2 0x30BC SWAP2 SWAP1 PUSH2 0x41A1 JUMP JUMPDEST PUSH2 0x2FEE SWAP1 PUSH1 0x1 PUSH2 0x4477 JUMP JUMPDEST ISZERO PUSH2 0x312E JUMPI PUSH1 0x40 MLOAD PUSH32 0x8C379A000000000000000000000000000000000000000000000000000000000 DUP2 MSTORE PUSH1 0x20 PUSH1 0x4 DUP3 ADD MSTORE PUSH1 0x16 PUSH1 0x24 DUP3 ADD MSTORE PUSH32 0x427261636B6574206D7573742062652068696768657200000000000000000000 PUSH1 0x44 DUP3 ADD MSTORE PUSH1 0x64 ADD PUSH2 0x8F7 JUMP JUMPDEST PUSH2 0x3138 DUP2 DUP6 PUSH2 0x445F JUMP JUMPDEST SWAP4 POP POP POP DUP1 DUP1 PUSH2 0x3147 SWAP1 PUSH2 0x4688 JUMP JUMPDEST SWAP2 POP POP PUSH2 0x2D44 JUMP JUMPDEST POP PUSH1 0xB SLOAD PUSH2 0x317C SWAP1 PUSH5 0x100000000 SWAP1 DIV PUSH20 0xFFFFFFFFFFFFFFFFFFFFFFFFFFFFFFFFFFFFFFFF AND CALLER DUP4 PUSH2 0x3854 JUMP JUMPDEST PUSH1 0x40 DUP1 MLOAD DUP3 DUP2 MSTORE PUSH1 0x20 DUP2 ADD DUP7 SWAP1 MSTORE DUP8 SWAP2 CALLER SWAP2 PUSH32 0xF5FCA62DA8FB5D95525B49E5EAA7B20BC6BD9E2F6B64B493442D1C0BD6EF486 SWAP2 ADD PUSH1 0x40 MLOAD DUP1 SWAP2 SUB SWAP1 LOG3 POP POP PUSH1 0x1 PUSH1 0x0 SSTORE POP POP POP POP JUMP JUMPDEST PUSH1 0x1 SLOAD PUSH20 0xFFFFFFFFFFFFFFFFFFFFFFFFFFFFFFFFFFFFFFFF AND CALLER EQ PUSH2 0x3247 JUMPI PUSH1 0x40 MLOAD PUSH32 0x8C379A000000000000000000000000000000000000000000000000000000000 DUP2 MSTORE PUSH1 0x20 PUSH1 0x4 DUP3 ADD DUP2 SWAP1 MSTORE PUSH1 0x24 DUP3 ADD MSTORE PUSH32 0x4F776E61626C653A2063616C6C6572206973206E6F7420746865206F776E6572 PUSH1 0x44 DUP3 ADD MSTORE PUSH1 0x64 ADD PUSH2 0x8F7 JUMP JUMPDEST PUSH20 0xFFFFFFFFFFFFFFFFFFFFFFFFFFFFFFFFFFFFFFFF DUP4 AND PUSH2 0x32C4 JUMPI PUSH1 0x40 MLOAD PUSH32 0x8C379A000000000000000000000000000000000000000000000000000000000 DUP2 MSTORE PUSH1 0x20 PUSH1 0x4 DUP3 ADD MSTORE PUSH1 0x16 PUSH1 0x24 DUP3 ADD MSTORE PUSH32 0x43616E6E6F74206265207A65726F206164647265737300000000000000000000 PUSH1 0x44 DUP3 ADD MSTORE PUSH1 0x64 ADD PUSH2 0x8F7 JUMP JUMPDEST PUSH20 0xFFFFFFFFFFFFFFFFFFFFFFFFFFFFFFFFFFFFFFFF DUP3 AND PUSH2 0x3341 JUMPI PUSH1 0x40 MLOAD PUSH32 0x8C379A000000000000000000000000000000000000000000000000000000000 DUP2 MSTORE PUSH1 0x20 PUSH1 0x4 DUP3 ADD MSTORE PUSH1 0x16 PUSH1 0x24 DUP3 ADD MSTORE PUSH32 0x43616E6E6F74206265207A65726F206164647265737300000000000000000000 PUSH1 0x44 DUP3 ADD MSTORE PUSH1 0x64 ADD PUSH2 0x8F7 JUMP JUMPDEST PUSH20 0xFFFFFFFFFFFFFFFFFFFFFFFFFFFFFFFFFFFFFFFF DUP2 AND PUSH2 0x33BE JUMPI PUSH1 0x40 MLOAD PUSH32 0x8C379A000000000000000000000000000000000000000000000000000000000 DUP2 MSTORE PUSH1 0x20 PUSH1 0x4 DUP3 ADD MSTORE PUSH1 0x16 PUSH1 0x24 DUP3 ADD MSTORE PUSH32 0x43616E6E6F74206265207A65726F206164647265737300000000000000000000 PUSH1 0x44 DUP3 ADD MSTORE PUSH1 0x64 ADD PUSH2 0x8F7 JUMP JUMPDEST PUSH1 0x3 DUP1 SLOAD PUSH20 0xFFFFFFFFFFFFFFFFFFFFFFFFFFFFFFFFFFFFFFFF DUP6 DUP2 AND PUSH32 0xFFFFFFFFFFFFFFFFFFFFFFFF0000000000000000000000000000000000000000 SWAP3 DUP4 AND DUP2 OR SWAP1 SWAP4 SSTORE PUSH1 0x4 DUP1 SLOAD DUP7 DUP4 AND SWAP1 DUP5 AND DUP2 OR SWAP1 SWAP2 SSTORE PUSH1 0x2 DUP1 SLOAD SWAP3 DUP7 AND SWAP3 SWAP1 SWAP4 AND DUP3 OR SWAP1 SWAP3 SSTORE PUSH1 0x40 DUP1 MLOAD SWAP4 DUP5 MSTORE PUSH1 0x20 DUP5 ADD SWAP3 SWAP1 SWAP3 MSTORE SWAP1 DUP3 ADD MSTORE PUSH32 0x3E945B7660001D46CFD5E729545F7F0B6C65BDEE54066A91C7ACAD703F1B731E SWAP1 PUSH1 0x60 ADD PUSH1 0x40 MLOAD DUP1 SWAP2 SUB SWAP1 LOG1 POP POP POP JUMP JUMPDEST PUSH1 0x1 SLOAD PUSH20 0xFFFFFFFFFFFFFFFFFFFFFFFFFFFFFFFFFFFFFFFF AND CALLER EQ PUSH2 0x34E8 JUMPI PUSH1 0x40 MLOAD PUSH32 0x8C379A000000000000000000000000000000000000000000000000000000000 DUP2 MSTORE PUSH1 0x20 PUSH1 0x4 DUP3 ADD DUP2 SWAP1 MSTORE PUSH1 0x24 DUP3 ADD MSTORE PUSH32 0x4F776E61626C653A2063616C6C6572206973206E6F7420746865206F776E6572 PUSH1 0x44 DUP3 ADD MSTORE PUSH1 0x64 ADD PUSH2 0x8F7 JUMP JUMPDEST DUP1 DUP3 GT ISZERO PUSH2 0x3552 JUMPI PUSH1 0x40 MLOAD PUSH32 0x8C379A000000000000000000000000000000000000000000000000000000000 DUP2 MSTORE PUSH1 0x20 PUSH1 0x4 DUP3 ADD MSTORE PUSH1 0x1B PUSH1 0x24 DUP3 ADD MSTORE PUSH32 0x6D696E5072696365206D757374206265203C206D617850726963650000000000 PUSH1 0x44 DUP3 ADD MSTORE PUSH1 0x64 ADD PUSH2 0x8F7 JUMP JUMPDEST PUSH1 0x9 SWAP2 SWAP1 SWAP2 SSTORE PUSH1 0x8 SSTORE JUMP JUMPDEST PUSH1 0x1 SLOAD PUSH20 0xFFFFFFFFFFFFFFFFFFFFFFFFFFFFFFFFFFFFFFFF AND CALLER EQ PUSH2 0x35DE JUMPI PUSH1 0x40 MLOAD PUSH32 0x8C379A000000000000000000000000000000000000000000000000000000000 DUP2 MSTORE PUSH1 0x20 PUSH1 0x4 DUP3 ADD DUP2 SWAP1 MSTORE PUSH1 0x24 DUP3 ADD MSTORE PUSH32 0x4F776E61626C653A2063616C6C6572206973206E6F7420746865206F776E6572 PUSH1 0x44 DUP3 ADD MSTORE PUSH1 0x64 ADD PUSH2 0x8F7 JUMP JUMPDEST PUSH20 0xFFFFFFFFFFFFFFFFFFFFFFFFFFFFFFFFFFFFFFFF DUP2 AND PUSH2 0x3681 JUMPI PUSH1 0x40 MLOAD PUSH32 0x8C379A000000000000000000000000000000000000000000000000000000000 DUP2 MSTORE PUSH1 0x20 PUSH1 0x4 DUP3 ADD MSTORE PUSH1 0x26 PUSH1 0x24 DUP3 ADD MSTORE PUSH32 0x4F776E61626C653A206E6577206F776E657220697320746865207A65726F2061 PUSH1 0x44 DUP3 ADD MSTORE PUSH32 0x6464726573730000000000000000000000000000000000000000000000000000 PUSH1 0x64 DUP3 ADD MSTORE PUSH1 0x84 ADD PUSH2 0x8F7 JUMP JUMPDEST PUSH1 0x1 SLOAD PUSH1 0x40 MLOAD PUSH20 0xFFFFFFFFFFFFFFFFFFFFFFFFFFFFFFFFFFFFFFFF DUP1 DUP5 AND SWAP3 AND SWAP1 PUSH32 0x8BE0079C531659141344CD1FD0A4F28419497F9722A3DAAFE3B4186F6B6457E0 SWAP1 PUSH1 0x0 SWAP1 LOG3 PUSH1 0x1 DUP1 SLOAD PUSH32 0xFFFFFFFFFFFFFFFFFFFFFFFF0000000000000000000000000000000000000000 AND PUSH20 0xFFFFFFFFFFFFFFFFFFFFFFFFFFFFFFFFFFFFFFFF SWAP3 SWAP1 SWAP3 AND SWAP2 SWAP1 SWAP2 OR SWAP1 SSTORE JUMP JUMPDEST PUSH1 0x1 SLOAD PUSH20 0xFFFFFFFFFFFFFFFFFFFFFFFFFFFFFFFFFFFFFFFF AND CALLER EQ PUSH2 0x3790 JUMPI PUSH1 0x40 MLOAD PUSH32 0x8C379A000000000000000000000000000000000000000000000000000000000 DUP2 MSTORE PUSH1 0x20 PUSH1 0x4 DUP3 ADD DUP2 SWAP1 MSTORE PUSH1 0x24 DUP3 ADD MSTORE PUSH32 0x4F776E61626C653A2063616C6C6572206973206E6F7420746865206F776E6572 PUSH1 0x44 DUP3 ADD MSTORE PUSH1 0x64 ADD PUSH2 0x8F7 JUMP JUMPDEST PUSH20 0xFFFFFFFFFFFFFFFFFFFFFFFFFFFFFFFFFFFFFFFF DUP2 AND PUSH2 0x380D JUMPI PUSH1 0x40 MLOAD PUSH32 0x8C379A000000000000000000000000000000000000000000000000000000000 DUP2 MSTORE PUSH1 0x20 PUSH1 0x4 DUP3 ADD MSTORE PUSH1 0x16 PUSH1 0x24 DUP3 ADD MSTORE PUSH32 0x43616E6E6F74206265207A65726F206164647265737300000000000000000000 PUSH1 0x44 DUP3 ADD MSTORE PUSH1 0x64 ADD PUSH2 0x8F7 JUMP JUMPDEST PUSH1 0x3 DUP1 SLOAD PUSH32 0xFFFFFFFFFFFFFFFFFFFFFFFF0000000000000000000000000000000000000000 AND PUSH20 0xFFFFFFFFFFFFFFFFFFFFFFFFFFFFFFFFFFFFFFFF SWAP3 SWAP1 SWAP3 AND SWAP2 SWAP1 SWAP2 OR SWAP1 SSTORE JUMP JUMPDEST PUSH1 0x40 MLOAD PUSH20 0xFFFFFFFFFFFFFFFFFFFFFFFFFFFFFFFFFFFFFFFF DUP4 AND PUSH1 0x24 DUP3 ADD MSTORE PUSH1 0x44 DUP2 ADD DUP3 SWAP1 MSTORE PUSH2 0x3928 SWAP1 DUP5 SWAP1 PUSH32 0xA9059CBB00000000000000000000000000000000000000000000000000000000 SWAP1 PUSH1 0x64 ADD JUMPDEST PUSH1 0x40 DUP1 MLOAD PUSH32 0xFFFFFFFFFFFFFFFFFFFFFFFFFFFFFFFFFFFFFFFFFFFFFFFFFFFFFFFFFFFFFFE0 DUP2 DUP5 SUB ADD DUP2 MSTORE SWAP2 SWAP1 MSTORE PUSH1 0x20 DUP2 ADD DUP1 MLOAD PUSH28 0xFFFFFFFFFFFFFFFFFFFFFFFFFFFFFFFFFFFFFFFFFFFFFFFFFFFFFFFF AND PUSH32 0xFFFFFFFF00000000000000000000000000000000000000000000000000000000 SWAP1 SWAP4 AND SWAP3 SWAP1 SWAP3 OR SWAP1 SWAP2 MSTORE PUSH2 0x3AD4 JUMP JUMPDEST POP POP POP JUMP JUMPDEST PUSH1 0x0 DUP4 DUP2 MSTORE PUSH1 0xC PUSH1 0x20 SWAP1 DUP2 MSTORE PUSH1 0x40 DUP1 DUP4 KECCAK256 PUSH1 0x1B ADD SLOAD DUP6 DUP5 MSTORE PUSH1 0xD SWAP1 SWAP3 MSTORE DUP3 KECCAK256 SLOAD PUSH4 0xFFFFFFFF SWAP2 DUP3 AND SWAP2 AND DUP3 PUSH2 0x3963 DUP6 PUSH1 0x1 PUSH2 0x4477 JUMP JUMPDEST PUSH2 0x396E SWAP1 PUSH1 0xA PUSH2 0x44F8 JUMP JUMPDEST PUSH2 0x3978 SWAP1 DUP4 PUSH2 0x46F9 JUMP JUMPDEST PUSH4 0xFFFFFFFF DUP1 DUP8 AND PUSH1 0x0 SWAP1 DUP2 MSTORE PUSH1 0xE PUSH1 0x20 MSTORE PUSH1 0x40 SWAP1 KECCAK256 SLOAD PUSH2 0x399A SWAP3 SWAP2 AND PUSH2 0x4477 JUMP JUMPDEST SWAP1 POP PUSH1 0x0 PUSH2 0x39A9 DUP7 PUSH1 0x1 PUSH2 0x4477 JUMP JUMPDEST PUSH2 0x39B4 SWAP1 PUSH1 0xA PUSH2 0x44F8 JUMP JUMPDEST PUSH2 0x39BE SWAP1 DUP6 PUSH2 0x46F9 JUMP JUMPDEST PUSH4 0xFFFFFFFF DUP1 DUP9 AND PUSH1 0x0 SWAP1 DUP2 MSTORE PUSH1 0xE PUSH1 0x20 MSTORE PUSH1 0x40 SWAP1 KECCAK256 SLOAD PUSH2 0x39E0 SWAP3 SWAP2 AND PUSH2 0x4477 JUMP JUMPDEST SWAP1 POP DUP1 PUSH4 0xFFFFFFFF AND DUP3 PUSH4 0xFFFFFFFF AND EQ ISZERO PUSH2 0x3A2C JUMPI PUSH1 0x0 DUP9 DUP2 MSTORE PUSH1 0xC PUSH1 0x20 DUP2 SWAP1 MSTORE PUSH1 0x40 SWAP1 SWAP2 KECCAK256 ADD PUSH4 0xFFFFFFFF DUP8 AND PUSH1 0x6 DUP2 LT PUSH2 0x3A1F JUMPI PUSH2 0x3A1F PUSH2 0x47A9 JUMP JUMPDEST ADD SLOAD SWAP5 POP POP POP POP POP PUSH2 0x130A JUMP JUMPDEST PUSH1 0x0 SWAP5 POP POP POP POP POP PUSH2 0x130A JUMP JUMPDEST PUSH1 0x40 MLOAD PUSH20 0xFFFFFFFFFFFFFFFFFFFFFFFFFFFFFFFFFFFFFFFF DUP1 DUP6 AND PUSH1 0x24 DUP4 ADD MSTORE DUP4 AND PUSH1 0x44 DUP3 ADD MSTORE PUSH1 0x64 DUP2 ADD DUP3 SWAP1 MSTORE PUSH2 0x3A97 SWAP1 DUP6 SWAP1 PUSH32 0x23B872DD00000000000000000000000000000000000000000000000000000000 SWAP1 PUSH1 0x84 ADD PUSH2 0x38A6 JUMP JUMPDEST POP POP POP POP JUMP JUMPDEST PUSH1 0x0 DUP4 DUP3 PUSH2 0x3AAC DUP3 PUSH1 0x1 PUSH2 0x445F JUMP JUMPDEST PUSH2 0x3AB6 SWAP2 SWAP1 PUSH2 0x4620 JUMP JUMPDEST PUSH2 0x3AC0 DUP5 DUP7 PUSH2 0x45E3 JUMP JUMPDEST PUSH2 0x3ACA SWAP2 SWAP1 PUSH2 0x45E3 JUMP JUMPDEST PUSH2 0x1307 SWAP2 SWAP1 PUSH2 0x449F JUMP JUMPDEST PUSH1 0x0 PUSH2 0x3B36 DUP3 PUSH1 0x40 MLOAD DUP1 PUSH1 0x40 ADD PUSH1 0x40 MSTORE DUP1 PUSH1 0x20 DUP2 MSTORE PUSH1 0x20 ADD PUSH32 0x5361666545524332303A206C6F772D6C6576656C2063616C6C206661696C6564 DUP2 MSTORE POP DUP6 PUSH20 0xFFFFFFFFFFFFFFFFFFFFFFFFFFFFFFFFFFFFFFFF AND PUSH2 0x3BE0 SWAP1 SWAP3 SWAP2 SWAP1 PUSH4 0xFFFFFFFF AND JUMP JUMPDEST DUP1 MLOAD SWAP1 SWAP2 POP ISZERO PUSH2 0x3928 JUMPI DUP1 DUP1 PUSH1 0x20 ADD SWAP1 MLOAD DUP2 ADD SWAP1 PUSH2 0x3B54 SWAP2 SWAP1 PUSH2 0x3FA3 JUMP JUMPDEST PUSH2 0x3928 JUMPI PUSH1 0x40 MLOAD PUSH32 0x8C379A000000000000000000000000000000000000000000000000000000000 DUP2 MSTORE PUSH1 0x20 PUSH1 0x4 DUP3 ADD MSTORE PUSH1 0x2A PUSH1 0x24 DUP3 ADD MSTORE PUSH32 0x5361666545524332303A204552433230206F7065726174696F6E20646964206E PUSH1 0x44 DUP3 ADD MSTORE PUSH32 0x6F74207375636365656400000000000000000000000000000000000000000000 PUSH1 0x64 DUP3 ADD MSTORE PUSH1 0x84 ADD PUSH2 0x8F7 JUMP JUMPDEST PUSH1 0x60 PUSH2 0x1307 DUP5 DUP5 PUSH1 0x0 DUP6 DUP6 DUP5 EXTCODESIZE PUSH2 0x3C53 JUMPI PUSH1 0x40 MLOAD PUSH32 0x8C379A000000000000000000000000000000000000000000000000000000000 DUP2 MSTORE PUSH1 0x20 PUSH1 0x4 DUP3 ADD MSTORE PUSH1 0x1D PUSH1 0x24 DUP3 ADD MSTORE PUSH32 0x416464726573733A2063616C6C20746F206E6F6E2D636F6E7472616374000000 PUSH1 0x44 DUP3 ADD MSTORE PUSH1 0x64 ADD PUSH2 0x8F7 JUMP JUMPDEST PUSH1 0x0 DUP1 DUP7 PUSH20 0xFFFFFFFFFFFFFFFFFFFFFFFFFFFFFFFFFFFFFFFF AND DUP6 DUP8 PUSH1 0x40 MLOAD PUSH2 0x3C7C SWAP2 SWAP1 PUSH2 0x428D JUMP JUMPDEST PUSH1 0x0 PUSH1 0x40 MLOAD DUP1 DUP4 SUB DUP2 DUP6 DUP8 GAS CALL SWAP3 POP POP POP RETURNDATASIZE DUP1 PUSH1 0x0 DUP2 EQ PUSH2 0x3CB9 JUMPI PUSH1 0x40 MLOAD SWAP2 POP PUSH1 0x1F NOT PUSH1 0x3F RETURNDATASIZE ADD AND DUP3 ADD PUSH1 0x40 MSTORE RETURNDATASIZE DUP3 MSTORE RETURNDATASIZE PUSH1 0x0 PUSH1 0x20 DUP5 ADD RETURNDATACOPY PUSH2 0x3CBE JUMP JUMPDEST PUSH1 0x60 SWAP2 POP JUMPDEST POP SWAP2 POP SWAP2 POP PUSH2 0x3CCE DUP3 DUP3 DUP7 PUSH2 0x3CD9 JUMP JUMPDEST SWAP8 SWAP7 POP POP POP POP POP POP POP JUMP JUMPDEST PUSH1 0x60 DUP4 ISZERO PUSH2 0x3CE8 JUMPI POP DUP2 PUSH2 0x130A JUMP JUMPDEST DUP3 MLOAD ISZERO PUSH2 0x3CF8 JUMPI DUP3 MLOAD DUP1 DUP5 PUSH1 0x20 ADD REVERT JUMPDEST DUP2 PUSH1 0x40 MLOAD PUSH32 0x8C379A000000000000000000000000000000000000000000000000000000000 DUP2 MSTORE PUSH1 0x4 ADD PUSH2 0x8F7 SWAP2 SWAP1 PUSH2 0x434B JUMP JUMPDEST PUSH1 0x40 DUP1 MLOAD PUSH2 0x1A0 DUP2 ADD SWAP1 SWAP2 MSTORE DUP1 PUSH1 0x0 DUP2 MSTORE PUSH1 0x20 ADD PUSH1 0x0 DUP2 MSTORE PUSH1 0x20 ADD PUSH1 0x0 DUP2 MSTORE PUSH1 0x20 ADD PUSH1 0x0 DUP2 MSTORE PUSH1 0x20 ADD PUSH1 0x0 DUP2 MSTORE PUSH1 0x20 ADD PUSH2 0x3D64 PUSH2 0x3DEB JUMP JUMPDEST DUP2 MSTORE PUSH1 0x20 ADD PUSH1 0x0 DUP2 MSTORE PUSH1 0x20 ADD PUSH2 0x3D78 PUSH2 0x3DEB JUMP JUMPDEST DUP2 MSTORE PUSH1 0x20 ADD PUSH2 0x3D85 PUSH2 0x3DEB JUMP JUMPDEST DUP2 MSTORE PUSH1 0x20 ADD PUSH1 0x0 DUP2 MSTORE PUSH1 0x20 ADD PUSH1 0x0 DUP2 MSTORE PUSH1 0x20 ADD PUSH1 0x0 DUP2 MSTORE PUSH1 0x20 ADD PUSH1 0x0 PUSH4 0xFFFFFFFF AND DUP2 MSTORE POP SWAP1 JUMP JUMPDEST DUP3 PUSH1 0x6 DUP2 ADD SWAP3 DUP3 ISZERO PUSH2 0x3DDB JUMPI SWAP2 PUSH1 0x20 MUL DUP3 ADD JUMPDEST DUP3 DUP2 GT ISZERO PUSH2 0x3DDB JUMPI DUP3 MLOAD DUP3 SSTORE SWAP2 PUSH1 0x20 ADD SWAP2 SWAP1 PUSH1 0x1 ADD SWAP1 PUSH2 0x3DC0 JUMP JUMPDEST POP PUSH2 0x3DE7 SWAP3 SWAP2 POP PUSH2 0x3E09 JUMP JUMPDEST POP SWAP1 JUMP JUMPDEST PUSH1 0x40 MLOAD DUP1 PUSH1 0xC0 ADD PUSH1 0x40 MSTORE DUP1 PUSH1 0x6 SWAP1 PUSH1 0x20 DUP3 MUL DUP1 CALLDATASIZE DUP4 CALLDATACOPY POP SWAP2 SWAP3 SWAP2 POP POP JUMP JUMPDEST JUMPDEST DUP1 DUP3 GT ISZERO PUSH2 0x3DE7 JUMPI PUSH1 0x0 DUP2 SSTORE PUSH1 0x1 ADD PUSH2 0x3E0A JUMP JUMPDEST DUP1 CALLDATALOAD PUSH20 0xFFFFFFFFFFFFFFFFFFFFFFFFFFFFFFFFFFFFFFFF DUP2 AND DUP2 EQ PUSH2 0x3E42 JUMPI PUSH1 0x0 DUP1 REVERT JUMPDEST SWAP2 SWAP1 POP JUMP JUMPDEST PUSH1 0x0 DUP1 DUP4 PUSH1 0x1F DUP5 ADD SLT PUSH2 0x3E59 JUMPI PUSH1 0x0 DUP1 REVERT JUMPDEST POP DUP2 CALLDATALOAD PUSH8 0xFFFFFFFFFFFFFFFF DUP2 GT ISZERO PUSH2 0x3E71 JUMPI PUSH1 0x0 DUP1 REVERT JUMPDEST PUSH1 0x20 DUP4 ADD SWAP2 POP DUP4 PUSH1 0x20 DUP3 PUSH1 0x5 SHL DUP6 ADD ADD GT ISZERO PUSH2 0x20D3 JUMPI PUSH1 0x0 DUP1 REVERT JUMPDEST DUP1 CALLDATALOAD PUSH4 0xFFFFFFFF DUP2 AND DUP2 EQ PUSH2 0x3E42 JUMPI PUSH1 0x0 DUP1 REVERT JUMPDEST PUSH1 0x0 PUSH1 0x20 DUP3 DUP5 SUB SLT ISZERO PUSH2 0x3EB2 JUMPI PUSH1 0x0 DUP1 REVERT JUMPDEST PUSH2 0x130A DUP3 PUSH2 0x3E1E JUMP JUMPDEST PUSH1 0x0 DUP1 PUSH1 0x0 PUSH1 0x60 DUP5 DUP7 SUB SLT ISZERO PUSH2 0x3ED0 JUMPI PUSH1 0x0 DUP1 REVERT JUMPDEST PUSH2 0x3ED9 DUP5 PUSH2 0x3E1E JUMP JUMPDEST SWAP3 POP PUSH2 0x3EE7 PUSH1 0x20 DUP6 ADD PUSH2 0x3E1E JUMP JUMPDEST SWAP2 POP PUSH2 0x3EF5 PUSH1 0x40 DUP6 ADD PUSH2 0x3E1E JUMP JUMPDEST SWAP1 POP SWAP3 POP SWAP3 POP SWAP3 JUMP JUMPDEST PUSH1 0x0 DUP1 PUSH1 0x40 DUP4 DUP6 SUB SLT ISZERO PUSH2 0x3F11 JUMPI PUSH1 0x0 DUP1 REVERT JUMPDEST PUSH2 0x3F1A DUP4 PUSH2 0x3E1E JUMP JUMPDEST SWAP5 PUSH1 0x20 SWAP4 SWAP1 SWAP4 ADD CALLDATALOAD SWAP4 POP POP POP JUMP JUMPDEST PUSH1 0x0 DUP1 PUSH1 0x0 DUP1 PUSH1 0x80 DUP6 DUP8 SUB SLT ISZERO PUSH2 0x3F3E JUMPI PUSH1 0x0 DUP1 REVERT JUMPDEST PUSH2 0x3F47 DUP6 PUSH2 0x3E1E JUMP JUMPDEST SWAP7 PUSH1 0x20 DUP7 ADD CALLDATALOAD SWAP7 POP PUSH1 0x40 DUP7 ADD CALLDATALOAD SWAP6 PUSH1 0x60 ADD CALLDATALOAD SWAP5 POP SWAP3 POP POP POP JUMP JUMPDEST PUSH1 0x0 DUP1 PUSH1 0x20 DUP4 DUP6 SUB SLT ISZERO PUSH2 0x3F74 JUMPI PUSH1 0x0 DUP1 REVERT JUMPDEST DUP3 CALLDATALOAD PUSH8 0xFFFFFFFFFFFFFFFF DUP2 GT ISZERO PUSH2 0x3F8B JUMPI PUSH1 0x0 DUP1 REVERT JUMPDEST PUSH2 0x3F97 DUP6 DUP3 DUP7 ADD PUSH2 0x3E47 JUMP JUMPDEST SWAP1 SWAP7 SWAP1 SWAP6 POP SWAP4 POP POP POP POP JUMP JUMPDEST PUSH1 0x0 PUSH1 0x20 DUP3 DUP5 SUB SLT ISZERO PUSH2 0x3FB5 JUMPI PUSH1 0x0 DUP1 REVERT JUMPDEST DUP2 MLOAD PUSH2 0x130A DUP2 PUSH2 0x4807 JUMP JUMPDEST PUSH1 0x0 PUSH1 0x20 DUP3 DUP5 SUB SLT ISZERO PUSH2 0x3FD2 JUMPI PUSH1 0x0 DUP1 REVERT JUMPDEST POP CALLDATALOAD SWAP2 SWAP1 POP JUMP JUMPDEST PUSH1 0x0 DUP1 PUSH1 0x0 DUP1 PUSH1 0x0 PUSH1 0x60 DUP7 DUP9 SUB SLT ISZERO PUSH2 0x3FF1 JUMPI PUSH1 0x0 DUP1 REVERT JUMPDEST DUP6 CALLDATALOAD SWAP5 POP PUSH1 0x20 DUP7 ADD CALLDATALOAD PUSH8 0xFFFFFFFFFFFFFFFF DUP1 DUP3 GT ISZERO PUSH2 0x4010 JUMPI PUSH1 0x0 DUP1 REVERT JUMPDEST PUSH2 0x401C DUP10 DUP4 DUP11 ADD PUSH2 0x3E47 JUMP JUMPDEST SWAP1 SWAP7 POP SWAP5 POP PUSH1 0x40 DUP9 ADD CALLDATALOAD SWAP2 POP DUP1 DUP3 GT ISZERO PUSH2 0x4035 JUMPI PUSH1 0x0 DUP1 REVERT JUMPDEST POP PUSH2 0x4042 DUP9 DUP3 DUP10 ADD PUSH2 0x3E47 JUMP JUMPDEST SWAP7 SWAP10 SWAP6 SWAP9 POP SWAP4 SWAP7 POP SWAP3 SWAP5 SWAP4 SWAP3 POP POP POP JUMP JUMPDEST PUSH1 0x0 DUP1 PUSH1 0x0 PUSH1 0x40 DUP5 DUP7 SUB SLT ISZERO PUSH2 0x4068 JUMPI PUSH1 0x0 DUP1 REVERT JUMPDEST DUP4 CALLDATALOAD SWAP3 POP PUSH1 0x20 DUP5 ADD CALLDATALOAD PUSH8 0xFFFFFFFFFFFFFFFF DUP2 GT ISZERO PUSH2 0x4086 JUMPI PUSH1 0x0 DUP1 REVERT JUMPDEST PUSH2 0x4092 DUP7 DUP3 DUP8 ADD PUSH2 0x3E47 JUMP JUMPDEST SWAP5 SWAP8 SWAP1 SWAP7 POP SWAP4 SWAP5 POP POP POP POP JUMP JUMPDEST PUSH1 0x0 DUP1 PUSH1 0x0 PUSH1 0x60 DUP5 DUP7 SUB SLT ISZERO PUSH2 0x40B4 JUMPI PUSH1 0x0 DUP1 REVERT JUMPDEST DUP4 CALLDATALOAD SWAP3 POP PUSH1 0x20 DUP5 ADD CALLDATALOAD SWAP2 POP PUSH1 0x40 DUP5 ADD CALLDATALOAD PUSH2 0x40CD DUP2 PUSH2 0x4807 JUMP JUMPDEST DUP1 SWAP2 POP POP SWAP3 POP SWAP3 POP SWAP3 JUMP JUMPDEST PUSH1 0x0 DUP1 PUSH1 0x40 DUP4 DUP6 SUB SLT ISZERO PUSH2 0x40EB JUMPI PUSH1 0x0 DUP1 REVERT JUMPDEST POP POP DUP1 CALLDATALOAD SWAP3 PUSH1 0x20 SWAP1 SWAP2 ADD CALLDATALOAD SWAP2 POP JUMP JUMPDEST PUSH1 0x0 DUP1 PUSH1 0x0 PUSH1 0x60 DUP5 DUP7 SUB SLT ISZERO PUSH2 0x410F JUMPI PUSH1 0x0 DUP1 REVERT JUMPDEST POP POP DUP2 CALLDATALOAD SWAP4 PUSH1 0x20 DUP4 ADD CALLDATALOAD SWAP4 POP PUSH1 0x40 SWAP1 SWAP3 ADD CALLDATALOAD SWAP2 SWAP1 POP JUMP JUMPDEST PUSH1 0x0 DUP1 PUSH1 0x0 DUP1 PUSH1 0x0 PUSH2 0x140 DUP7 DUP9 SUB SLT ISZERO PUSH2 0x413F JUMPI PUSH1 0x0 DUP1 REVERT JUMPDEST DUP6 CALLDATALOAD SWAP5 POP PUSH1 0x20 DUP7 ADD CALLDATALOAD SWAP4 POP PUSH1 0x40 DUP7 ADD CALLDATALOAD SWAP3 POP PUSH2 0x120 DUP7 ADD DUP8 DUP2 GT ISZERO PUSH2 0x4163 JUMPI PUSH1 0x0 DUP1 REVERT JUMPDEST SWAP5 SWAP8 SWAP4 SWAP7 POP SWAP2 SWAP5 PUSH1 0x60 ADD SWAP4 CALLDATALOAD SWAP3 SWAP2 POP POP JUMP JUMPDEST PUSH1 0x0 DUP1 PUSH1 0x0 PUSH1 0x60 DUP5 DUP7 SUB SLT ISZERO PUSH2 0x418A JUMPI PUSH1 0x0 DUP1 REVERT JUMPDEST DUP4 CALLDATALOAD SWAP3 POP PUSH1 0x20 DUP5 ADD CALLDATALOAD SWAP2 POP PUSH2 0x3EF5 PUSH1 0x40 DUP6 ADD PUSH2 0x3E8C JUMP JUMPDEST PUSH1 0x0 PUSH1 0x20 DUP3 DUP5 SUB SLT ISZERO PUSH2 0x41B3 JUMPI PUSH1 0x0 DUP1 REVERT JUMPDEST PUSH2 0x130A DUP3 PUSH2 0x3E8C JUMP JUMPDEST PUSH1 0x0 DUP2 MLOAD DUP1 DUP5 MSTORE PUSH1 0x20 DUP1 DUP6 ADD SWAP5 POP DUP1 DUP5 ADD PUSH1 0x0 JUMPDEST DUP4 DUP2 LT ISZERO PUSH2 0x41EE JUMPI DUP2 MLOAD ISZERO ISZERO DUP8 MSTORE SWAP6 DUP3 ADD SWAP6 SWAP1 DUP3 ADD SWAP1 PUSH1 0x1 ADD PUSH2 0x41D0 JUMP JUMPDEST POP SWAP5 SWAP6 SWAP5 POP POP POP POP POP JUMP JUMPDEST DUP1 PUSH1 0x0 JUMPDEST PUSH1 0x6 DUP2 LT ISZERO PUSH2 0x3A97 JUMPI DUP2 MLOAD DUP5 MSTORE PUSH1 0x20 SWAP4 DUP5 ADD SWAP4 SWAP1 SWAP2 ADD SWAP1 PUSH1 0x1 ADD PUSH2 0x41FD JUMP JUMPDEST PUSH1 0x0 DUP2 MLOAD DUP1 DUP5 MSTORE PUSH1 0x20 DUP1 DUP6 ADD SWAP5 POP DUP1 DUP5 ADD PUSH1 0x0 JUMPDEST DUP4 DUP2 LT ISZERO PUSH2 0x41EE JUMPI DUP2 MLOAD PUSH4 0xFFFFFFFF AND DUP8 MSTORE SWAP6 DUP3 ADD SWAP6 SWAP1 DUP3 ADD SWAP1 PUSH1 0x1 ADD PUSH2 0x4230 JUMP JUMPDEST PUSH1 0x4 DUP2 LT PUSH2 0x4289 JUMPI PUSH32 0x4E487B7100000000000000000000000000000000000000000000000000000000 PUSH1 0x0 MSTORE PUSH1 0x21 PUSH1 0x4 MSTORE PUSH1 0x24 PUSH1 0x0 REVERT JUMPDEST SWAP1 MSTORE JUMP JUMPDEST PUSH1 0x0 DUP3 MLOAD PUSH2 0x429F DUP2 DUP5 PUSH1 0x20 DUP8 ADD PUSH2 0x465C JUMP JUMPDEST SWAP2 SWAP1 SWAP2 ADD SWAP3 SWAP2 POP POP JUMP JUMPDEST PUSH1 0x80 DUP1 DUP3 MSTORE DUP6 MLOAD SWAP1 DUP3 ADD DUP2 SWAP1 MSTORE PUSH1 0x0 SWAP1 PUSH1 0x20 SWAP1 PUSH1 0xA0 DUP5 ADD SWAP1 DUP3 DUP10 ADD DUP5 JUMPDEST DUP3 DUP2 LT ISZERO PUSH2 0x42E2 JUMPI DUP2 MLOAD DUP5 MSTORE SWAP3 DUP5 ADD SWAP3 SWAP1 DUP5 ADD SWAP1 PUSH1 0x1 ADD PUSH2 0x42C6 JUMP JUMPDEST POP POP POP DUP4 DUP2 SUB DUP3 DUP6 ADD MSTORE PUSH2 0x42F6 DUP2 DUP9 PUSH2 0x421C JUMP JUMPDEST SWAP2 POP POP DUP3 DUP2 SUB PUSH1 0x40 DUP5 ADD MSTORE PUSH2 0x430B DUP2 DUP7 PUSH2 0x41BC JUMP JUMPDEST SWAP2 POP POP DUP3 PUSH1 0x60 DUP4 ADD MSTORE SWAP6 SWAP5 POP POP POP POP POP JUMP JUMPDEST PUSH1 0x40 DUP2 MSTORE PUSH1 0x0 PUSH2 0x4330 PUSH1 0x40 DUP4 ADD DUP6 PUSH2 0x421C JUMP JUMPDEST DUP3 DUP2 SUB PUSH1 0x20 DUP5 ADD MSTORE PUSH2 0x4342 DUP2 DUP6 PUSH2 0x41BC JUMP JUMPDEST SWAP6 SWAP5 POP POP POP POP POP JUMP JUMPDEST PUSH1 0x20 DUP2 MSTORE PUSH1 0x0 DUP3 MLOAD DUP1 PUSH1 0x20 DUP5 ADD MSTORE PUSH2 0x436A DUP2 PUSH1 0x40 DUP6 ADD PUSH1 0x20 DUP8 ADD PUSH2 0x465C JUMP JUMPDEST PUSH1 0x1F ADD PUSH32 0xFFFFFFFFFFFFFFFFFFFFFFFFFFFFFFFFFFFFFFFFFFFFFFFFFFFFFFFFFFFFFFE0 AND SWAP2 SWAP1 SWAP2 ADD PUSH1 0x40 ADD SWAP3 SWAP2 POP POP JUMP JUMPDEST PUSH1 0x0 PUSH2 0x380 DUP3 ADD SWAP1 POP PUSH2 0x43B0 DUP3 DUP5 MLOAD PUSH2 0x4252 JUMP JUMPDEST PUSH1 0x20 DUP4 ADD MLOAD PUSH1 0x20 DUP4 ADD MSTORE PUSH1 0x40 DUP4 ADD MLOAD PUSH1 0x40 DUP4 ADD MSTORE PUSH1 0x60 DUP4 ADD MLOAD PUSH1 0x60 DUP4 ADD MSTORE PUSH1 0x80 DUP4 ADD MLOAD PUSH1 0x80 DUP4 ADD MSTORE PUSH1 0xA0 DUP4 ADD MLOAD PUSH2 0x43EA PUSH1 0xA0 DUP5 ADD DUP3 PUSH2 0x41F9 JUMP JUMPDEST POP PUSH1 0xC0 DUP4 ADD MLOAD PUSH2 0x160 DUP2 DUP2 DUP6 ADD MSTORE PUSH1 0xE0 DUP6 ADD MLOAD SWAP2 POP PUSH2 0x180 PUSH2 0x440E DUP2 DUP7 ADD DUP5 PUSH2 0x41F9 JUMP JUMPDEST PUSH2 0x100 DUP7 ADD MLOAD SWAP3 POP PUSH2 0x4424 PUSH2 0x240 DUP7 ADD DUP5 PUSH2 0x41F9 JUMP JUMPDEST PUSH2 0x120 DUP7 ADD MLOAD PUSH2 0x300 DUP7 ADD MSTORE PUSH2 0x140 DUP7 ADD MLOAD PUSH2 0x320 DUP7 ADD MSTORE SWAP1 DUP6 ADD MLOAD PUSH2 0x340 DUP6 ADD MSTORE DUP5 ADD MLOAD PUSH4 0xFFFFFFFF DUP2 AND PUSH2 0x360 DUP6 ADD MSTORE SWAP1 POP POP SWAP3 SWAP2 POP POP JUMP JUMPDEST PUSH1 0x0 DUP3 NOT DUP3 GT ISZERO PUSH2 0x4472 JUMPI PUSH2 0x4472 PUSH2 0x471C JUMP JUMPDEST POP ADD SWAP1 JUMP JUMPDEST PUSH1 0x0 PUSH4 0xFFFFFFFF DUP1 DUP4 AND DUP2 DUP6 AND DUP1 DUP4 SUB DUP3 GT ISZERO PUSH2 0x4496 JUMPI PUSH2 0x4496 PUSH2 0x471C JUMP JUMPDEST ADD SWAP5 SWAP4 POP POP POP POP JUMP JUMPDEST PUSH1 0x0 DUP3 PUSH2 0x44AE JUMPI PUSH2 0x44AE PUSH2 0x474B JUMP JUMPDEST POP DIV SWAP1 JUMP JUMPDEST PUSH1 0x1 DUP2 DUP2 JUMPDEST DUP1 DUP6 GT ISZERO PUSH2 0x44F0 JUMPI DUP2 PUSH4 0xFFFFFFFF DIV DUP3 GT ISZERO PUSH2 0x44D6 JUMPI PUSH2 0x44D6 PUSH2 0x471C JUMP JUMPDEST DUP1 DUP6 AND ISZERO PUSH2 0x44E3 JUMPI SWAP2 DUP2 MUL SWAP2 JUMPDEST SWAP4 DUP5 SHR SWAP4 SWAP1 DUP1 MUL SWAP1 PUSH2 0x44B8 JUMP JUMPDEST POP SWAP3 POP SWAP3 SWAP1 POP JUMP JUMPDEST PUSH1 0x0 PUSH4 0xFFFFFFFF PUSH2 0x450D DUP2 DUP6 AND DUP3 DUP6 AND PUSH2 0x4515 JUMP JUMPDEST SWAP5 SWAP4 POP POP POP POP JUMP JUMPDEST PUSH1 0x0 DUP3 PUSH2 0x4524 JUMPI POP PUSH1 0x1 PUSH2 0x45DD JUMP JUMPDEST DUP2 PUSH2 0x4531 JUMPI POP PUSH1 0x0 PUSH2 0x45DD JUMP JUMPDEST DUP2 PUSH1 0x1 DUP2 EQ PUSH2 0x4547 JUMPI PUSH1 0x2 DUP2 EQ PUSH2 0x4551 JUMPI PUSH2 0x4582 JUMP JUMPDEST PUSH1 0x1 SWAP2 POP POP PUSH2 0x45DD JUMP JUMPDEST PUSH1 0xFF DUP5 GT ISZERO PUSH2 0x4562 JUMPI PUSH2 0x4562 PUSH2 0x471C JUMP JUMPDEST PUSH1 0x1 DUP5 SHL SWAP2 POP PUSH4 0xFFFFFFFF DUP3 GT ISZERO PUSH2 0x457C JUMPI PUSH2 0x457C PUSH2 0x471C JUMP JUMPDEST POP PUSH2 0x45DD JUMP JUMPDEST POP PUSH1 0x20 DUP4 LT PUSH2 0x133 DUP4 LT AND PUSH1 0x4E DUP5 LT PUSH1 0xB DUP5 LT AND OR ISZERO PUSH2 0x45B9 JUMPI POP DUP2 DUP2 EXP PUSH4 0xFFFFFFFF DUP2 GT ISZERO PUSH2 0x45B4 JUMPI PUSH2 0x45B4 PUSH2 0x471C JUMP JUMPDEST PUSH2 0x45DD JUMP JUMPDEST PUSH2 0x45C3 DUP4 DUP4 PUSH2 0x44B3 JUMP JUMPDEST DUP1 PUSH4 0xFFFFFFFF DIV DUP3 GT ISZERO PUSH2 0x45D9 JUMPI PUSH2 0x45D9 PUSH2 0x471C JUMP JUMPDEST MUL SWAP1 POP JUMPDEST SWAP3 SWAP2 POP POP JUMP JUMPDEST PUSH1 0x0 DUP2 PUSH32 0xFFFFFFFFFFFFFFFFFFFFFFFFFFFFFFFFFFFFFFFFFFFFFFFFFFFFFFFFFFFFFFFF DIV DUP4 GT DUP3 ISZERO ISZERO AND ISZERO PUSH2 0x461B JUMPI PUSH2 0x461B PUSH2 0x471C JUMP JUMPDEST POP MUL SWAP1 JUMP JUMPDEST PUSH1 0x0 DUP3 DUP3 LT ISZERO PUSH2 0x4632 JUMPI PUSH2 0x4632 PUSH2 0x471C JUMP JUMPDEST POP SUB SWAP1 JUMP JUMPDEST PUSH1 0x0 PUSH4 0xFFFFFFFF DUP4 DUP2 AND SWAP1 DUP4 AND DUP2 DUP2 LT ISZERO PUSH2 0x4654 JUMPI PUSH2 0x4654 PUSH2 0x471C JUMP JUMPDEST SUB SWAP4 SWAP3 POP POP POP JUMP JUMPDEST PUSH1 0x0 JUMPDEST DUP4 DUP2 LT ISZERO PUSH2 0x4677 JUMPI DUP2 DUP2 ADD MLOAD DUP4 DUP3 ADD MSTORE PUSH1 0x20 ADD PUSH2 0x465F JUMP JUMPDEST DUP4 DUP2 GT ISZERO PUSH2 0x3A97 JUMPI POP POP PUSH1 0x0 SWAP2 ADD MSTORE JUMP JUMPDEST PUSH1 0x0 PUSH32 0xFFFFFFFFFFFFFFFFFFFFFFFFFFFFFFFFFFFFFFFFFFFFFFFFFFFFFFFFFFFFFFFF DUP3 EQ ISZERO PUSH2 0x46BA JUMPI PUSH2 0x46BA PUSH2 0x471C JUMP JUMPDEST POP PUSH1 0x1 ADD SWAP1 JUMP JUMPDEST PUSH1 0x0 PUSH4 0xFFFFFFFF DUP1 DUP4 AND DUP2 DUP2 EQ ISZERO PUSH2 0x46DB JUMPI PUSH2 0x46DB PUSH2 0x471C JUMP JUMPDEST PUSH1 0x1 ADD SWAP4 SWAP3 POP POP POP JUMP JUMPDEST PUSH1 0x0 DUP3 PUSH2 0x46F4 JUMPI PUSH2 0x46F4 PUSH2 0x474B JUMP JUMPDEST POP MOD SWAP1 JUMP JUMPDEST PUSH1 0x0 PUSH4 0xFFFFFFFF DUP1 DUP5 AND DUP1 PUSH2 0x4710 JUMPI PUSH2 0x4710 PUSH2 0x474B JUMP JUMPDEST SWAP3 AND SWAP2 SWAP1 SWAP2 MOD SWAP3 SWAP2 POP POP JUMP JUMPDEST PUSH32 0x4E487B7100000000000000000000000000000000000000000000000000000000 PUSH1 0x0 MSTORE PUSH1 0x11 PUSH1 0x4 MSTORE PUSH1 0x24 PUSH1 0x0 REVERT JUMPDEST PUSH32 0x4E487B7100000000000000000000000000000000000000000000000000000000 PUSH1 0x0 MSTORE PUSH1 0x12 PUSH1 0x4 MSTORE PUSH1 0x24 PUSH1 0x0 REVERT JUMPDEST PUSH32 0x4E487B7100000000000000000000000000000000000000000000000000000000 PUSH1 0x0 MSTORE PUSH1 0x21 PUSH1 0x4 MSTORE PUSH1 0x24 PUSH1 0x0 REVERT JUMPDEST PUSH32 0x4E487B7100000000000000000000000000000000000000000000000000000000 PUSH1 0x0 MSTORE PUSH1 0x32 PUSH1 0x4 MSTORE PUSH1 0x24 PUSH1 0x0 REVERT JUMPDEST PUSH32 0x4E487B7100000000000000000000000000000000000000000000000000000000 PUSH1 0x0 MSTORE PUSH1 0x41 PUSH1 0x4 MSTORE PUSH1 0x24 PUSH1 0x0 REVERT JUMPDEST DUP1 ISZERO ISZERO DUP2 EQ PUSH2 0x4815 JUMPI PUSH1 0x0 DUP1 REVERT JUMPDEST POP JUMP INVALID LOG2 PUSH5 0x6970667358 0x22 SLT KECCAK256 0xB0 SWAP9 0xC1 LOG3 0xD6 PUSH6 0xD9A30E5542F8 PUSH21 0x841CBAD05FC086E52012A2407CADD019271D906473 PUSH16 0x6C634300080700330000000000000000 "
		},
		"gasEstimates": {
			"creation": {
				"codeDepositCost": "3702000",
				"executionCost": "infinite",
				"totalCost": "infinite"
			},
			"external": {
				"MAX_LENGTH_LOTTERY()": "284",
				"MAX_TREASURY_FEE()": "261",
				"MIN_DISCOUNT_DIVISOR()": "306",
				"MIN_LENGTH_LOTTERY()": "264",
				"buyTickets(uint256,uint32[])": "infinite",
				"cakeToken()": "2414",
				"calculateTotalPriceForBulkTickets(uint256,uint256,uint256)": "infinite",
				"claimTickets(uint256,uint256[],uint32[])": "infinite",
				"closeLottery(uint256)": "107381",
				"currentLotteryId()": "2362",
				"currentTicketId()": "2363",
				"drawFinalNumberAndMakeLotteryClaimable(uint256,bytes32,bool)": "infinite",
				"injectFunds(uint256,uint256)": "infinite",
				"injectorAddress()": "2403",
				"maxNumberTicketsPerBuyOrClaim()": "2386",
				"maxPriceTicketInCake()": "2364",
				"minPriceTicketInCake()": "2363",
				"numbersCount()": "2402",
				"operatorAddress()": "2404",
				"owner()": "2419",
				"pendingInjectionNextLottery()": "2408",
				"recoverWrongTokens(address,uint256)": "infinite",
				"renounceOwnership()": "30212",
				"setMaxNumberTicketsPerBuy(uint256)": "24559",
				"setMinAndMaxTicketPriceInCake(uint256,uint256)": "46680",
				"setNumbersCount(uint32)": "33241",
				"setOperatorAddresses(address)": "26793",
				"setOperatorAndTreasuryAndInjectorAddresses(address,address,address)": "infinite",
				"startLottery(uint256,uint256,uint256,uint256[6],uint256)": "infinite",
				"transferOwnership(address)": "30413",
				"treasuryAddress()": "2358",
				"viewCurrentLotteryId()": "2338",
				"viewLottery(uint256)": "infinite",
				"viewNumbersAndStatusesForTicketIds(uint256[])": "infinite",
				"viewRewardsForTicketId(uint256,uint256,uint32)": "infinite",
				"viewUserInfoForLotteryId(address,uint256,uint256,uint256)": "infinite"
			},
			"internal": {
				"_calculateRewardsForTicketId(uint256,uint256,uint32)": "infinite",
				"_calculateTotalPriceForBulkTickets(uint256,uint256,uint256)": "infinite",
				"_isContract(address)": "infinite"
			}
		},
		"methodIdentifiers": {
			"MAX_LENGTH_LOTTERY()": "db19da0d",
			"MAX_TREASURY_FEE()": "f2b3c809",
			"MIN_DISCOUNT_DIVISOR()": "7cb583bd",
			"MIN_LENGTH_LOTTERY()": "07fb5a9c",
			"buyTickets(uint256,uint32[])": "88303dbd",
			"cakeToken()": "8904bf2f",
			"calculateTotalPriceForBulkTickets(uint256,uint256,uint256)": "c4937ab9",
			"claimTickets(uint256,uint256[],uint32[])": "c914914f",
			"closeLottery(uint256)": "9d8ca531",
			"currentLotteryId()": "6be4097c",
			"currentTicketId()": "686465b8",
			"drawFinalNumberAndMakeLotteryClaimable(uint256,bytes32,bool)": "2385860b",
			"injectFunds(uint256,uint256)": "471aeab4",
			"injectorAddress()": "9c384653",
			"maxNumberTicketsPerBuyOrClaim()": "1fe86c6b",
			"maxPriceTicketInCake()": "1f73664b",
			"minPriceTicketInCake()": "31feb565",
			"numbersCount()": "d86b2982",
			"operatorAddress()": "127effb2",
			"owner()": "8da5cb5b",
			"pendingInjectionNextLottery()": "12a9769d",
			"recoverWrongTokens(address,uint256)": "3f138d4b",
			"renounceOwnership()": "715018a6",
			"setMaxNumberTicketsPerBuy(uint256)": "6b873788",
			"setMinAndMaxTicketPriceInCake(uint256,uint256)": "da7429f8",
			"setNumbersCount(uint32)": "20211a30",
			"setOperatorAddresses(address)": "fe014066",
			"setOperatorAndTreasuryAndInjectorAddresses(address,address,address)": "da4ca039",
			"startLottery(uint256,uint256,uint256,uint256[6],uint256)": "b1829b82",
			"transferOwnership(address)": "f2fde38b",
			"treasuryAddress()": "c5f956af",
			"viewCurrentLotteryId()": "80a06160",
			"viewLottery(uint256)": "2423807a",
			"viewNumbersAndStatusesForTicketIds(uint256[])": "8fc3539a",
			"viewRewardsForTicketId(uint256,uint256,uint32)": "2e530cae",
			"viewUserInfoForLotteryId(address,uint256,uint256,uint256)": "05531eeb"
		}
	},
	"abi": [
		{
			"inputs": [
				{
					"internalType": "address",
					"name": "_cakeTokenAddress",
					"type": "address"
				}
			],
			"stateMutability": "nonpayable",
			"type": "constructor"
		},
		{
			"anonymous": false,
			"inputs": [
				{
					"indexed": false,
					"internalType": "address",
					"name": "token",
					"type": "address"
				},
				{
					"indexed": false,
					"internalType": "uint256",
					"name": "amount",
					"type": "uint256"
				}
			],
			"name": "AdminTokenRecovery",
			"type": "event"
		},
		{
			"anonymous": false,
			"inputs": [
				{
					"indexed": true,
					"internalType": "uint256",
					"name": "lotteryId",
					"type": "uint256"
				},
				{
					"indexed": false,
					"internalType": "uint256",
					"name": "firstTicketIdNextLottery",
					"type": "uint256"
				}
			],
			"name": "LotteryClose",
			"type": "event"
		},
		{
			"anonymous": false,
			"inputs": [
				{
					"indexed": true,
					"internalType": "uint256",
					"name": "lotteryId",
					"type": "uint256"
				},
				{
					"indexed": false,
					"internalType": "uint256",
					"name": "injectedAmount",
					"type": "uint256"
				}
			],
			"name": "LotteryInjection",
			"type": "event"
		},
		{
			"anonymous": false,
			"inputs": [
				{
					"indexed": true,
					"internalType": "uint256",
					"name": "lotteryId",
					"type": "uint256"
				},
				{
					"indexed": false,
					"internalType": "uint256",
					"name": "finalNumber",
					"type": "uint256"
				},
				{
					"indexed": false,
					"internalType": "uint256",
					"name": "countWinningTickets",
					"type": "uint256"
				}
			],
			"name": "LotteryNumberDrawn",
			"type": "event"
		},
		{
			"anonymous": false,
			"inputs": [
				{
					"indexed": true,
					"internalType": "uint256",
					"name": "lotteryId",
					"type": "uint256"
				},
				{
					"indexed": false,
					"internalType": "uint256",
					"name": "startTime",
					"type": "uint256"
				},
				{
					"indexed": false,
					"internalType": "uint256",
					"name": "endTime",
					"type": "uint256"
				},
				{
					"indexed": false,
					"internalType": "uint256",
					"name": "priceTicketInCake",
					"type": "uint256"
				},
				{
					"indexed": false,
					"internalType": "uint256",
					"name": "firstTicketId",
					"type": "uint256"
				},
				{
					"indexed": false,
					"internalType": "uint256",
					"name": "injectedAmount",
					"type": "uint256"
				}
			],
			"name": "LotteryOpen",
			"type": "event"
		},
		{
			"anonymous": false,
			"inputs": [
				{
					"indexed": false,
					"internalType": "address",
					"name": "operator",
					"type": "address"
				},
				{
					"indexed": false,
					"internalType": "address",
					"name": "treasury",
					"type": "address"
				},
				{
					"indexed": false,
					"internalType": "address",
					"name": "injector",
					"type": "address"
				}
			],
			"name": "NewOperatorAndTreasuryAndInjectorAddresses",
			"type": "event"
		},
		{
			"anonymous": false,
			"inputs": [
				{
					"indexed": true,
					"internalType": "address",
					"name": "previousOwner",
					"type": "address"
				},
				{
					"indexed": true,
					"internalType": "address",
					"name": "newOwner",
					"type": "address"
				}
			],
			"name": "OwnershipTransferred",
			"type": "event"
		},
		{
			"anonymous": false,
			"inputs": [
				{
					"indexed": true,
					"internalType": "address",
					"name": "claimer",
					"type": "address"
				},
				{
					"indexed": false,
					"internalType": "uint256",
					"name": "amount",
					"type": "uint256"
				},
				{
					"indexed": true,
					"internalType": "uint256",
					"name": "lotteryId",
					"type": "uint256"
				},
				{
					"indexed": false,
					"internalType": "uint256",
					"name": "numberTickets",
					"type": "uint256"
				}
			],
			"name": "TicketsClaim",
			"type": "event"
		},
		{
			"anonymous": false,
			"inputs": [
				{
					"indexed": true,
					"internalType": "address",
					"name": "buyer",
					"type": "address"
				},
				{
					"indexed": true,
					"internalType": "uint256",
					"name": "lotteryId",
					"type": "uint256"
				},
				{
					"indexed": false,
					"internalType": "uint256",
					"name": "numberTickets",
					"type": "uint256"
				}
			],
			"name": "TicketsPurchase",
			"type": "event"
		},
		{
			"inputs": [],
			"name": "MAX_LENGTH_LOTTERY",
			"outputs": [
				{
					"internalType": "uint256",
					"name": "",
					"type": "uint256"
				}
			],
			"stateMutability": "view",
			"type": "function"
		},
		{
			"inputs": [],
			"name": "MAX_TREASURY_FEE",
			"outputs": [
				{
					"internalType": "uint256",
					"name": "",
					"type": "uint256"
				}
			],
			"stateMutability": "view",
			"type": "function"
		},
		{
			"inputs": [],
			"name": "MIN_DISCOUNT_DIVISOR",
			"outputs": [
				{
					"internalType": "uint256",
					"name": "",
					"type": "uint256"
				}
			],
			"stateMutability": "view",
			"type": "function"
		},
		{
			"inputs": [],
			"name": "MIN_LENGTH_LOTTERY",
			"outputs": [
				{
					"internalType": "uint256",
					"name": "",
					"type": "uint256"
				}
			],
			"stateMutability": "view",
			"type": "function"
		},
		{
			"inputs": [
				{
					"internalType": "uint256",
					"name": "_lotteryId",
					"type": "uint256"
				},
				{
					"internalType": "uint32[]",
					"name": "_ticketNumbers",
					"type": "uint32[]"
				}
			],
			"name": "buyTickets",
			"outputs": [],
			"stateMutability": "nonpayable",
			"type": "function"
		},
		{
			"inputs": [],
			"name": "cakeToken",
			"outputs": [
				{
					"internalType": "contract IERC20",
					"name": "",
					"type": "address"
				}
			],
			"stateMutability": "view",
			"type": "function"
		},
		{
			"inputs": [
				{
					"internalType": "uint256",
					"name": "_discountDivisor",
					"type": "uint256"
				},
				{
					"internalType": "uint256",
					"name": "_priceTicket",
					"type": "uint256"
				},
				{
					"internalType": "uint256",
					"name": "_numberTickets",
					"type": "uint256"
				}
			],
			"name": "calculateTotalPriceForBulkTickets",
			"outputs": [
				{
					"internalType": "uint256",
					"name": "",
					"type": "uint256"
				}
			],
			"stateMutability": "pure",
			"type": "function"
		},
		{
			"inputs": [
				{
					"internalType": "uint256",
					"name": "_lotteryId",
					"type": "uint256"
				},
				{
					"internalType": "uint256[]",
					"name": "_ticketIds",
					"type": "uint256[]"
				},
				{
					"internalType": "uint32[]",
					"name": "_brackets",
					"type": "uint32[]"
				}
			],
			"name": "claimTickets",
			"outputs": [],
			"stateMutability": "nonpayable",
			"type": "function"
		},
		{
			"inputs": [
				{
					"internalType": "uint256",
					"name": "_lotteryId",
					"type": "uint256"
				}
			],
			"name": "closeLottery",
			"outputs": [],
			"stateMutability": "nonpayable",
			"type": "function"
		},
		{
			"inputs": [],
			"name": "currentLotteryId",
			"outputs": [
				{
					"internalType": "uint256",
					"name": "",
					"type": "uint256"
				}
			],
			"stateMutability": "view",
			"type": "function"
		},
		{
			"inputs": [],
			"name": "currentTicketId",
			"outputs": [
				{
					"internalType": "uint256",
					"name": "",
					"type": "uint256"
				}
			],
			"stateMutability": "view",
			"type": "function"
		},
		{
			"inputs": [
				{
					"internalType": "uint256",
					"name": "_lotteryId",
					"type": "uint256"
				},
				{
					"internalType": "bytes32",
					"name": "_seed",
					"type": "bytes32"
				},
				{
					"internalType": "bool",
					"name": "_autoInjection",
					"type": "bool"
				}
			],
			"name": "drawFinalNumberAndMakeLotteryClaimable",
			"outputs": [],
			"stateMutability": "nonpayable",
			"type": "function"
		},
		{
			"inputs": [
				{
					"internalType": "uint256",
					"name": "_lotteryId",
					"type": "uint256"
				},
				{
					"internalType": "uint256",
					"name": "_amount",
					"type": "uint256"
				}
			],
			"name": "injectFunds",
			"outputs": [],
			"stateMutability": "nonpayable",
			"type": "function"
		},
		{
			"inputs": [],
			"name": "injectorAddress",
			"outputs": [
				{
					"internalType": "address",
					"name": "",
					"type": "address"
				}
			],
			"stateMutability": "view",
			"type": "function"
		},
		{
			"inputs": [],
			"name": "maxNumberTicketsPerBuyOrClaim",
			"outputs": [
				{
					"internalType": "uint256",
					"name": "",
					"type": "uint256"
				}
			],
			"stateMutability": "view",
			"type": "function"
		},
		{
			"inputs": [],
			"name": "maxPriceTicketInCake",
			"outputs": [
				{
					"internalType": "uint256",
					"name": "",
					"type": "uint256"
				}
			],
			"stateMutability": "view",
			"type": "function"
		},
		{
			"inputs": [],
			"name": "minPriceTicketInCake",
			"outputs": [
				{
					"internalType": "uint256",
					"name": "",
					"type": "uint256"
				}
			],
			"stateMutability": "view",
			"type": "function"
		},
		{
			"inputs": [],
			"name": "numbersCount",
			"outputs": [
				{
					"internalType": "uint32",
					"name": "",
					"type": "uint32"
				}
			],
			"stateMutability": "view",
			"type": "function"
		},
		{
			"inputs": [],
			"name": "operatorAddress",
			"outputs": [
				{
					"internalType": "address",
					"name": "",
					"type": "address"
				}
			],
			"stateMutability": "view",
			"type": "function"
		},
		{
			"inputs": [],
			"name": "owner",
			"outputs": [
				{
					"internalType": "address",
					"name": "",
					"type": "address"
				}
			],
			"stateMutability": "view",
			"type": "function"
		},
		{
			"inputs": [],
			"name": "pendingInjectionNextLottery",
			"outputs": [
				{
					"internalType": "uint256",
					"name": "",
					"type": "uint256"
				}
			],
			"stateMutability": "view",
			"type": "function"
		},
		{
			"inputs": [
				{
					"internalType": "address",
					"name": "_tokenAddress",
					"type": "address"
				},
				{
					"internalType": "uint256",
					"name": "_tokenAmount",
					"type": "uint256"
				}
			],
			"name": "recoverWrongTokens",
			"outputs": [],
			"stateMutability": "nonpayable",
			"type": "function"
		},
		{
			"inputs": [],
			"name": "renounceOwnership",
			"outputs": [],
			"stateMutability": "nonpayable",
			"type": "function"
		},
		{
			"inputs": [
				{
					"internalType": "uint256",
					"name": "_maxNumberTicketsPerBuy",
					"type": "uint256"
				}
			],
			"name": "setMaxNumberTicketsPerBuy",
			"outputs": [],
			"stateMutability": "nonpayable",
			"type": "function"
		},
		{
			"inputs": [
				{
					"internalType": "uint256",
					"name": "_minPriceTicketInCake",
					"type": "uint256"
				},
				{
					"internalType": "uint256",
					"name": "_maxPriceTicketInCake",
					"type": "uint256"
				}
			],
			"name": "setMinAndMaxTicketPriceInCake",
			"outputs": [],
			"stateMutability": "nonpayable",
			"type": "function"
		},
		{
			"inputs": [
				{
					"internalType": "uint32",
					"name": "_numbersCount",
					"type": "uint32"
				}
			],
			"name": "setNumbersCount",
			"outputs": [],
			"stateMutability": "nonpayable",
			"type": "function"
		},
		{
			"inputs": [
				{
					"internalType": "address",
					"name": "_operatorAddress",
					"type": "address"
				}
			],
			"name": "setOperatorAddresses",
			"outputs": [],
			"stateMutability": "nonpayable",
			"type": "function"
		},
		{
			"inputs": [
				{
					"internalType": "address",
					"name": "_operatorAddress",
					"type": "address"
				},
				{
					"internalType": "address",
					"name": "_treasuryAddress",
					"type": "address"
				},
				{
					"internalType": "address",
					"name": "_injectorAddress",
					"type": "address"
				}
			],
			"name": "setOperatorAndTreasuryAndInjectorAddresses",
			"outputs": [],
			"stateMutability": "nonpayable",
			"type": "function"
		},
		{
			"inputs": [
				{
					"internalType": "uint256",
					"name": "_endTime",
					"type": "uint256"
				},
				{
					"internalType": "uint256",
					"name": "_priceTicketInCake",
					"type": "uint256"
				},
				{
					"internalType": "uint256",
					"name": "_discountDivisor",
					"type": "uint256"
				},
				{
					"internalType": "uint256[6]",
					"name": "_rewardsBreakdown",
					"type": "uint256[6]"
				},
				{
					"internalType": "uint256",
					"name": "_treasuryFee",
					"type": "uint256"
				}
			],
			"name": "startLottery",
			"outputs": [],
			"stateMutability": "nonpayable",
			"type": "function"
		},
		{
			"inputs": [
				{
					"internalType": "address",
					"name": "newOwner",
					"type": "address"
				}
			],
			"name": "transferOwnership",
			"outputs": [],
			"stateMutability": "nonpayable",
			"type": "function"
		},
		{
			"inputs": [],
			"name": "treasuryAddress",
			"outputs": [
				{
					"internalType": "address",
					"name": "",
					"type": "address"
				}
			],
			"stateMutability": "view",
			"type": "function"
		},
		{
			"inputs": [],
			"name": "viewCurrentLotteryId",
			"outputs": [
				{
					"internalType": "uint256",
					"name": "",
					"type": "uint256"
				}
			],
			"stateMutability": "view",
			"type": "function"
		},
		{
			"inputs": [
				{
					"internalType": "uint256",
					"name": "_lotteryId",
					"type": "uint256"
				}
			],
			"name": "viewLottery",
			"outputs": [
				{
					"components": [
						{
							"internalType": "enum PancakeSwapLottery.Status",
							"name": "status",
							"type": "uint8"
						},
						{
							"internalType": "uint256",
							"name": "startTime",
							"type": "uint256"
						},
						{
							"internalType": "uint256",
							"name": "endTime",
							"type": "uint256"
						},
						{
							"internalType": "uint256",
							"name": "priceTicketInCake",
							"type": "uint256"
						},
						{
							"internalType": "uint256",
							"name": "discountDivisor",
							"type": "uint256"
						},
						{
							"internalType": "uint256[6]",
							"name": "rewardsBreakdown",
							"type": "uint256[6]"
						},
						{
							"internalType": "uint256",
							"name": "treasuryFee",
							"type": "uint256"
						},
						{
							"internalType": "uint256[6]",
							"name": "cakePerBracket",
							"type": "uint256[6]"
						},
						{
							"internalType": "uint256[6]",
							"name": "countWinnersPerBracket",
							"type": "uint256[6]"
						},
						{
							"internalType": "uint256",
							"name": "firstTicketId",
							"type": "uint256"
						},
						{
							"internalType": "uint256",
							"name": "firstTicketIdNextLottery",
							"type": "uint256"
						},
						{
							"internalType": "uint256",
							"name": "amountCollectedInCake",
							"type": "uint256"
						},
						{
							"internalType": "uint32",
							"name": "finalNumber",
							"type": "uint32"
						}
					],
					"internalType": "struct PancakeSwapLottery.Lottery",
					"name": "",
					"type": "tuple"
				}
			],
			"stateMutability": "view",
			"type": "function"
		},
		{
			"inputs": [
				{
					"internalType": "uint256[]",
					"name": "_ticketIds",
					"type": "uint256[]"
				}
			],
			"name": "viewNumbersAndStatusesForTicketIds",
			"outputs": [
				{
					"internalType": "uint32[]",
					"name": "",
					"type": "uint32[]"
				},
				{
					"internalType": "bool[]",
					"name": "",
					"type": "bool[]"
				}
			],
			"stateMutability": "view",
			"type": "function"
		},
		{
			"inputs": [
				{
					"internalType": "uint256",
					"name": "_lotteryId",
					"type": "uint256"
				},
				{
					"internalType": "uint256",
					"name": "_ticketId",
					"type": "uint256"
				},
				{
					"internalType": "uint32",
					"name": "_bracket",
					"type": "uint32"
				}
			],
			"name": "viewRewardsForTicketId",
			"outputs": [
				{
					"internalType": "uint256",
					"name": "",
					"type": "uint256"
				}
			],
			"stateMutability": "view",
			"type": "function"
		},
		{
			"inputs": [
				{
					"internalType": "address",
					"name": "_user",
					"type": "address"
				},
				{
					"internalType": "uint256",
					"name": "_lotteryId",
					"type": "uint256"
				},
				{
					"internalType": "uint256",
					"name": "_cursor",
					"type": "uint256"
				},
				{
					"internalType": "uint256",
					"name": "_size",
					"type": "uint256"
				}
			],
			"name": "viewUserInfoForLotteryId",
			"outputs": [
				{
					"internalType": "uint256[]",
					"name": "",
					"type": "uint256[]"
				},
				{
					"internalType": "uint32[]",
					"name": "",
					"type": "uint32[]"
				},
				{
					"internalType": "bool[]",
					"name": "",
					"type": "bool[]"
				},
				{
					"internalType": "uint256",
					"name": "",
					"type": "uint256"
				}
			],
			"stateMutability": "view",
			"type": "function"
		}
	]
}